{
  "contractName": "Casino",
  "abi": [
    {
      "inputs": [
        {
          "internalType": "uint256",
          "name": "_minimumBet",
          "type": "uint256"
        }
      ],
      "payable": false,
      "stateMutability": "nonpayable",
      "type": "constructor"
    },
    {
      "payable": true,
      "stateMutability": "payable",
      "type": "fallback"
    },
    {
      "constant": true,
      "inputs": [],
      "name": "maxAmountOfBets",
      "outputs": [
        {
          "internalType": "uint256",
          "name": "",
          "type": "uint256"
        }
      ],
      "payable": false,
      "stateMutability": "view",
      "type": "function"
    },
    {
      "constant": true,
      "inputs": [],
      "name": "minimumBet",
      "outputs": [
        {
          "internalType": "uint256",
          "name": "",
          "type": "uint256"
        }
      ],
      "payable": false,
      "stateMutability": "view",
      "type": "function"
    },
    {
      "constant": true,
      "inputs": [],
      "name": "numberOfBets",
      "outputs": [
        {
          "internalType": "uint256",
          "name": "",
          "type": "uint256"
        }
      ],
      "payable": false,
      "stateMutability": "view",
      "type": "function"
    },
    {
      "constant": true,
      "inputs": [],
      "name": "owner",
      "outputs": [
        {
          "internalType": "address payable",
          "name": "",
          "type": "address"
        }
      ],
      "payable": false,
      "stateMutability": "view",
      "type": "function"
    },
    {
      "constant": true,
      "inputs": [
        {
          "internalType": "address",
          "name": "",
          "type": "address"
        }
      ],
      "name": "playerInfo",
      "outputs": [
        {
          "internalType": "uint256",
          "name": "amountBet",
          "type": "uint256"
        },
        {
          "internalType": "uint256",
          "name": "numberSelected",
          "type": "uint256"
        }
      ],
      "payable": false,
      "stateMutability": "view",
      "type": "function"
    },
    {
      "constant": true,
      "inputs": [
        {
          "internalType": "uint256",
          "name": "",
          "type": "uint256"
        }
      ],
      "name": "players",
      "outputs": [
        {
          "internalType": "address payable",
          "name": "",
          "type": "address"
        }
      ],
      "payable": false,
      "stateMutability": "view",
      "type": "function"
    },
    {
      "constant": true,
      "inputs": [],
      "name": "totalBet",
      "outputs": [
        {
          "internalType": "uint256",
          "name": "",
          "type": "uint256"
        }
      ],
      "payable": false,
      "stateMutability": "view",
      "type": "function"
    },
    {
      "constant": true,
      "inputs": [
        {
          "internalType": "address",
          "name": "player",
          "type": "address"
        }
      ],
      "name": "checkPlayerExists",
      "outputs": [
        {
          "internalType": "bool",
          "name": "",
          "type": "bool"
        }
      ],
      "payable": false,
      "stateMutability": "view",
      "type": "function"
    },
    {
      "constant": false,
      "inputs": [
        {
          "internalType": "uint256",
          "name": "numberWinner",
          "type": "uint256"
        }
      ],
      "name": "distributePrizes",
      "outputs": [],
      "payable": false,
      "stateMutability": "nonpayable",
      "type": "function"
    },
    {
      "constant": false,
      "inputs": [],
      "name": "generateNumberWinner",
      "outputs": [],
      "payable": false,
      "stateMutability": "nonpayable",
      "type": "function"
    },
    {
      "constant": false,
      "inputs": [
        {
          "internalType": "uint256",
          "name": "numberSelected",
          "type": "uint256"
        }
      ],
      "name": "bet",
      "outputs": [],
      "payable": true,
      "stateMutability": "payable",
      "type": "function"
    },
    {
      "constant": false,
      "inputs": [],
      "name": "resetData",
      "outputs": [],
      "payable": false,
      "stateMutability": "nonpayable",
      "type": "function"
    },
    {
      "constant": false,
      "inputs": [],
      "name": "kill",
      "outputs": [],
      "payable": false,
      "stateMutability": "nonpayable",
      "type": "function"
    }
  ],
  "bytecode": "0x6080604052606460045534801561001557600080fd5b50604051610bad380380610bad8339818101604052602081101561003857600080fd5b8101908080519060200190929190505050336000806101000a81548173ffffffffffffffffffffffffffffffffffffffff021916908373ffffffffffffffffffffffffffffffffffffffff1602179055506000811461009957806001819055505b50610b04806100a96000396000f3fe6080604052600436106100c25760003560e01c80636ca3fc3b1161007f578063c38a8afd11610059578063c38a8afd146102c9578063e08a96cd146102f4578063f71d96cb1461031f578063fe5e18531461039a576100c2565b80636ca3fc3b146102095780637365870b146102445780638da5cb5b14610272576100c2565b80630a50e361146100c45780632ca8c6d3146100db5780634081d9161461010657806341c0e1b51461016f578063478c4e0e146101865780634b1146911461019d575b005b3480156100d057600080fd5b506100d96103c5565b005b3480156100e757600080fd5b506100f06103e3565b6040518082815260200191505060405180910390f35b34801561011257600080fd5b506101556004803603602081101561012957600080fd5b81019080803573ffffffffffffffffffffffffffffffffffffffff1690602001909291905050506103e9565b604051808215151515815260200191505060405180910390f35b34801561017b57600080fd5b50610184610483565b005b34801561019257600080fd5b5061019b610514565b005b3480156101a957600080fd5b506101ec600480360360208110156101c057600080fd5b81019080803573ffffffffffffffffffffffffffffffffffffffff169060200190929190505050610536565b604051808381526020018281526020019250505060405180910390f35b34801561021557600080fd5b506102426004803603602081101561022c57600080fd5b810190808035906020019092919050505061055a565b005b6102706004803603602081101561025a57600080fd5b8101908080359060200190929190505050610743565b005b34801561027e57600080fd5b506102876109e8565b604051808273ffffffffffffffffffffffffffffffffffffffff1673ffffffffffffffffffffffffffffffffffffffff16815260200191505060405180910390f35b3480156102d557600080fd5b506102de610a0d565b6040518082815260200191505060405180910390f35b34801561030057600080fd5b50610309610a13565b6040518082815260200191505060405180910390f35b34801561032b57600080fd5b506103586004803603602081101561034257600080fd5b8101908080359060200190929190505050610a19565b604051808273ffffffffffffffffffffffffffffffffffffffff1673ffffffffffffffffffffffffffffffffffffffff16815260200191505060405180910390f35b3480156103a657600080fd5b506103af610a55565b6040518082815260200191505060405180910390f35b60006001600a43816103d357fe5b060190506103e08161055a565b50565b60035481565b6000806000905060058054905081101561047c578273ffffffffffffffffffffffffffffffffffffffff166005828154811061042157fe5b9060005260206000200160009054906101000a900473ffffffffffffffffffffffffffffffffffffffff1673ffffffffffffffffffffffffffffffffffffffff16141561047257600191505061047e565b600091505061047e565b505b919050565b6000809054906101000a900473ffffffffffffffffffffffffffffffffffffffff1673ffffffffffffffffffffffffffffffffffffffff163373ffffffffffffffffffffffffffffffffffffffff161415610512576000809054906101000a900473ffffffffffffffffffffffffffffffffffffffff1673ffffffffffffffffffffffffffffffffffffffff16ff5b565b60006005816105239190610a5b565b5060006002819055506000600381905550565b60066020528060005260406000206000915090508060000154908060010154905082565b610562610a87565b600080905060008090505b6005805490508110156106635760006005828154811061058957fe5b9060005260206000200160009054906101000a900473ffffffffffffffffffffffffffffffffffffffff16905084600660008373ffffffffffffffffffffffffffffffffffffffff1673ffffffffffffffffffffffffffffffffffffffff16815260200190815260200160002060010154141561064d578084846064811061060d57fe5b602002019073ffffffffffffffffffffffffffffffffffffffff16908173ffffffffffffffffffffffffffffffffffffffff168152505082806001019350505b610655610514565b50808060010191505061056d565b5060006005816106739190610a5b565b50600060646002548161068257fe5b04905060008090505b8281101561073c57600073ffffffffffffffffffffffffffffffffffffffff168482606481106106b757fe5b602002015173ffffffffffffffffffffffffffffffffffffffff161461072f578381606481106106e357fe5b602002015173ffffffffffffffffffffffffffffffffffffffff166108fc839081150290604051600060405180830381858888f1935050505015801561072d573d6000803e3d6000fd5b505b808060010191505061068b565b5050505050565b61074c336103e9565b156107bf576040517f08c379a00000000000000000000000000000000000000000000000000000000081526004018080602001828103825260158152602001807f506c6179657220646f6573206e6f74206578697374000000000000000000000081525060200191505060405180910390fd5b600181101580156107d15750600a8111155b610843576040517f08c379a000000000000000000000000000000000000000000000000000000000815260040180806020018281038252601f8152602001807f4e756d6265722073656c6563746564206973206f7574206f662072616e67650081525060200191505060405180910390fd5b6001543410156108bb576040517f08c379a00000000000000000000000000000000000000000000000000000000081526004018080602001828103825260158152602001807f6d757374206d656574206d696e696d756d20626574000000000000000000000081525060200191505060405180910390fd5b34600660003373ffffffffffffffffffffffffffffffffffffffff1673ffffffffffffffffffffffffffffffffffffffff1681526020019081526020016000206000018190555080600660003373ffffffffffffffffffffffffffffffffffffffff1673ffffffffffffffffffffffffffffffffffffffff1681526020019081526020016000206001018190555060036000815480929190600101919050555060053390806001815401808255809150509060018203906000526020600020016000909192909190916101000a81548173ffffffffffffffffffffffffffffffffffffffff021916908373ffffffffffffffffffffffffffffffffffffffff1602179055505034600260008282540192505081905550600454600354106109e5576109e46103c5565b5b50565b6000809054906101000a900473ffffffffffffffffffffffffffffffffffffffff1681565b60015481565b60045481565b60058181548110610a2657fe5b906000526020600020016000915054906101000a900473ffffffffffffffffffffffffffffffffffffffff1681565b60025481565b815481835581811115610a8257818360005260206000209182019101610a819190610aaa565b5b505050565b60405180610c800160405280606490602082028038833980820191505090505090565b610acc91905b80821115610ac8576000816000905550600101610ab0565b5090565b9056fea265627a7a72315820baeddaf366e00640161dff9818213fcd3e6afeda031c4e9c83041a98d339620464736f6c63430005100032",
  "source": "pragma solidity ^0.5.16;\r\n\r\ncontract Casino {\r\n    address payable public owner;\r\n    uint256 public minimumBet;\r\n    uint256 public totalBet;\r\n    uint256 public numberOfBets;\r\n    uint256 public maxAmountOfBets = 100;\r\n    address payable[] public players;\r\n\r\n    struct Player {\r\n        //uint256 id;\r\n        uint256 amountBet;\r\n        uint256 numberSelected;\r\n    }\r\n\r\n    mapping(address => Player) public playerInfo;\r\n\r\n    function () external payable {}\r\n\r\n    constructor (uint256 _minimumBet) public {\r\n        owner = msg.sender;\r\n        if (_minimumBet != 0) {\r\n            minimumBet = _minimumBet;\r\n        }\r\n\r\n    }\r\n\r\n    function checkPlayerExists(\r\n        address player\r\n    ) public view returns (bool) {\r\n        for(uint256 i = 0; i < players.length; i++) {\r\n            if(players[i] == player) {\r\n                return true;\r\n            } else {\r\n                return false;\r\n            }\r\n        }\r\n    }\r\n\r\n    function distributePrizes(uint256 numberWinner) public {\r\n        address payable[100] memory winners;\r\n        // count for array of winners\r\n        uint256 count = 0;\r\n        \r\n        for(uint256 i = 0; i < players.length; i++) {\r\n            address payable playerAddress = players[i];\r\n            if(playerInfo[playerAddress].numberSelected == numberWinner) {\r\n                winners[count] = playerAddress;\r\n                count++;\r\n            }\r\n            // Delete all players after distribution\r\n            //delete playerInfo[playerAddress];\r\n            resetData();\r\n        }\r\n\r\n        players.length = 0;\r\n\r\n        // How much each winner gets\r\n        uint256 winnerEtherAmount = totalBet / winners.length;\r\n        for(uint256 j = 0; j < count; j++) {\r\n            // make sure address is not empty\r\n            if(winners[j] != address(0)) {\r\n                winners[j].transfer(winnerEtherAmount);\r\n            }\r\n        }\r\n    }\r\n\r\n    function generateNumberWinner() public {\r\n        uint256 numberGenerated = block.number % 10 + 1; // This isn't secure\r\n        distributePrizes(numberGenerated);\r\n    }\r\n\r\n    // To bet for a number between 1 and 10 both inclusive\r\n    function bet(uint256 numberSelected) public payable {\r\n      require(!checkPlayerExists(msg.sender), 'Player does not exist');\r\n      require(numberSelected >= 1 && numberSelected <= 10, 'Number selected is out of range');\r\n      require(msg.value >= minimumBet, 'must meet minimum bet');\r\n      playerInfo[msg.sender].amountBet = msg.value;\r\n      playerInfo[msg.sender].numberSelected = numberSelected;\r\n      numberOfBets++;\r\n      players.push(msg.sender);\r\n      totalBet += msg.value;\r\n\r\n      if(numberOfBets >= maxAmountOfBets) {\r\n          generateNumberWinner();\r\n      }\r\n    }\r\n\r\n    function resetData() public {\r\n        players.length = 0; // Delete all the players array\r\n        totalBet = 0;\r\n        numberOfBets = 0;\r\n    }\r\n\r\n    function kill() public {\r\n        if (msg.sender == owner) {\r\n            selfdestruct(owner);\r\n        }\r\n    }\r\n}",
  "sourcePath": "C:\\Users\\jaxco\\source\\repos\\HederaHack\\InsureNET-Hedera\\admin-tool\\src\\contracts\\utility\\Casino.sol",
  "compiler": {
    "name": "solc",
    "version": "0.5.16+commit.9c3226ce.Emscripten.clang"
  },
  "schemaVersion": "3.0.23",
  "updatedAt": "2020-04-11T23:32:45.047Z",
  "devdoc": {
    "methods": {}
  },
  "userdoc": {
    "methods": {}
  }
}