{
  "contractName": "Casino",
  "abi": [
    {
      "inputs": [
        {
          "internalType": "uint256",
          "name": "_minimumBet",
          "type": "uint256"
        }
      ],
      "payable": false,
      "stateMutability": "nonpayable",
      "type": "constructor"
    },
    {
      "payable": true,
      "stateMutability": "payable",
      "type": "fallback"
    },
    {
      "constant": true,
      "inputs": [],
      "name": "maxAmountOfBets",
      "outputs": [
        {
          "internalType": "uint256",
          "name": "",
          "type": "uint256"
        }
      ],
      "payable": false,
      "stateMutability": "view",
      "type": "function"
    },
    {
      "constant": true,
      "inputs": [],
      "name": "minimumBet",
      "outputs": [
        {
          "internalType": "uint256",
          "name": "",
          "type": "uint256"
        }
      ],
      "payable": false,
      "stateMutability": "view",
      "type": "function"
    },
    {
      "constant": true,
      "inputs": [],
      "name": "numberOfBets",
      "outputs": [
        {
          "internalType": "uint256",
          "name": "",
          "type": "uint256"
        }
      ],
      "payable": false,
      "stateMutability": "view",
      "type": "function"
    },
    {
      "constant": true,
      "inputs": [],
      "name": "owner",
      "outputs": [
        {
          "internalType": "address payable",
          "name": "",
          "type": "address"
        }
      ],
      "payable": false,
      "stateMutability": "view",
      "type": "function"
    },
    {
      "constant": true,
      "inputs": [
        {
          "internalType": "address",
          "name": "",
          "type": "address"
        }
      ],
      "name": "playerInfo",
      "outputs": [
        {
          "internalType": "uint256",
          "name": "amountBet",
          "type": "uint256"
        },
        {
          "internalType": "uint256",
          "name": "numberSelected",
          "type": "uint256"
        }
      ],
      "payable": false,
      "stateMutability": "view",
      "type": "function"
    },
    {
      "constant": true,
      "inputs": [
        {
          "internalType": "uint256",
          "name": "",
          "type": "uint256"
        }
      ],
      "name": "players",
      "outputs": [
        {
          "internalType": "address payable",
          "name": "",
          "type": "address"
        }
      ],
      "payable": false,
      "stateMutability": "view",
      "type": "function"
    },
    {
      "constant": true,
      "inputs": [],
      "name": "totalBet",
      "outputs": [
        {
          "internalType": "uint256",
          "name": "",
          "type": "uint256"
        }
      ],
      "payable": false,
      "stateMutability": "view",
      "type": "function"
    },
    {
      "constant": true,
      "inputs": [
        {
          "internalType": "address",
          "name": "player",
          "type": "address"
        }
      ],
      "name": "checkPlayerExists",
      "outputs": [
        {
          "internalType": "bool",
          "name": "",
          "type": "bool"
        }
      ],
      "payable": false,
      "stateMutability": "view",
      "type": "function"
    },
    {
      "constant": false,
      "inputs": [
        {
          "internalType": "uint256",
          "name": "numberWinner",
          "type": "uint256"
        }
      ],
      "name": "distributePrizes",
      "outputs": [],
      "payable": false,
      "stateMutability": "nonpayable",
      "type": "function"
    },
    {
      "constant": false,
      "inputs": [],
      "name": "generateNumberWinner",
      "outputs": [],
      "payable": false,
      "stateMutability": "nonpayable",
      "type": "function"
    },
    {
      "constant": false,
      "inputs": [
        {
          "internalType": "uint256",
          "name": "numberSelected",
          "type": "uint256"
        }
      ],
      "name": "bet",
      "outputs": [],
      "payable": true,
      "stateMutability": "payable",
      "type": "function"
    },
    {
      "constant": false,
      "inputs": [],
      "name": "kill",
      "outputs": [],
      "payable": false,
      "stateMutability": "nonpayable",
      "type": "function"
    }
  ],
  "bytecode": "0x6080604052606460045534801561001557600080fd5b50604051610ba3380380610ba38339818101604052602081101561003857600080fd5b8101908080519060200190929190505050336000806101000a81548173ffffffffffffffffffffffffffffffffffffffff021916908373ffffffffffffffffffffffffffffffffffffffff1602179055506000811461009957806001819055505b50610afa806100a96000396000f3fe6080604052600436106100a75760003560e01c80637365870b116100645780637365870b146102125780638da5cb5b14610240578063c38a8afd14610297578063e08a96cd146102c2578063f71d96cb146102ed578063fe5e185314610368576100a7565b80630a50e361146100a95780632ca8c6d3146100c05780634081d916146100eb57806341c0e1b5146101545780634b1146911461016b5780636ca3fc3b146101d7575b005b3480156100b557600080fd5b506100be610393565b005b3480156100cc57600080fd5b506100d56103b1565b6040518082815260200191505060405180910390f35b3480156100f757600080fd5b5061013a6004803603602081101561010e57600080fd5b81019080803573ffffffffffffffffffffffffffffffffffffffff1690602001909291905050506103b7565b604051808215151515815260200191505060405180910390f35b34801561016057600080fd5b50610169610451565b005b34801561017757600080fd5b506101ba6004803603602081101561018e57600080fd5b81019080803573ffffffffffffffffffffffffffffffffffffffff1690602001909291905050506104e2565b604051808381526020018281526020019250505060405180910390f35b3480156101e357600080fd5b50610210600480360360208110156101fa57600080fd5b8101908080359060200190929190505050610506565b005b61023e6004803603602081101561022857600080fd5b8101908080359060200190929190505050610739565b005b34801561024c57600080fd5b506102556109de565b604051808273ffffffffffffffffffffffffffffffffffffffff1673ffffffffffffffffffffffffffffffffffffffff16815260200191505060405180910390f35b3480156102a357600080fd5b506102ac610a03565b6040518082815260200191505060405180910390f35b3480156102ce57600080fd5b506102d7610a09565b6040518082815260200191505060405180910390f35b3480156102f957600080fd5b506103266004803603602081101561031057600080fd5b8101908080359060200190929190505050610a0f565b604051808273ffffffffffffffffffffffffffffffffffffffff1673ffffffffffffffffffffffffffffffffffffffff16815260200191505060405180910390f35b34801561037457600080fd5b5061037d610a4b565b6040518082815260200191505060405180910390f35b60006001600a43816103a157fe5b060190506103ae81610506565b50565b60035481565b6000806000905060058054905081101561044a578273ffffffffffffffffffffffffffffffffffffffff16600582815481106103ef57fe5b9060005260206000200160009054906101000a900473ffffffffffffffffffffffffffffffffffffffff1673ffffffffffffffffffffffffffffffffffffffff16141561044057600191505061044c565b600091505061044c565b505b919050565b6000809054906101000a900473ffffffffffffffffffffffffffffffffffffffff1673ffffffffffffffffffffffffffffffffffffffff163373ffffffffffffffffffffffffffffffffffffffff1614156104e0576000809054906101000a900473ffffffffffffffffffffffffffffffffffffffff1673ffffffffffffffffffffffffffffffffffffffff16ff5b565b60066020528060005260406000206000915090508060000154908060010154905082565b61050e610a51565b600080905060008090505b6005805490508110156106595760006005828154811061053557fe5b9060005260206000200160009054906101000a900473ffffffffffffffffffffffffffffffffffffffff16905084600660008373ffffffffffffffffffffffffffffffffffffffff1673ffffffffffffffffffffffffffffffffffffffff1681526020019081526020016000206001015414156105f957808484606481106105b957fe5b602002019073ffffffffffffffffffffffffffffffffffffffff16908173ffffffffffffffffffffffffffffffffffffffff168152505082806001019350505b600660008273ffffffffffffffffffffffffffffffffffffffff1673ffffffffffffffffffffffffffffffffffffffff16815260200190815260200160002060008082016000905560018201600090555050508080600101915050610519565b5060006005816106699190610a74565b50600060646002548161067857fe5b04905060008090505b8281101561073257600073ffffffffffffffffffffffffffffffffffffffff168482606481106106ad57fe5b602002015173ffffffffffffffffffffffffffffffffffffffff1614610725578381606481106106d957fe5b602002015173ffffffffffffffffffffffffffffffffffffffff166108fc839081150290604051600060405180830381858888f19350505050158015610723573d6000803e3d6000fd5b505b8080600101915050610681565b5050505050565b610742336103b7565b156107b5576040517f08c379a00000000000000000000000000000000000000000000000000000000081526004018080602001828103825260158152602001807f506c6179657220646f6573206e6f74206578697374000000000000000000000081525060200191505060405180910390fd5b600181101580156107c75750600a8111155b610839576040517f08c379a000000000000000000000000000000000000000000000000000000000815260040180806020018281038252601f8152602001807f4e756d6265722073656c6563746564206973206f7574206f662072616e67650081525060200191505060405180910390fd5b6001543410156108b1576040517f08c379a00000000000000000000000000000000000000000000000000000000081526004018080602001828103825260158152602001807f6d757374206d656574206d696e696d756d20626574000000000000000000000081525060200191505060405180910390fd5b34600660003373ffffffffffffffffffffffffffffffffffffffff1673ffffffffffffffffffffffffffffffffffffffff1681526020019081526020016000206000018190555080600660003373ffffffffffffffffffffffffffffffffffffffff1673ffffffffffffffffffffffffffffffffffffffff1681526020019081526020016000206001018190555060036000815480929190600101919050555060053390806001815401808255809150509060018203906000526020600020016000909192909190916101000a81548173ffffffffffffffffffffffffffffffffffffffff021916908373ffffffffffffffffffffffffffffffffffffffff1602179055505034600260008282540192505081905550600454600354106109db576109da610393565b5b50565b6000809054906101000a900473ffffffffffffffffffffffffffffffffffffffff1681565b60015481565b60045481565b60058181548110610a1c57fe5b906000526020600020016000915054906101000a900473ffffffffffffffffffffffffffffffffffffffff1681565b60025481565b60405180610c800160405280606490602082028038833980820191505090505090565b815481835581811115610a9b57818360005260206000209182019101610a9a9190610aa0565b5b505050565b610ac291905b80821115610abe576000816000905550600101610aa6565b5090565b9056fea265627a7a72315820af88043012af4697b6d2aa2d5e1c07d6bcb52571d975f5a5c329dcfb2038e0ca64736f6c63430005100032",
  "source": "pragma solidity ^0.5.16;\r\n\r\ncontract Casino {\r\n    address payable public owner;\r\n    uint256 public minimumBet;\r\n    uint256 public totalBet;\r\n    uint256 public numberOfBets;\r\n    uint256 public maxAmountOfBets = 100;\r\n    address payable[] public players;\r\n\r\n    struct Player {\r\n        //uint256 id;\r\n        uint256 amountBet;\r\n        uint256 numberSelected;\r\n    }\r\n\r\n    mapping(address => Player) public playerInfo;\r\n\r\n    function () external payable {}\r\n\r\n    constructor (uint256 _minimumBet) public {\r\n        owner = msg.sender;\r\n        if (_minimumBet != 0) {\r\n            minimumBet = _minimumBet;\r\n        }\r\n\r\n    }\r\n\r\n    function checkPlayerExists(\r\n        address player\r\n    ) public view returns (bool) {\r\n        for(uint256 i = 0; i < players.length; i++) {\r\n            if(players[i] == player) {\r\n                return true;\r\n            } else {\r\n                return false;\r\n            }\r\n        }\r\n    }\r\n\r\n    function distributePrizes(uint256 numberWinner) public {\r\n        address payable[100] memory winners;\r\n        // count for array of winners\r\n        uint256 count = 0;\r\n        \r\n        for(uint256 i = 0; i < players.length; i++) {\r\n            address payable playerAddress = players[i];\r\n            if(playerInfo[playerAddress].numberSelected == numberWinner) {\r\n                winners[count] = playerAddress;\r\n                count++;\r\n            }\r\n            // Delete all players after distribution\r\n            delete playerInfo[playerAddress];\r\n        }\r\n\r\n        players.length = 0;\r\n\r\n        // How much each winner gets\r\n        uint256 winnerEtherAmount = totalBet / winners.length;\r\n        for(uint256 j = 0; j < count; j++) {\r\n            // make sure address is not empty\r\n            if(winners[j] != address(0)) {\r\n                winners[j].transfer(winnerEtherAmount);\r\n            }\r\n        }\r\n    }\r\n\r\n    function generateNumberWinner() public {\r\n        uint256 numberGenerated = block.number % 10 + 1; // This isn't secure\r\n        distributePrizes(numberGenerated);\r\n    }\r\n\r\n    // To bet for a number between 1 and 10 both inclusive\r\n    function bet(uint256 numberSelected) public payable {\r\n      require(!checkPlayerExists(msg.sender), 'Player does not exist');\r\n      require(numberSelected >= 1 && numberSelected <= 10, 'Number selected is out of range');\r\n      require(msg.value >= minimumBet, 'must meet minimum bet');\r\n      playerInfo[msg.sender].amountBet = msg.value;\r\n      playerInfo[msg.sender].numberSelected = numberSelected;\r\n      numberOfBets++;\r\n      players.push(msg.sender);\r\n      totalBet += msg.value;\r\n\r\n      if(numberOfBets >= maxAmountOfBets) {\r\n          generateNumberWinner();\r\n      }\r\n    }\r\n\r\n    function kill() public {\r\n        if (msg.sender == owner) {\r\n            selfdestruct(owner);\r\n        }\r\n    }\r\n}",
  "sourcePath": "C:\\Projects\\InsureNET\\master-branch\\admin-tool\\src\\contracts\\utility\\Casino.sol",
  "compiler": {
    "name": "solc",
    "version": "0.5.16+commit.9c3226ce.Emscripten.clang"
  },
  "schemaVersion": "3.0.23",
  "updatedAt": "2020-04-08T02:22:27.122Z",
  "networkType": "ethereum",
  "devdoc": {
    "methods": {}
  },
  "userdoc": {
    "methods": {}
  }
}