{
  "contractName": "DisasterBond",
  "abi": [
    {
      "inputs": [
        {
          "internalType": "address payable",
          "name": "_oracle",
          "type": "address"
        },
        {
          "internalType": "uint256",
          "name": "_principal",
          "type": "uint256"
        },
        {
          "internalType": "uint256",
          "name": "_duration",
          "type": "uint256"
        }
      ],
      "payable": true,
      "stateMutability": "payable",
      "type": "constructor"
    },
    {
      "constant": true,
      "inputs": [],
      "name": "coupon",
      "outputs": [
        {
          "internalType": "uint256",
          "name": "",
          "type": "uint256"
        }
      ],
      "payable": false,
      "stateMutability": "view",
      "type": "function"
    },
    {
      "constant": true,
      "inputs": [],
      "name": "end",
      "outputs": [
        {
          "internalType": "uint256",
          "name": "",
          "type": "uint256"
        }
      ],
      "payable": false,
      "stateMutability": "view",
      "type": "function"
    },
    {
      "constant": true,
      "inputs": [],
      "name": "insured",
      "outputs": [
        {
          "internalType": "address payable",
          "name": "",
          "type": "address"
        }
      ],
      "payable": false,
      "stateMutability": "view",
      "type": "function"
    },
    {
      "constant": true,
      "inputs": [],
      "name": "investor",
      "outputs": [
        {
          "internalType": "address payable",
          "name": "",
          "type": "address"
        }
      ],
      "payable": false,
      "stateMutability": "view",
      "type": "function"
    },
    {
      "constant": true,
      "inputs": [],
      "name": "oracle",
      "outputs": [
        {
          "internalType": "address payable",
          "name": "",
          "type": "address"
        }
      ],
      "payable": false,
      "stateMutability": "view",
      "type": "function"
    },
    {
      "constant": true,
      "inputs": [],
      "name": "principal",
      "outputs": [
        {
          "internalType": "uint256",
          "name": "",
          "type": "uint256"
        }
      ],
      "payable": false,
      "stateMutability": "view",
      "type": "function"
    },
    {
      "constant": false,
      "inputs": [],
      "name": "invest",
      "outputs": [],
      "payable": true,
      "stateMutability": "payable",
      "type": "function"
    },
    {
      "constant": false,
      "inputs": [
        {
          "internalType": "enum DisasterBond.Outcome",
          "name": "_outcome",
          "type": "uint8"
        }
      ],
      "name": "reportOutcome",
      "outputs": [],
      "payable": false,
      "stateMutability": "nonpayable",
      "type": "function"
    }
  ],
  "bytecode": "0x6080604052604051610b23380380610b238339818101604052606081101561002657600080fd5b8101908080519060200190929190805190602001909291908051906020019092919050505082600260006101000a81548173ffffffffffffffffffffffffffffffffffffffff021916908373ffffffffffffffffffffffffffffffffffffffff160217905550816000819055503460018190555033600460006101000a81548173ffffffffffffffffffffffffffffffffffffffff021916908373ffffffffffffffffffffffffffffffffffffffff160217905550804201600581905550505050610a2d806100f66000396000f3fe60806040526004361061007b5760003560e01c8063e8b5e51f1161004e578063e8b5e51f14610184578063eebb13631461018e578063efbe1c1c146101e5578063fb58eb52146102105761007b565b80631e0018d61461008057806355c01345146100d75780637dc0d1d014610102578063ba5d307814610159575b600080fd5b34801561008c57600080fd5b5061009561024e565b604051808273ffffffffffffffffffffffffffffffffffffffff1673ffffffffffffffffffffffffffffffffffffffff16815260200191505060405180910390f35b3480156100e357600080fd5b506100ec610274565b6040518082815260200191505060405180910390f35b34801561010e57600080fd5b5061011761027a565b604051808273ffffffffffffffffffffffffffffffffffffffff1673ffffffffffffffffffffffffffffffffffffffff16815260200191505060405180910390f35b34801561016557600080fd5b5061016e6102a0565b6040518082815260200191505060405180910390f35b61018c6102a6565b005b34801561019a57600080fd5b506101a3610506565b604051808273ffffffffffffffffffffffffffffffffffffffff1673ffffffffffffffffffffffffffffffffffffffff16815260200191505060405180910390f35b3480156101f157600080fd5b506101fa61052c565b6040518082815260200191505060405180910390f35b34801561021c57600080fd5b5061024c6004803603602081101561023357600080fd5b81019080803560ff169060200190929190505050610532565b005b600460009054906101000a900473ffffffffffffffffffffffffffffffffffffffff1681565b60015481565b600260009054906101000a900473ffffffffffffffffffffffffffffffffffffffff1681565b60005481565b600073ffffffffffffffffffffffffffffffffffffffff16600460009054906101000a900473ffffffffffffffffffffffffffffffffffffffff1673ffffffffffffffffffffffffffffffffffffffff161461036a576040517f08c379a000000000000000000000000000000000000000000000000000000000815260040180806020018281038252601b8152602001807f696e766573746f7220616c72656164792072656769737465726564000000000081525060200191505060405180910390fd5b60005434146103e1576040517f08c379a00000000000000000000000000000000000000000000000000000000081526004018080602001828103825260158152602001807f6e6f7420656e6f756768206d6f6e65792073656e74000000000000000000000081525060200191505060405180910390fd5b6005544210610458576040517f08c379a00000000000000000000000000000000000000000000000000000000081526004018080602001828103825260088152602001807f746f6f206c61746500000000000000000000000000000000000000000000000081525060200191505060405180910390fd5b33600460006101000a81548173ffffffffffffffffffffffffffffffffffffffff021916908373ffffffffffffffffffffffffffffffffffffffff160217905550600460009054906101000a900473ffffffffffffffffffffffffffffffffffffffff1673ffffffffffffffffffffffffffffffffffffffff166108fc6001549081150290604051600060405180830381858888f19350505050158015610503573d6000803e3d6000fd5b50565b600360009054906101000a900473ffffffffffffffffffffffffffffffffffffffff1681565b60055481565b600260009054906101000a900473ffffffffffffffffffffffffffffffffffffffff1673ffffffffffffffffffffffffffffffffffffffff163373ffffffffffffffffffffffffffffffffffffffff16146105f5576040517f08c379a000000000000000000000000000000000000000000000000000000000815260040180806020018281038252601e8152602001807f6f6e6c79206f7261636c652063616e207265706f7274206f7574636f6d65000081525060200191505060405180910390fd5b600073ffffffffffffffffffffffffffffffffffffffff16600460009054906101000a900473ffffffffffffffffffffffffffffffffffffffff1673ffffffffffffffffffffffffffffffffffffffff1614156106ba576040517f08c379a00000000000000000000000000000000000000000000000000000000081526004018080602001828103825260168152602001807f6e6f20696e766573746f7220726567697374657265640000000000000000000081525060200191505060405180910390fd5b6005544210610731576040517f08c379a00000000000000000000000000000000000000000000000000000000081526004018080602001828103825260088152602001807f746f6f206c61746500000000000000000000000000000000000000000000000081525060200191505060405180910390fd5b80600660006101000a81548160ff0219169083600581111561074f57fe5b02179055506001600581111561076157fe5b81600581111561076d57fe5b14156107df57600360009054906101000a900473ffffffffffffffffffffffffffffffffffffffff1673ffffffffffffffffffffffffffffffffffffffff166108fc6000549081150290604051600060405180830381858888f193505050501580156107dd573d6000803e3d6000fd5b505b600260058111156107ec57fe5b8160058111156107f857fe5b141561086a57600360009054906101000a900473ffffffffffffffffffffffffffffffffffffffff1673ffffffffffffffffffffffffffffffffffffffff166108fc6000549081150290604051600060405180830381858888f19350505050158015610868573d6000803e3d6000fd5b505b6003600581111561087757fe5b81600581111561088357fe5b14156108f957600360009054906101000a900473ffffffffffffffffffffffffffffffffffffffff1673ffffffffffffffffffffffffffffffffffffffff166108fc6000549081150290604051600060405180830381858888f193505050501580156108f3573d6000803e3d6000fd5b506109f5565b6004600581111561090657fe5b81600581111561091257fe5b141561098857600460009054906101000a900473ffffffffffffffffffffffffffffffffffffffff1673ffffffffffffffffffffffffffffffffffffffff166108fc6000549081150290604051600060405180830381858888f19350505050158015610982573d6000803e3d6000fd5b506109f4565b600460009054906101000a900473ffffffffffffffffffffffffffffffffffffffff1673ffffffffffffffffffffffffffffffffffffffff166108fc6000549081150290604051600060405180830381858888f193505050501580156109f2573d6000803e3d6000fd5b505b5b5056fea265627a7a7231582029ec637195807a4725f90cacecb2116ffa8854c8cb700f881bd92e4689c2714064736f6c63430005100032",
  "source": "/**\r\n * @title Generic Disaster Bond Contract\r\n * @dev InsureNET Decentralized Insurance Platform Distaster Bond Contract.\r\n * @author Jason Romero\r\n * @copyright 2020 InsureNET\r\n */\r\n\r\npragma solidity ^0.5.16;\r\n\r\ncontract DisasterBond {\r\n    /**\r\n    * @dev Outcome of the event\r\n    * @param none\r\n    */\r\n    enum Outcome { NONE, CAT_3, CAT_4, CAT_5, VOID, OTHER }\r\n\r\n    // state properties\r\n    uint public principal;\r\n    uint public coupon;\r\n    address payable public oracle;\r\n    address payable public insured;\r\n    address payable public investor;\r\n    uint public end;\r\n\r\n    Outcome outcome;\r\n\r\n    // Constructor (runs only once upon deployment)\r\n    constructor(address payable _oracle, uint256 _principal, uint256 _duration) public payable {\r\n        oracle = _oracle;\r\n        principal = _principal;\r\n        coupon = msg.value;\r\n        investor = msg.sender;\r\n        end = block.timestamp + _duration;\r\n    }\r\n\r\n    // called by application to invest in a coupon\r\n    function invest() external payable {\r\n        require(investor == address(0), 'investor already registered');\r\n        require(msg.value == principal, 'not enough money sent');\r\n        require(now < end, 'too late');\r\n\r\n        //\r\n        investor = msg.sender;\r\n        investor.transfer(coupon);\r\n    }\r\n\r\n    // Called by oracle to report the outcome\r\n    function reportOutcome(Outcome _outcome) external {\r\n        require(msg.sender == oracle, 'only oracle can report outcome');\r\n        require(investor != address(0), 'no investor registered');\r\n        require(now < end, 'too late');\r\n\r\n        outcome = _outcome;\r\n\r\n        //\r\n        if(_outcome == Outcome.CAT_3) {\r\n            // transfer to sponser\r\n            insured.transfer(principal);\r\n            \r\n        } if(_outcome == Outcome.CAT_4) {\r\n            // transfer to sponser\r\n            insured.transfer(principal);\r\n            \r\n        } if(_outcome == Outcome.CAT_5) {\r\n            // transfer to sponser\r\n            insured.transfer(principal);\r\n            \r\n        } else if(_outcome == Outcome.VOID) {\r\n            // give back to insured\r\n            investor.transfer(principal);\r\n\r\n        } else {\r\n            // default to insured\r\n            investor.transfer(principal);\r\n        }\r\n    }\r\n}",
  "sourcePath": "C:\\Projects\\InsureNET\\master-branch\\admin-tool\\src\\contracts\\DisasterBond.sol",
  "compiler": {
    "name": "solc",
    "version": "0.5.16+commit.9c3226ce.Emscripten.clang"
  },
  "schemaVersion": "3.1.0",
  "updatedAt": "2020-06-01T21:44:58.250Z",
  "devdoc": {
    "methods": {}
  },
  "userdoc": {
    "methods": {}
  }
}