{
  "contractName": "DisasterBond",
  "abi": [
    {
      "inputs": [
        {
          "internalType": "address",
          "name": "_oracle",
          "type": "address"
        },
        {
          "internalType": "uint256",
          "name": "_principal",
          "type": "uint256"
        },
        {
          "internalType": "uint256",
          "name": "_duration",
          "type": "uint256"
        }
      ],
      "payable": true,
      "stateMutability": "payable",
      "type": "constructor"
    },
    {
      "constant": true,
      "inputs": [],
      "name": "coupon",
      "outputs": [
        {
          "internalType": "uint256",
          "name": "",
          "type": "uint256"
        }
      ],
      "payable": false,
      "stateMutability": "view",
      "type": "function"
    },
    {
      "constant": true,
      "inputs": [],
      "name": "end",
      "outputs": [
        {
          "internalType": "uint256",
          "name": "",
          "type": "uint256"
        }
      ],
      "payable": false,
      "stateMutability": "view",
      "type": "function"
    },
    {
      "constant": true,
      "inputs": [],
      "name": "investor",
      "outputs": [
        {
          "internalType": "address payable",
          "name": "",
          "type": "address"
        }
      ],
      "payable": false,
      "stateMutability": "view",
      "type": "function"
    },
    {
      "constant": true,
      "inputs": [],
      "name": "oracle",
      "outputs": [
        {
          "internalType": "address",
          "name": "",
          "type": "address"
        }
      ],
      "payable": false,
      "stateMutability": "view",
      "type": "function"
    },
    {
      "constant": true,
      "inputs": [],
      "name": "principal",
      "outputs": [
        {
          "internalType": "uint256",
          "name": "",
          "type": "uint256"
        }
      ],
      "payable": false,
      "stateMutability": "view",
      "type": "function"
    },
    {
      "constant": true,
      "inputs": [],
      "name": "sponsor",
      "outputs": [
        {
          "internalType": "address payable",
          "name": "",
          "type": "address"
        }
      ],
      "payable": false,
      "stateMutability": "view",
      "type": "function"
    },
    {
      "constant": false,
      "inputs": [],
      "name": "invest",
      "outputs": [],
      "payable": true,
      "stateMutability": "payable",
      "type": "function"
    },
    {
      "constant": false,
      "inputs": [
        {
          "internalType": "enum DisasterBond.Outcome",
          "name": "_outcome",
          "type": "uint8"
        }
      ],
      "name": "reportOutcome",
      "outputs": [],
      "payable": false,
      "stateMutability": "nonpayable",
      "type": "function"
    }
  ],
  "bytecode": "0x6080604052604051610a0c380380610a0c8339818101604052606081101561002657600080fd5b8101908080519060200190929190805190602001909291908051906020019092919050505082600260006101000a81548173ffffffffffffffffffffffffffffffffffffffff021916908373ffffffffffffffffffffffffffffffffffffffff160217905550816000819055503460018190555033600360006101000a81548173ffffffffffffffffffffffffffffffffffffffff021916908373ffffffffffffffffffffffffffffffffffffffff160217905550804201600581905550505050610916806100f66000396000f3fe60806040526004361061007b5760003560e01c8063ba5d30781161004e578063ba5d3078146101b0578063e8b5e51f146101db578063efbe1c1c146101e5578063fb58eb52146102105761007b565b80631e0018d61461008057806355c01345146100d757806377c93662146101025780637dc0d1d014610159575b600080fd5b34801561008c57600080fd5b5061009561024e565b604051808273ffffffffffffffffffffffffffffffffffffffff1673ffffffffffffffffffffffffffffffffffffffff16815260200191505060405180910390f35b3480156100e357600080fd5b506100ec610274565b6040518082815260200191505060405180910390f35b34801561010e57600080fd5b5061011761027a565b604051808273ffffffffffffffffffffffffffffffffffffffff1673ffffffffffffffffffffffffffffffffffffffff16815260200191505060405180910390f35b34801561016557600080fd5b5061016e6102a0565b604051808273ffffffffffffffffffffffffffffffffffffffff1673ffffffffffffffffffffffffffffffffffffffff16815260200191505060405180910390f35b3480156101bc57600080fd5b506101c56102c6565b6040518082815260200191505060405180910390f35b6101e36102cc565b005b3480156101f157600080fd5b506101fa61052c565b6040518082815260200191505060405180910390f35b34801561021c57600080fd5b5061024c6004803603602081101561023357600080fd5b81019080803560ff169060200190929190505050610532565b005b600460009054906101000a900473ffffffffffffffffffffffffffffffffffffffff1681565b60015481565b600360009054906101000a900473ffffffffffffffffffffffffffffffffffffffff1681565b600260009054906101000a900473ffffffffffffffffffffffffffffffffffffffff1681565b60005481565b600073ffffffffffffffffffffffffffffffffffffffff16600460009054906101000a900473ffffffffffffffffffffffffffffffffffffffff1673ffffffffffffffffffffffffffffffffffffffff1614610390576040517f08c379a000000000000000000000000000000000000000000000000000000000815260040180806020018281038252601b8152602001807f696e766573746f7220616c72656164792072656769737465726564000000000081525060200191505060405180910390fd5b6000543414610407576040517f08c379a00000000000000000000000000000000000000000000000000000000081526004018080602001828103825260158152602001807f6e6f7420656e6f756768206d6f6e65792073656e74000000000000000000000081525060200191505060405180910390fd5b600554421061047e576040517f08c379a00000000000000000000000000000000000000000000000000000000081526004018080602001828103825260088152602001807f746f6f206c61746500000000000000000000000000000000000000000000000081525060200191505060405180910390fd5b33600460006101000a81548173ffffffffffffffffffffffffffffffffffffffff021916908373ffffffffffffffffffffffffffffffffffffffff160217905550600460009054906101000a900473ffffffffffffffffffffffffffffffffffffffff1673ffffffffffffffffffffffffffffffffffffffff166108fc6001549081150290604051600060405180830381858888f19350505050158015610529573d6000803e3d6000fd5b50565b60055481565b600260009054906101000a900473ffffffffffffffffffffffffffffffffffffffff1673ffffffffffffffffffffffffffffffffffffffff163373ffffffffffffffffffffffffffffffffffffffff16146105f5576040517f08c379a000000000000000000000000000000000000000000000000000000000815260040180806020018281038252601e8152602001807f6f6e6c79206f7261636c652063616e207265706f7274206f7574636f6d65000081525060200191505060405180910390fd5b600073ffffffffffffffffffffffffffffffffffffffff16600460009054906101000a900473ffffffffffffffffffffffffffffffffffffffff1673ffffffffffffffffffffffffffffffffffffffff1614156106ba576040517f08c379a00000000000000000000000000000000000000000000000000000000081526004018080602001828103825260168152602001807f6e6f20696e766573746f7220726567697374657265640000000000000000000081525060200191505060405180910390fd5b6005544210610731576040517f08c379a00000000000000000000000000000000000000000000000000000000081526004018080602001828103825260088152602001807f746f6f206c61746500000000000000000000000000000000000000000000000081525060200191505060405180910390fd5b80600660006101000a81548160ff0219169083600281111561074f57fe5b02179055506001600281111561076157fe5b81600281111561076d57fe5b14156107e357600360009054906101000a900473ffffffffffffffffffffffffffffffffffffffff1673ffffffffffffffffffffffffffffffffffffffff166108fc6000549081150290604051600060405180830381858888f193505050501580156107dd573d6000803e3d6000fd5b506108de565b6002808111156107ef57fe5b8160028111156107fb57fe5b141561087157600460009054906101000a900473ffffffffffffffffffffffffffffffffffffffff1673ffffffffffffffffffffffffffffffffffffffff166108fc6000549081150290604051600060405180830381858888f1935050505015801561086b573d6000803e3d6000fd5b506108dd565b600460009054906101000a900473ffffffffffffffffffffffffffffffffffffffff1673ffffffffffffffffffffffffffffffffffffffff166108fc6000549081150290604051600060405180830381858888f193505050501580156108db573d6000803e3d6000fd5b505b5b5056fea265627a7a7231582069d8e3b9c0b83d9726a62fd9849ee29b77d258141ac0fc2edbac60cb86d2aee264736f6c63430005100032",
  "source": "/**\r\n* @dev\r\n* @author Jason Romero <jaxcoder@outlook.com>\r\n*/\r\npragma solidity ^0.5.0;\r\n\r\ncontract DisasterBond {\r\n    /**\r\n    * @dev Outcome of the event\r\n    * @param none\r\n    */\r\n    enum Outcome { NONE, DISASTER_HAPPEN, DISASTER_NOT_HAPPEN }\r\n\r\n    // state properties\r\n    uint public principal;\r\n    uint public coupon;\r\n    address public oracle;\r\n    address payable public sponsor;\r\n    address payable public investor;\r\n    uint public end;\r\n\r\n    Outcome outcome;\r\n\r\n    // Constructor (runs only once upon deployment)\r\n    constructor(address _oracle, uint _principal, uint _duration) public payable {\r\n        oracle = _oracle;\r\n        principal = _principal;\r\n        coupon = msg.value;\r\n        sponsor = msg.sender;\r\n        end = now + _duration;\r\n    }\r\n    \r\n    // called by application to invest in a coupon\r\n    function invest() external payable {\r\n        require(investor == address(0), 'investor already registered');\r\n        require(msg.value == principal, 'not enough money sent');\r\n        require(now < end, 'too late');\r\n        \r\n        //\r\n        investor = msg.sender;\r\n        investor.transfer(coupon);\r\n        \r\n    }\r\n    \r\n    \r\n    // Called by oracle to report the outcome\r\n    function reportOutcome(Outcome _outcome) external {\r\n        require(msg.sender == oracle, 'only oracle can report outcome');\r\n        require(investor != address(0), 'no investor registered');\r\n        require(now < end, 'too late');\r\n        \r\n        outcome = _outcome;\r\n        \r\n        // \r\n        if(_outcome == Outcome.DISASTER_HAPPEN) {\r\n            // transfer to sponser\r\n            sponsor.transfer(principal);\r\n            \r\n        } else if(_outcome == Outcome.DISASTER_NOT_HAPPEN) {\r\n            // give back to investor\r\n            investor.transfer(principal);\r\n            \r\n        } else {\r\n            // default to investor\r\n            investor.transfer(principal);\r\n        }\r\n        \r\n    }\r\n    \r\n    \r\n    \r\n    \r\n    \r\n    \r\n}",
  "sourcePath": "C:\\Projects\\InsureNET\\master-branch\\admin-tool\\src\\contracts\\DisasterBond.sol",
  "compiler": {
    "name": "solc",
    "version": "0.5.16+commit.9c3226ce.Emscripten.clang"
  },
  "schemaVersion": "3.0.23",
  "updatedAt": "2020-03-27T19:27:31.164Z",
  "devdoc": {
    "methods": {}
  },
  "userdoc": {
    "methods": {}
  }
}