{
  "contractName": "DisasterBond",
  "abi": [
    {
      "inputs": [
        {
          "internalType": "address",
          "name": "_oracle",
          "type": "address"
        },
        {
          "internalType": "uint256",
          "name": "_principal",
          "type": "uint256"
        },
        {
          "internalType": "uint256",
          "name": "_duration",
          "type": "uint256"
        }
      ],
      "payable": true,
      "stateMutability": "payable",
      "type": "constructor"
    },
    {
      "constant": true,
      "inputs": [],
      "name": "coupon",
      "outputs": [
        {
          "internalType": "uint256",
          "name": "",
          "type": "uint256"
        }
      ],
      "payable": false,
      "stateMutability": "view",
      "type": "function"
    },
    {
      "constant": true,
      "inputs": [],
      "name": "end",
      "outputs": [
        {
          "internalType": "uint256",
          "name": "",
          "type": "uint256"
        }
      ],
      "payable": false,
      "stateMutability": "view",
      "type": "function"
    },
    {
      "constant": true,
      "inputs": [],
      "name": "investor",
      "outputs": [
        {
          "internalType": "address payable",
          "name": "",
          "type": "address"
        }
      ],
      "payable": false,
      "stateMutability": "view",
      "type": "function"
    },
    {
      "constant": true,
      "inputs": [],
      "name": "oracle",
      "outputs": [
        {
          "internalType": "address",
          "name": "",
          "type": "address"
        }
      ],
      "payable": false,
      "stateMutability": "view",
      "type": "function"
    },
    {
      "constant": true,
      "inputs": [],
      "name": "principal",
      "outputs": [
        {
          "internalType": "uint256",
          "name": "",
          "type": "uint256"
        }
      ],
      "payable": false,
      "stateMutability": "view",
      "type": "function"
    },
    {
      "constant": true,
      "inputs": [],
      "name": "sponsor",
      "outputs": [
        {
          "internalType": "address payable",
          "name": "",
          "type": "address"
        }
      ],
      "payable": false,
      "stateMutability": "view",
      "type": "function"
    },
    {
      "constant": false,
      "inputs": [],
      "name": "invest",
      "outputs": [],
      "payable": true,
      "stateMutability": "payable",
      "type": "function"
    },
    {
      "constant": false,
      "inputs": [
        {
          "internalType": "enum DisasterBond.Outcome",
          "name": "_outcome",
          "type": "uint8"
        }
      ],
      "name": "reportOutcome",
      "outputs": [],
      "payable": false,
      "stateMutability": "nonpayable",
      "type": "function"
    }
  ],
  "bytecode": "0x6080604052604051610a0d380380610a0d8339818101604052606081101561002657600080fd5b8101908080519060200190929190805190602001909291908051906020019092919050505082600260006101000a81548173ffffffffffffffffffffffffffffffffffffffff021916908373ffffffffffffffffffffffffffffffffffffffff160217905550816000819055503460018190555033600360006101000a81548173ffffffffffffffffffffffffffffffffffffffff021916908373ffffffffffffffffffffffffffffffffffffffff160217905550804201600581905550505050610917806100f66000396000f3fe60806040526004361061007b5760003560e01c8063ba5d30781161004e578063ba5d3078146101b0578063e8b5e51f146101db578063efbe1c1c146101e5578063fb58eb52146102105761007b565b80631e0018d61461008057806355c01345146100d757806377c93662146101025780637dc0d1d014610159575b600080fd5b34801561008c57600080fd5b5061009561024e565b604051808273ffffffffffffffffffffffffffffffffffffffff1673ffffffffffffffffffffffffffffffffffffffff16815260200191505060405180910390f35b3480156100e357600080fd5b506100ec610274565b6040518082815260200191505060405180910390f35b34801561010e57600080fd5b5061011761027a565b604051808273ffffffffffffffffffffffffffffffffffffffff1673ffffffffffffffffffffffffffffffffffffffff16815260200191505060405180910390f35b34801561016557600080fd5b5061016e6102a0565b604051808273ffffffffffffffffffffffffffffffffffffffff1673ffffffffffffffffffffffffffffffffffffffff16815260200191505060405180910390f35b3480156101bc57600080fd5b506101c56102c6565b6040518082815260200191505060405180910390f35b6101e36102cc565b005b3480156101f157600080fd5b506101fa61052c565b6040518082815260200191505060405180910390f35b34801561021c57600080fd5b5061024c6004803603602081101561023357600080fd5b81019080803560ff169060200190929190505050610532565b005b600460009054906101000a900473ffffffffffffffffffffffffffffffffffffffff1681565b60015481565b600360009054906101000a900473ffffffffffffffffffffffffffffffffffffffff1681565b600260009054906101000a900473ffffffffffffffffffffffffffffffffffffffff1681565b60005481565b600073ffffffffffffffffffffffffffffffffffffffff16600460009054906101000a900473ffffffffffffffffffffffffffffffffffffffff1673ffffffffffffffffffffffffffffffffffffffff1614610390576040517f08c379a000000000000000000000000000000000000000000000000000000000815260040180806020018281038252601b8152602001807f696e766573746f7220616c72656164792072656769737465726564000000000081525060200191505060405180910390fd5b6000543414610407576040517f08c379a00000000000000000000000000000000000000000000000000000000081526004018080602001828103825260158152602001807f6e6f7420656e6f756768206d6f6e65792073656e74000000000000000000000081525060200191505060405180910390fd5b600554421061047e576040517f08c379a00000000000000000000000000000000000000000000000000000000081526004018080602001828103825260088152602001807f746f6f206c61746500000000000000000000000000000000000000000000000081525060200191505060405180910390fd5b33600460006101000a81548173ffffffffffffffffffffffffffffffffffffffff021916908373ffffffffffffffffffffffffffffffffffffffff160217905550600460009054906101000a900473ffffffffffffffffffffffffffffffffffffffff1673ffffffffffffffffffffffffffffffffffffffff166108fc6001549081150290604051600060405180830381858888f19350505050158015610529573d6000803e3d6000fd5b50565b60055481565b600260009054906101000a900473ffffffffffffffffffffffffffffffffffffffff1673ffffffffffffffffffffffffffffffffffffffff163373ffffffffffffffffffffffffffffffffffffffff16146105f5576040517f08c379a000000000000000000000000000000000000000000000000000000000815260040180806020018281038252601e8152602001807f6f6e6c79206f7261636c652063616e207265706f7274206f7574636f6d65000081525060200191505060405180910390fd5b600073ffffffffffffffffffffffffffffffffffffffff16600460009054906101000a900473ffffffffffffffffffffffffffffffffffffffff1673ffffffffffffffffffffffffffffffffffffffff1614156106ba576040517f08c379a00000000000000000000000000000000000000000000000000000000081526004018080602001828103825260168152602001807f6e6f20696e766573746f7220726567697374657265640000000000000000000081525060200191505060405180910390fd5b6005544210610731576040517f08c379a00000000000000000000000000000000000000000000000000000000081526004018080602001828103825260088152602001807f746f6f206c61746500000000000000000000000000000000000000000000000081525060200191505060405180910390fd5b80600660006101000a81548160ff0219169083600481111561074f57fe5b02179055506001600481111561076157fe5b81600481111561076d57fe5b14156107e357600360009054906101000a900473ffffffffffffffffffffffffffffffffffffffff1673ffffffffffffffffffffffffffffffffffffffff166108fc6000549081150290604051600060405180830381858888f193505050501580156107dd573d6000803e3d6000fd5b506108df565b600260048111156107f057fe5b8160048111156107fc57fe5b141561087257600460009054906101000a900473ffffffffffffffffffffffffffffffffffffffff1673ffffffffffffffffffffffffffffffffffffffff166108fc6000549081150290604051600060405180830381858888f1935050505015801561086c573d6000803e3d6000fd5b506108de565b600460009054906101000a900473ffffffffffffffffffffffffffffffffffffffff1673ffffffffffffffffffffffffffffffffffffffff166108fc6000549081150290604051600060405180830381858888f193505050501580156108dc573d6000803e3d6000fd5b505b5b5056fea265627a7a72315820644374fd574ca7d2aa31e545d09fda48aa8c820108977f6181df42530359f34764736f6c63430005100032",
  "source": "/**\n * @title Generic Disaster Bond Contract\n * @dev InsureNET Decentralized Insurance Platform Distaster Bond Contract.\n * @author Jason Romero\n * @copyright 2020 InsureNET\n */\n\npragma solidity ^0.5.16;\n\n\ncontract DisasterBond {\n    /**\n    * @dev Outcome of the event\n    * @param none\n    */\n    enum Outcome { NONE, DISASTER_HAPPEN, DISASTER_NOT_HAPPEN, VOID, OTHER }\n\n    // state properties\n    uint public principal;\n    uint public coupon;\n    address public oracle;\n    address payable public sponsor;\n    address payable public investor;\n    uint public end;\n\n    Outcome outcome;\n\n    // Constructor (runs only once upon deployment)\n    constructor(address _oracle, uint _principal, uint _duration) public payable {\n        oracle = _oracle;\n        principal = _principal;\n        coupon = msg.value;\n        sponsor = msg.sender;\n        end = now + _duration;\n    }\n\n    // called by application to invest in a coupon\n    function invest() external payable {\n        require(investor == address(0), 'investor already registered');\n        require(msg.value == principal, 'not enough money sent');\n        require(now < end, 'too late');\n\n        //\n        investor = msg.sender;\n        investor.transfer(coupon);\n    }\n\n\n    // Called by oracle to report the outcome\n    function reportOutcome(Outcome _outcome) external {\n        require(msg.sender == oracle, 'only oracle can report outcome');\n        require(investor != address(0), 'no investor registered');\n        require(now < end, 'too late');\n\n        outcome = _outcome;\n\n        //\n        if(_outcome == Outcome.DISASTER_HAPPEN) {\n            // transfer to sponser\n            sponsor.transfer(principal);\n            \n        } else if(_outcome == Outcome.DISASTER_NOT_HAPPEN) {\n            // give back to investor\n            investor.transfer(principal);\n\n        } else {\n            // default to investor\n            investor.transfer(principal);\n        }\n\n    }\n\n\n\n\n\n\n}",
  "sourcePath": "/Users/jaxcoder/Documents/Blockchain/InsureNET/applications/admin-tool/src/contracts/DisasterBond.sol",
  "compiler": {
    "name": "solc",
    "version": "0.5.16+commit.9c3226ce.Emscripten.clang"
  },
  "schemaVersion": "3.0.23",
  "updatedAt": "2020-04-01T00:42:21.015Z",
  "networkType": "ethereum",
  "devdoc": {
    "methods": {}
  },
  "userdoc": {
    "methods": {}
  }
}