{
  "contractName": "HurricaneCreatePolicy",
  "abi": [
    {
      "inputs": [],
      "payable": false,
      "stateMutability": "nonpayable",
      "type": "constructor"
    },
    {
      "anonymous": false,
      "inputs": [
        {
          "indexed": false,
          "internalType": "uint256",
          "name": "_policyId",
          "type": "uint256"
        },
        {
          "indexed": false,
          "internalType": "address",
          "name": "_address",
          "type": "address"
        },
        {
          "indexed": false,
          "internalType": "bytes32",
          "name": "_externalId",
          "type": "bytes32"
        }
      ],
      "name": "LogExternal",
      "type": "event"
    },
    {
      "anonymous": false,
      "inputs": [
        {
          "indexed": false,
          "internalType": "uint256",
          "name": "_policyId",
          "type": "uint256"
        },
        {
          "indexed": false,
          "internalType": "bytes32",
          "name": "hexQueryId",
          "type": "bytes32"
        },
        {
          "indexed": false,
          "internalType": "string",
          "name": "_oraclizeUrl",
          "type": "string"
        }
      ],
      "name": "LogOraclizeCall",
      "type": "event"
    },
    {
      "anonymous": false,
      "inputs": [
        {
          "indexed": false,
          "internalType": "uint256",
          "name": "_policyId",
          "type": "uint256"
        },
        {
          "indexed": false,
          "internalType": "bytes32",
          "name": "hexQueryId",
          "type": "bytes32"
        },
        {
          "indexed": false,
          "internalType": "string",
          "name": "_result",
          "type": "string"
        },
        {
          "indexed": false,
          "internalType": "bytes",
          "name": "hexProof",
          "type": "bytes"
        }
      ],
      "name": "LogOraclizeCallback",
      "type": "event"
    },
    {
      "anonymous": false,
      "inputs": [
        {
          "indexed": false,
          "internalType": "uint256",
          "name": "_policyId",
          "type": "uint256"
        },
        {
          "indexed": false,
          "internalType": "uint256",
          "name": "_statistics0",
          "type": "uint256"
        },
        {
          "indexed": false,
          "internalType": "uint256",
          "name": "_statistics1",
          "type": "uint256"
        },
        {
          "indexed": false,
          "internalType": "uint256",
          "name": "_statistics2",
          "type": "uint256"
        },
        {
          "indexed": false,
          "internalType": "uint256",
          "name": "_statistics3",
          "type": "uint256"
        },
        {
          "indexed": false,
          "internalType": "uint256",
          "name": "_statistics4",
          "type": "uint256"
        },
        {
          "indexed": false,
          "internalType": "uint256",
          "name": "_statistics5",
          "type": "uint256"
        }
      ],
      "name": "LogPolicyAccepted",
      "type": "event"
    },
    {
      "anonymous": false,
      "inputs": [
        {
          "indexed": false,
          "internalType": "uint256",
          "name": "_policyId",
          "type": "uint256"
        },
        {
          "indexed": false,
          "internalType": "address",
          "name": "_customer",
          "type": "address"
        },
        {
          "indexed": false,
          "internalType": "bytes32",
          "name": "_market",
          "type": "bytes32"
        },
        {
          "indexed": false,
          "internalType": "uint256",
          "name": "ethPremium",
          "type": "uint256"
        }
      ],
      "name": "LogPolicyApplied",
      "type": "event"
    },
    {
      "anonymous": false,
      "inputs": [
        {
          "indexed": false,
          "internalType": "uint256",
          "name": "_policyId",
          "type": "uint256"
        },
        {
          "indexed": false,
          "internalType": "bytes32",
          "name": "strReason",
          "type": "bytes32"
        }
      ],
      "name": "LogPolicyDeclined",
      "type": "event"
    },
    {
      "anonymous": false,
      "inputs": [
        {
          "indexed": false,
          "internalType": "uint256",
          "name": "_policyId",
          "type": "uint256"
        }
      ],
      "name": "LogPolicyExpired",
      "type": "event"
    },
    {
      "anonymous": false,
      "inputs": [
        {
          "indexed": false,
          "internalType": "uint256",
          "name": "_policyId",
          "type": "uint256"
        },
        {
          "indexed": false,
          "internalType": "bytes32",
          "name": "strReason",
          "type": "bytes32"
        }
      ],
      "name": "LogPolicyManualPayout",
      "type": "event"
    },
    {
      "anonymous": false,
      "inputs": [
        {
          "indexed": false,
          "internalType": "uint256",
          "name": "_policyId",
          "type": "uint256"
        },
        {
          "indexed": false,
          "internalType": "uint256",
          "name": "ethAmount",
          "type": "uint256"
        }
      ],
      "name": "LogPolicyPaidOut",
      "type": "event"
    },
    {
      "anonymous": false,
      "inputs": [
        {
          "indexed": false,
          "internalType": "address",
          "name": "_sender",
          "type": "address"
        },
        {
          "indexed": false,
          "internalType": "uint8",
          "name": "_to",
          "type": "uint8"
        },
        {
          "indexed": false,
          "internalType": "uint256",
          "name": "ethAmount",
          "type": "uint256"
        }
      ],
      "name": "LogReceiveFunds",
      "type": "event"
    },
    {
      "anonymous": false,
      "inputs": [
        {
          "indexed": false,
          "internalType": "uint256",
          "name": "_policyId",
          "type": "uint256"
        },
        {
          "indexed": false,
          "internalType": "bytes32",
          "name": "strReason",
          "type": "bytes32"
        }
      ],
      "name": "LogSendFail",
      "type": "event"
    },
    {
      "anonymous": false,
      "inputs": [
        {
          "indexed": false,
          "internalType": "address",
          "name": "_recipient",
          "type": "address"
        },
        {
          "indexed": false,
          "internalType": "uint8",
          "name": "_from",
          "type": "uint8"
        },
        {
          "indexed": false,
          "internalType": "uint256",
          "name": "ethAmount",
          "type": "uint256"
        }
      ],
      "name": "LogSendFunds",
      "type": "event"
    },
    {
      "anonymous": false,
      "inputs": [
        {
          "indexed": false,
          "internalType": "uint256",
          "name": "_policyId",
          "type": "uint256"
        },
        {
          "indexed": false,
          "internalType": "uint8",
          "name": "_policyState",
          "type": "uint8"
        },
        {
          "indexed": false,
          "internalType": "uint256",
          "name": "_stateTime",
          "type": "uint256"
        },
        {
          "indexed": false,
          "internalType": "bytes32",
          "name": "_stateMessage",
          "type": "bytes32"
        }
      ],
      "name": "LogSetState",
      "type": "event"
    },
    {
      "anonymous": false,
      "inputs": [
        {
          "indexed": false,
          "internalType": "uint256",
          "name": "id",
          "type": "uint256"
        }
      ],
      "name": "PolicyCreated",
      "type": "event"
    },
    {
      "constant": true,
      "inputs": [],
      "name": "maxPremium",
      "outputs": [
        {
          "internalType": "uint256",
          "name": "",
          "type": "uint256"
        }
      ],
      "payable": false,
      "stateMutability": "view",
      "type": "function"
    },
    {
      "constant": true,
      "inputs": [],
      "name": "minPremium",
      "outputs": [
        {
          "internalType": "uint256",
          "name": "",
          "type": "uint256"
        }
      ],
      "payable": false,
      "stateMutability": "view",
      "type": "function"
    },
    {
      "constant": true,
      "inputs": [
        {
          "internalType": "address",
          "name": "",
          "type": "address"
        }
      ],
      "name": "policyHolders",
      "outputs": [
        {
          "internalType": "uint256",
          "name": "",
          "type": "uint256"
        }
      ],
      "payable": false,
      "stateMutability": "view",
      "type": "function"
    },
    {
      "constant": false,
      "inputs": [
        {
          "internalType": "address",
          "name": "_insured",
          "type": "address"
        },
        {
          "internalType": "uint256",
          "name": "_value",
          "type": "uint256"
        }
      ],
      "name": "createPolicy",
      "outputs": [
        {
          "internalType": "bool",
          "name": "",
          "type": "bool"
        }
      ],
      "payable": true,
      "stateMutability": "payable",
      "type": "function"
    }
  ],
  "bytecode": "0x608060405260196000556101f460015534801561001b57600080fd5b506101ca8061002b6000396000f3fe60806040526004361061003f5760003560e01c806351b79d551461004457806370b68a2a1461006f5780639abb9a28146100d4578063eedb9ed51461013a575b600080fd5b34801561005057600080fd5b50610059610165565b6040518082815260200191505060405180910390f35b34801561007b57600080fd5b506100be6004803603602081101561009257600080fd5b81019080803573ffffffffffffffffffffffffffffffffffffffff16906020019092919050505061016b565b6040518082815260200191505060405180910390f35b610120600480360360408110156100ea57600080fd5b81019080803573ffffffffffffffffffffffffffffffffffffffff16906020019092919080359060200190929190505050610183565b604051808215151515815260200191505060405180910390f35b34801561014657600080fd5b5061014f61018f565b6040518082815260200191505060405180910390f35b60015481565b60026020528060005260406000206000915090505481565b60006001905092915050565b6000548156fea265627a7a723158202d8b05c7f3d77cbb2543f342b76181709bb39136f7f03105ea0a060c1c87007b64736f6c63430005100032",
  "source": "/**\n * @title Generic Prametric Hurricane Contract\n * @dev InsureNET Decentralized Insurance Platform\n *      Parametruc Hurricane Contract.\n * @author Jason Romero\n * @copyright 2020 InsureNET\n */\n\nimport \"@openzeppelin/contracts/math/SafeMath.sol\";\nimport \"./HurricaneConstants.sol\";\n\n pragma solidity ^0.5.16;\n\ncontract HurricaneCreatePolicy is HurricaneConstants {\n    /**\n    * @dev state variables\n    */\n    uint256 public minPremium = 25;\n    uint256 public maxPremium = 500;\n\n    mapping(address => uint256) public policyHolders;\n\n\n    /**\n    * @dev Category of the hurricane\n    */\n    enum Category { THREE, FOUR, FIVE }\n\n    /** State Properties */\n\n\n    /** @dev Events */\n    event PolicyCreated (\n        uint256 id\n    );\n\n    /** @dev Policy Stuct */\n    struct Policy {\n        uint256 id;\n    }\n\n    // Describe the Binder\n    struct Binder {\n        uint id;\n        string name;\n        uint price;\n        address payable owner;\n        bool available;\n    }\n\n    // Describe the Product\n    struct Product {\n        uint id;\n        string name;\n        uint price;\n        address payable owner;\n        bool purchased;\n        bool available;\n    }\n\n    // Describe the Agent\n    struct Agent {\n        uint id;\n        string name;\n        string title;\n        uint commission;\n        address payable owner;\n        bool commissionPaid;\n    }\n\n    /**\n    * @dev Constructor function\n    */\n    constructor() public {\n\n    }\n\n    /** @dev Functions */\n\n    /**\n    * @dev create a hurricane policy\n    * @param _insured address of the policy owner\n    * @param _value the premiu amount to pay\n    */\n    function createPolicy (\n        address _insured,\n        uint256 _value\n    ) public payable returns (bool) {\n        // ToDo: Checks\n\n\n\n        return true;\n    }\n\n\n\n}",
  "sourcePath": "/home/jaxcoder/Projects/InetMaster/applications/admin-tool/src/contracts/hurricane/HurricaneCreatePolicy.sol",
  "compiler": {
    "name": "solc",
    "version": "0.5.16+commit.9c3226ce.Emscripten.clang"
  },
  "schemaVersion": "3.0.23",
  "updatedAt": "2020-04-18T18:34:24.960Z",
  "devdoc": {
    "methods": {
      "constructor": {
        "details": "Constructor function"
      },
      "createPolicy(address,uint256)": {
        "details": "create a hurricane policy",
        "params": {
          "_insured": "address of the policy owner",
          "_value": "the premiu amount to pay"
        }
      }
    }
  },
  "userdoc": {
    "methods": {}
  }
}