{
  "contractName": "HurricaneCreatePolicy",
  "abi": [
    {
      "anonymous": false,
      "inputs": [
        {
          "indexed": false,
          "internalType": "uint256",
          "name": "id",
          "type": "uint256"
        }
      ],
      "name": "PolicyCreated",
      "type": "event"
    },
    {
      "constant": false,
      "inputs": [
        {
          "internalType": "address",
          "name": "_insured",
          "type": "address"
        },
        {
          "internalType": "uint256",
          "name": "_value",
          "type": "uint256"
        }
      ],
      "name": "createPolicy",
      "outputs": [
        {
          "internalType": "bool",
          "name": "",
          "type": "bool"
        }
      ],
      "payable": false,
      "stateMutability": "nonpayable",
      "type": "function"
    }
  ],
  "bytecode": "0x608060405234801561001057600080fd5b5060d18061001f6000396000f3fe6080604052348015600f57600080fd5b506004361060285760003560e01c80639abb9a2814602d575b600080fd5b607660048036036040811015604157600080fd5b81019080803573ffffffffffffffffffffffffffffffffffffffff169060200190929190803590602001909291905050506090565b604051808215151515815260200191505060405180910390f35b6000600190509291505056fea265627a7a7231582098f219fba1273ca573278bee88b87fe8391605f0105db59c73bc74b30c829dd564736f6c63430005100032",
  "source": "/**\r\n * @title Generic Prametric Hurricane Contract\r\n * @dev InsureNET Decentralized Insurance Platform\r\n *      Parametruc Hurricane Contract.\r\n * @author Jason Romero\r\n * @copyright 2020 InsureNET\r\n */\r\n \r\n pragma solidity ^0.5.16;\r\n\r\ncontract HurricaneCreatePolicy {\r\n\r\n    /**\r\n    * @dev Category of the hurricane\r\n    */\r\n    enum Category { THREE, FOUR, FIVE }\r\n\r\n    /** State Properties */\r\n\r\n\r\n    /** @dev Events */\r\n    event PolicyCreated (\r\n        uint256 id\r\n    );\r\n\r\n    /** @dev Policy Stuct */\r\n    struct Policy {\r\n        uint256 id;\r\n    }\r\n\r\n\r\n    /** @dev Functions */\r\n\r\n    function createPolicy (\r\n        address _insured,\r\n        uint256 _value\r\n    ) public returns (bool) {\r\n        // ToDo: Checks\r\n\r\n\r\n\r\n        return true;\r\n    }\r\n\r\n\r\n\r\n}",
  "sourcePath": "C:\\Projects\\InsureNET\\master-branch\\admin-tool\\src\\contracts\\hurricane\\HurricaneCreatePolicy.sol",
  "compiler": {
    "name": "solc",
    "version": "0.5.16+commit.9c3226ce.Emscripten.clang"
  },
  "schemaVersion": "3.0.23",
  "updatedAt": "2020-03-31T19:50:37.611Z",
  "devdoc": {
    "methods": {
      "createPolicy(address,uint256)": {
        "details": "Functions "
      }
    }
  },
  "userdoc": {
    "methods": {}
  }
}