{
  "contractName": "HurricaneCreatePolicy",
  "abi": [
    {
      "anonymous": false,
      "inputs": [
        {
          "indexed": false,
          "internalType": "uint256",
          "name": "id",
          "type": "uint256"
        }
      ],
      "name": "PolicyCreated",
      "type": "event"
    },
    {
      "constant": false,
      "inputs": [
        {
          "internalType": "address",
          "name": "_insured",
          "type": "address"
        },
        {
          "internalType": "uint256",
          "name": "_value",
          "type": "uint256"
        }
      ],
      "name": "createPolicy",
      "outputs": [
        {
          "internalType": "bool",
          "name": "",
          "type": "bool"
        }
      ],
      "payable": false,
      "stateMutability": "nonpayable",
      "type": "function"
    }
  ],
  "bytecode": "0x608060405234801561001057600080fd5b5060d18061001f6000396000f3fe6080604052348015600f57600080fd5b506004361060285760003560e01c80639abb9a2814602d575b600080fd5b607660048036036040811015604157600080fd5b81019080803573ffffffffffffffffffffffffffffffffffffffff169060200190929190803590602001909291905050506090565b604051808215151515815260200191505060405180910390f35b6000600190509291505056fea265627a7a72315820759439511163e3f8f44adb79ac1fc5e528dd36d9a6117abbec7470dda967679864736f6c63430005100032",
  "source": "/**\n * @title Generic Prametric Hurricane Contract\n * @dev InsureNET Decentralized Insurance Platform\n *      Parametruc Hurricane Contract.\n * @author Jason Romero\n * @copyright 2020 InsureNET\n */\n \n pragma solidity ^0.5.16;\n\ncontract HurricaneCreatePolicy {\n\n    /**\n    * @dev Category of the hurricane\n    */\n    enum Category { THREE, FOUR, FIVE }\n\n    /** State Properties */\n\n\n    /** @dev Events */\n    event PolicyCreated (\n        uint256 id\n    );\n\n    /** @dev Policy Stuct */\n    struct Policy {\n        uint256 id;\n    }\n\n    // Describe the Binder\n    struct Binder {\n        uint id;\n        string name;\n        uint price;\n        address payable owner;\n        bool available;\n    }\n\n    // Describe the Product\n    struct Product {\n        uint id;\n        string name;\n        uint price;\n        address payable owner;\n        bool purchased;\n        bool available;\n    }\n\n    // Describe the Agent\n    struct Agent {\n        uint id;\n        string name;\n        string title;\n        uint commission;\n        address payable owner;\n        bool commissionPaid;\n    }\n\n\n\n    /** @dev Functions */\n\n    function createPolicy (\n        address _insured,\n        uint256 _value\n    ) public returns (bool) {\n        // ToDo: Checks\n\n\n\n        return true;\n    }\n\n\n\n}",
  "sourcePath": "/Users/jaxcoder/Documents/Blockchain/InsureNET/applications/admin-tool/src/contracts/hurricane/HurricaneCreatePolicy.sol",
  "compiler": {
    "name": "solc",
    "version": "0.5.16+commit.9c3226ce.Emscripten.clang"
  },
  "schemaVersion": "3.0.23",
  "updatedAt": "2020-04-01T00:42:21.050Z",
  "networkType": "ethereum",
  "devdoc": {
    "methods": {
      "createPolicy(address,uint256)": {
        "details": "Functions "
      }
    }
  },
  "userdoc": {
    "methods": {}
  }
}