{
  "contractName": "ICOToken",
  "abi": [
    {
      "inputs": [
        {
          "internalType": "uint256",
          "name": "_ICOEndTime",
          "type": "uint256"
        }
      ],
      "payable": false,
      "stateMutability": "nonpayable",
      "type": "constructor"
    },
    {
      "anonymous": false,
      "inputs": [
        {
          "indexed": true,
          "internalType": "address",
          "name": "_owner",
          "type": "address"
        },
        {
          "indexed": true,
          "internalType": "address",
          "name": "_spender",
          "type": "address"
        },
        {
          "indexed": false,
          "internalType": "uint256",
          "name": "_value",
          "type": "uint256"
        }
      ],
      "name": "Approval",
      "type": "event"
    },
    {
      "anonymous": false,
      "inputs": [
        {
          "indexed": true,
          "internalType": "address",
          "name": "_from",
          "type": "address"
        },
        {
          "indexed": true,
          "internalType": "address",
          "name": "_to",
          "type": "address"
        },
        {
          "indexed": false,
          "internalType": "uint256",
          "name": "_value",
          "type": "uint256"
        }
      ],
      "name": "Transfer",
      "type": "event"
    },
    {
      "constant": true,
      "inputs": [],
      "name": "ICOEndTime",
      "outputs": [
        {
          "internalType": "uint256",
          "name": "",
          "type": "uint256"
        }
      ],
      "payable": false,
      "stateMutability": "view",
      "type": "function"
    },
    {
      "constant": true,
      "inputs": [],
      "name": "_totalSupply",
      "outputs": [
        {
          "internalType": "uint256",
          "name": "",
          "type": "uint256"
        }
      ],
      "payable": false,
      "stateMutability": "view",
      "type": "function"
    },
    {
      "constant": true,
      "inputs": [
        {
          "internalType": "address",
          "name": "",
          "type": "address"
        },
        {
          "internalType": "address",
          "name": "",
          "type": "address"
        }
      ],
      "name": "allowance",
      "outputs": [
        {
          "internalType": "uint256",
          "name": "",
          "type": "uint256"
        }
      ],
      "payable": false,
      "stateMutability": "view",
      "type": "function"
    },
    {
      "constant": true,
      "inputs": [
        {
          "internalType": "address",
          "name": "",
          "type": "address"
        }
      ],
      "name": "balanceOf",
      "outputs": [
        {
          "internalType": "uint256",
          "name": "",
          "type": "uint256"
        }
      ],
      "payable": false,
      "stateMutability": "view",
      "type": "function"
    },
    {
      "constant": true,
      "inputs": [],
      "name": "bountyDist",
      "outputs": [
        {
          "internalType": "uint256",
          "name": "",
          "type": "uint256"
        }
      ],
      "payable": false,
      "stateMutability": "view",
      "type": "function"
    },
    {
      "constant": true,
      "inputs": [],
      "name": "crowdsaleAddress",
      "outputs": [
        {
          "internalType": "address",
          "name": "",
          "type": "address"
        }
      ],
      "payable": false,
      "stateMutability": "view",
      "type": "function"
    },
    {
      "constant": true,
      "inputs": [],
      "name": "decimals",
      "outputs": [
        {
          "internalType": "uint256",
          "name": "",
          "type": "uint256"
        }
      ],
      "payable": false,
      "stateMutability": "view",
      "type": "function"
    },
    {
      "constant": true,
      "inputs": [],
      "name": "foundersAddress",
      "outputs": [
        {
          "internalType": "string",
          "name": "",
          "type": "string"
        }
      ],
      "payable": false,
      "stateMutability": "view",
      "type": "function"
    },
    {
      "constant": true,
      "inputs": [],
      "name": "foundersDistribution",
      "outputs": [
        {
          "internalType": "uint256",
          "name": "",
          "type": "uint256"
        }
      ],
      "payable": false,
      "stateMutability": "view",
      "type": "function"
    },
    {
      "constant": true,
      "inputs": [],
      "name": "marketingDist",
      "outputs": [
        {
          "internalType": "uint256",
          "name": "",
          "type": "uint256"
        }
      ],
      "payable": false,
      "stateMutability": "view",
      "type": "function"
    },
    {
      "constant": true,
      "inputs": [],
      "name": "name",
      "outputs": [
        {
          "internalType": "string",
          "name": "",
          "type": "string"
        }
      ],
      "payable": false,
      "stateMutability": "view",
      "type": "function"
    },
    {
      "constant": true,
      "inputs": [],
      "name": "owner",
      "outputs": [
        {
          "internalType": "address payable",
          "name": "",
          "type": "address"
        }
      ],
      "payable": false,
      "stateMutability": "view",
      "type": "function"
    },
    {
      "constant": true,
      "inputs": [],
      "name": "partner1",
      "outputs": [
        {
          "internalType": "string",
          "name": "",
          "type": "string"
        }
      ],
      "payable": false,
      "stateMutability": "view",
      "type": "function"
    },
    {
      "constant": true,
      "inputs": [],
      "name": "partner1Dist",
      "outputs": [
        {
          "internalType": "uint256",
          "name": "",
          "type": "uint256"
        }
      ],
      "payable": false,
      "stateMutability": "view",
      "type": "function"
    },
    {
      "constant": true,
      "inputs": [],
      "name": "partner2",
      "outputs": [
        {
          "internalType": "string",
          "name": "",
          "type": "string"
        }
      ],
      "payable": false,
      "stateMutability": "view",
      "type": "function"
    },
    {
      "constant": true,
      "inputs": [],
      "name": "partner2Dist",
      "outputs": [
        {
          "internalType": "uint256",
          "name": "",
          "type": "uint256"
        }
      ],
      "payable": false,
      "stateMutability": "view",
      "type": "function"
    },
    {
      "constant": true,
      "inputs": [],
      "name": "publicSaleDist",
      "outputs": [
        {
          "internalType": "uint256",
          "name": "",
          "type": "uint256"
        }
      ],
      "payable": false,
      "stateMutability": "view",
      "type": "function"
    },
    {
      "constant": true,
      "inputs": [],
      "name": "symbol",
      "outputs": [
        {
          "internalType": "string",
          "name": "",
          "type": "string"
        }
      ],
      "payable": false,
      "stateMutability": "view",
      "type": "function"
    },
    {
      "constant": true,
      "inputs": [],
      "name": "totalSupply",
      "outputs": [
        {
          "internalType": "uint256",
          "name": "",
          "type": "uint256"
        }
      ],
      "payable": false,
      "stateMutability": "view",
      "type": "function"
    },
    {
      "constant": false,
      "inputs": [
        {
          "internalType": "address",
          "name": "_crowdsaleAddress",
          "type": "address"
        }
      ],
      "name": "setCrowdsale",
      "outputs": [],
      "payable": false,
      "stateMutability": "nonpayable",
      "type": "function"
    },
    {
      "constant": false,
      "inputs": [
        {
          "internalType": "address",
          "name": "_receiver",
          "type": "address"
        },
        {
          "internalType": "uint256",
          "name": "_amount",
          "type": "uint256"
        }
      ],
      "name": "buyTokens",
      "outputs": [],
      "payable": false,
      "stateMutability": "nonpayable",
      "type": "function"
    },
    {
      "constant": false,
      "inputs": [
        {
          "internalType": "address",
          "name": "_to",
          "type": "address"
        },
        {
          "internalType": "uint256",
          "name": "_value",
          "type": "uint256"
        }
      ],
      "name": "transfer",
      "outputs": [
        {
          "internalType": "bool",
          "name": "",
          "type": "bool"
        }
      ],
      "payable": false,
      "stateMutability": "nonpayable",
      "type": "function"
    },
    {
      "constant": false,
      "inputs": [
        {
          "internalType": "address",
          "name": "_from",
          "type": "address"
        },
        {
          "internalType": "address",
          "name": "_to",
          "type": "address"
        },
        {
          "internalType": "uint256",
          "name": "_value",
          "type": "uint256"
        }
      ],
      "name": "transferFrom",
      "outputs": [
        {
          "internalType": "bool",
          "name": "",
          "type": "bool"
        }
      ],
      "payable": false,
      "stateMutability": "nonpayable",
      "type": "function"
    },
    {
      "constant": false,
      "inputs": [
        {
          "internalType": "address",
          "name": "_spender",
          "type": "address"
        },
        {
          "internalType": "uint256",
          "name": "_value",
          "type": "uint256"
        }
      ],
      "name": "approve",
      "outputs": [
        {
          "internalType": "bool",
          "name": "",
          "type": "bool"
        }
      ],
      "payable": false,
      "stateMutability": "nonpayable",
      "type": "function"
    },
    {
      "constant": false,
      "inputs": [],
      "name": "emergencyExtract",
      "outputs": [],
      "payable": false,
      "stateMutability": "nonpayable",
      "type": "function"
    }
  ],
  "bytecode": "0x60806040526040518060400160405280600a81526020017f694e455420546f6b656e000000000000000000000000000000000000000000008152506000908051906020019062000051929190620003f0565b506040518060400160405280600481526020017f694e455400000000000000000000000000000000000000000000000000000000815250600190805190602001906200009f929190620003f0565b506b033b2e3c9fd0803ce80000006002556012600360006101000a81548160ff021916908360ff160217905550736f7d7d68c3eed4df81cf5f97582deef8abc51533600360016101000a81548173ffffffffffffffffffffffffffffffffffffffff021916908373ffffffffffffffffffffffffffffffffffffffff1602179055506040518060600160405280602a815260200162001b03602a91396004908051906020019062000152929190620003f0565b506a52b7d2dcc80cd2e4000000600555604051806020016040528060008152506006908051906020019062000189929190620003f0565b506040518060200160405280600081525060079080519060200190620001b1929190620003f0565b506a0c685fa11e01ec6f0000006008556a0c685fa11e01ec6f0000006009556a108b2a2c28029094000000600a556a52b7d2dcc80cd2e4000000600b556b026c62ad77dc602dae000000600c556040518060400160405280600881526020017f49434f546f6b656e000000000000000000000000000000000000000000000000815250600f90805190602001906200024b929190620003f0565b506040518060400160405280600381526020017f49544b00000000000000000000000000000000000000000000000000000000008152506010908051906020019062000299929190620003f0565b506012601155348015620002ac57600080fd5b5060405162001b2d38038062001b2d83398181016040526020811015620002d257600080fd5b8101908080519060200190929190505050620002f3620003e660201b60201c565b600d60003373ffffffffffffffffffffffffffffffffffffffff1673ffffffffffffffffffffffffffffffffffffffff1681526020019081526020016000208190555033600360016101000a81548173ffffffffffffffffffffffffffffffffffffffff021916908373ffffffffffffffffffffffffffffffffffffffff160217905550600081116200038557600080fd5b6a52b7d2dcc80cd2e400000060028190555033601360006101000a81548173ffffffffffffffffffffffffffffffffffffffff021916908373ffffffffffffffffffffffffffffffffffffffff16021790555080601481905550506200049f565b6000600254905090565b828054600181600116156101000203166002900490600052602060002090601f016020900481019282601f106200043357805160ff191683800117855562000464565b8280016001018555821562000464579182015b828111156200046357825182559160200191906001019062000446565b5b50905062000473919062000477565b5090565b6200049c91905b80821115620004985760008160009055506001016200047e565b5090565b90565b61165480620004af6000396000f3fe608060405234801561001057600080fd5b50600436106101735760003560e01c806382c137fb116100de578063a9059cbb11610097578063dd62ed3e11610071578063dd62ed3e1461074e578063e121a7a9146107c6578063ebfdc657146107e4578063f584f63b1461086757610173565b8063a9059cbb146106ac578063ae4b9dd914610712578063ccb0b0db1461073057610173565b806382c137fb1461049d5780638b35a244146104bb5780638da5cb5b1461053e57806395d89b4114610588578063a242f0491461060b578063a4c7c7b31461062957610173565b806331d2f8911161013057806331d2f891146103715780633eaaf86b146103bb578063424f8400146103d9578063483a20b2146103f75780635fa512771461043b57806370a082311461044557610173565b806306fdde03146101785780630752881a146101fb578063095ea7b31461024957806318160ddd146102af57806323b872dd146102cd578063313ce56714610353575b600080fd5b610180610885565b6040518080602001828103825283818151815260200191508051906020019080838360005b838110156101c05780820151818401526020810190506101a5565b50505050905090810190601f1680156101ed5780820380516001836020036101000a031916815260200191505b509250505060405180910390f35b6102476004803603604081101561021157600080fd5b81019080803573ffffffffffffffffffffffffffffffffffffffff16906020019092919080359060200190929190505050610923565b005b6102956004803603604081101561025f57600080fd5b81019080803573ffffffffffffffffffffffffffffffffffffffff169060200190929190803590602001909291905050506109d3565b604051808215151515815260200191505060405180910390f35b6102b7610a4d565b6040518082815260200191505060405180910390f35b610339600480360360608110156102e357600080fd5b81019080803573ffffffffffffffffffffffffffffffffffffffff169060200190929190803573ffffffffffffffffffffffffffffffffffffffff16906020019092919080359060200190929190505050610a57565b604051808215151515815260200191505060405180910390f35b61035b610ad3565b6040518082815260200191505060405180910390f35b610379610ad9565b604051808273ffffffffffffffffffffffffffffffffffffffff1673ffffffffffffffffffffffffffffffffffffffff16815260200191505060405180910390f35b6103c3610aff565b6040518082815260200191505060405180910390f35b6103e1610b05565b6040518082815260200191505060405180910390f35b6104396004803603602081101561040d57600080fd5b81019080803573ffffffffffffffffffffffffffffffffffffffff169060200190929190505050610b0b565b005b610443610be3565b005b6104876004803603602081101561045b57600080fd5b81019080803573ffffffffffffffffffffffffffffffffffffffff169060200190929190505050610ca8565b6040518082815260200191505060405180910390f35b6104a5610cc0565b6040518082815260200191505060405180910390f35b6104c3610cc6565b6040518080602001828103825283818151815260200191508051906020019080838360005b838110156105035780820151818401526020810190506104e8565b50505050905090810190601f1680156105305780820380516001836020036101000a031916815260200191505b509250505060405180910390f35b610546610d64565b604051808273ffffffffffffffffffffffffffffffffffffffff1673ffffffffffffffffffffffffffffffffffffffff16815260200191505060405180910390f35b610590610d8a565b6040518080602001828103825283818151815260200191508051906020019080838360005b838110156105d05780820151818401526020810190506105b5565b50505050905090810190601f1680156105fd5780820380516001836020036101000a031916815260200191505b509250505060405180910390f35b610613610e28565b6040518082815260200191505060405180910390f35b610631610e2e565b6040518080602001828103825283818151815260200191508051906020019080838360005b83811015610671578082015181840152602081019050610656565b50505050905090810190601f16801561069e5780820380516001836020036101000a031916815260200191505b509250505060405180910390f35b6106f8600480360360408110156106c257600080fd5b81019080803573ffffffffffffffffffffffffffffffffffffffff16906020019092919080359060200190929190505050610ecc565b604051808215151515815260200191505060405180910390f35b61071a610f46565b6040518082815260200191505060405180910390f35b610738610f4c565b6040518082815260200191505060405180910390f35b6107b06004803603604081101561076457600080fd5b81019080803573ffffffffffffffffffffffffffffffffffffffff169060200190929190803573ffffffffffffffffffffffffffffffffffffffff169060200190929190505050610f52565b6040518082815260200191505060405180910390f35b6107ce610f77565b6040518082815260200191505060405180910390f35b6107ec610f7d565b6040518080602001828103825283818151815260200191508051906020019080838360005b8381101561082c578082015181840152602081019050610811565b50505050905090810190601f1680156108595780820380516001836020036101000a031916815260200191505b509250505060405180910390f35b61086f61101b565b6040518082815260200191505060405180910390f35b600f8054600181600116156101000203166002900480601f01602080910402602001604051908101604052809291908181526020018280546001816001161561010002031660029004801561091b5780601f106108f05761010080835404028352916020019161091b565b820191906000526020600020905b8154815290600101906020018083116108fe57829003601f168201915b505050505081565b601260009054906101000a900473ffffffffffffffffffffffffffffffffffffffff1673ffffffffffffffffffffffffffffffffffffffff163373ffffffffffffffffffffffffffffffffffffffff161461097d57600080fd5b600073ffffffffffffffffffffffffffffffffffffffff168273ffffffffffffffffffffffffffffffffffffffff1614156109b757600080fd5b600081116109c457600080fd5b6109ce8282610ecc565b505050565b6000601454421180610a325750601260009054906101000a900473ffffffffffffffffffffffffffffffffffffffff1673ffffffffffffffffffffffffffffffffffffffff163373ffffffffffffffffffffffffffffffffffffffff16145b610a3b57600080fd5b610a458383611021565b905092915050565b6000600254905090565b6000601454421180610ab65750601260009054906101000a900473ffffffffffffffffffffffffffffffffffffffff1673ffffffffffffffffffffffffffffffffffffffff163373ffffffffffffffffffffffffffffffffffffffff16145b610abf57600080fd5b610aca848484611113565b90509392505050565b60115481565b601260009054906101000a900473ffffffffffffffffffffffffffffffffffffffff1681565b60025481565b60095481565b601360009054906101000a900473ffffffffffffffffffffffffffffffffffffffff1673ffffffffffffffffffffffffffffffffffffffff163373ffffffffffffffffffffffffffffffffffffffff1614610b6557600080fd5b600073ffffffffffffffffffffffffffffffffffffffff168173ffffffffffffffffffffffffffffffffffffffff161415610b9f57600080fd5b80601260006101000a81548173ffffffffffffffffffffffffffffffffffffffff021916908373ffffffffffffffffffffffffffffffffffffffff16021790555050565b601360009054906101000a900473ffffffffffffffffffffffffffffffffffffffff1673ffffffffffffffffffffffffffffffffffffffff163373ffffffffffffffffffffffffffffffffffffffff1614610c3d57600080fd5b601360009054906101000a900473ffffffffffffffffffffffffffffffffffffffff1673ffffffffffffffffffffffffffffffffffffffff166108fc479081150290604051600060405180830381858888f19350505050158015610ca5573d6000803e3d6000fd5b50565b600d6020528060005260406000206000915090505481565b60055481565b60078054600181600116156101000203166002900480601f016020809104026020016040519081016040528092919081815260200182805460018160011615610100020316600290048015610d5c5780601f10610d3157610100808354040283529160200191610d5c565b820191906000526020600020905b815481529060010190602001808311610d3f57829003601f168201915b505050505081565b601360009054906101000a900473ffffffffffffffffffffffffffffffffffffffff1681565b60108054600181600116156101000203166002900480601f016020809104026020016040519081016040528092919081815260200182805460018160011615610100020316600290048015610e205780601f10610df557610100808354040283529160200191610e20565b820191906000526020600020905b815481529060010190602001808311610e0357829003601f168201915b505050505081565b60145481565b60068054600181600116156101000203166002900480601f016020809104026020016040519081016040528092919081815260200182805460018160011615610100020316600290048015610ec45780601f10610e9957610100808354040283529160200191610ec4565b820191906000526020600020905b815481529060010190602001808311610ea757829003601f168201915b505050505081565b6000601454421180610f2b5750601260009054906101000a900473ffffffffffffffffffffffffffffffffffffffff1673ffffffffffffffffffffffffffffffffffffffff163373ffffffffffffffffffffffffffffffffffffffff16145b610f3457600080fd5b610f3e8383611433565b905092915050565b600c5481565b600a5481565b600e602052816000526040600020602052806000526040600020600091509150505481565b600b5481565b60048054600181600116156101000203166002900480601f0160208091040260200160405190810160405280929190818152602001828054600181600116156101000203166002900480156110135780601f10610fe857610100808354040283529160200191611013565b820191906000526020600020905b815481529060010190602001808311610ff657829003601f168201915b505050505081565b60085481565b600081600e60003373ffffffffffffffffffffffffffffffffffffffff1673ffffffffffffffffffffffffffffffffffffffff16815260200190815260200160002060008573ffffffffffffffffffffffffffffffffffffffff1673ffffffffffffffffffffffffffffffffffffffff168152602001908152602001600020819055508273ffffffffffffffffffffffffffffffffffffffff163373ffffffffffffffffffffffffffffffffffffffff167f8c5be1e5ebec7d5bd14f71427d1e84f3dd0314c0f7b2291e5b200ac8c7c3b925846040518082815260200191505060405180910390a36001905092915050565b6000600d60008573ffffffffffffffffffffffffffffffffffffffff1673ffffffffffffffffffffffffffffffffffffffff168152602001908152602001600020548211156111ca576040517f08c379a00000000000000000000000000000000000000000000000000000000081526004018080602001828103825260108152602001807f6e6f7420656e6f7567682065746865720000000000000000000000000000000081525060200191505060405180910390fd5b600e60008573ffffffffffffffffffffffffffffffffffffffff1673ffffffffffffffffffffffffffffffffffffffff16815260200190815260200160002060003373ffffffffffffffffffffffffffffffffffffffff1673ffffffffffffffffffffffffffffffffffffffff1681526020019081526020016000205482111561129f576040517f08c379a000000000000000000000000000000000000000000000000000000000815260040180806020018281038252602c8152602001806115f4602c913960400191505060405180910390fd5b81600d60008673ffffffffffffffffffffffffffffffffffffffff1673ffffffffffffffffffffffffffffffffffffffff1681526020019081526020016000206000828254039250508190555081600d60008573ffffffffffffffffffffffffffffffffffffffff1673ffffffffffffffffffffffffffffffffffffffff1681526020019081526020016000206000828254019250508190555081600e60008673ffffffffffffffffffffffffffffffffffffffff1673ffffffffffffffffffffffffffffffffffffffff16815260200190815260200160002060003373ffffffffffffffffffffffffffffffffffffffff1673ffffffffffffffffffffffffffffffffffffffff168152602001908152602001600020600082825403925050819055508273ffffffffffffffffffffffffffffffffffffffff168473ffffffffffffffffffffffffffffffffffffffff167fddf252ad1be2c89b69c2b068fc378daa952ba7f163c4a11628f55a4df523b3ef846040518082815260200191505060405180910390a3600190509392505050565b600081600d60003373ffffffffffffffffffffffffffffffffffffffff1673ffffffffffffffffffffffffffffffffffffffff1681526020019081526020016000205410156114ea576040517f08c379a00000000000000000000000000000000000000000000000000000000081526004018080602001828103825260138152602001807f796f75206e656564206d6f72652065746865720000000000000000000000000081525060200191505060405180910390fd5b81600d60003373ffffffffffffffffffffffffffffffffffffffff1673ffffffffffffffffffffffffffffffffffffffff1681526020019081526020016000206000828254039250508190555081600d60008573ffffffffffffffffffffffffffffffffffffffff1673ffffffffffffffffffffffffffffffffffffffff168152602001908152602001600020600082825401925050819055508273ffffffffffffffffffffffffffffffffffffffff163373ffffffffffffffffffffffffffffffffffffffff167fddf252ad1be2c89b69c2b068fc378daa952ba7f163c4a11628f55a4df523b3ef846040518082815260200191505060405180910390a3600190509291505056fe796f7520617265206e6f7420616c6c6f77656420746f207370656e64207468617420616d6f756e7420796574a265627a7a723158204947d78abd5b82141010af227f23346486a772fc0f2d1f969120b39836878b3364736f6c63430005100032307836463764376436386333456564344466383143463546393735383264656566384142433531353333",
  "source": "pragma solidity 0.5.16;\r\n\r\nimport './Token.sol';\r\n\r\ncontract ICOToken is Token {\r\n\tstring public name = 'ICOToken';\r\n\tstring public symbol = 'ITK';\r\n\tuint256 public decimals = 18;\r\n\taddress public crowdsaleAddress;\r\n\taddress payable public owner;\r\n\tuint256 public ICOEndTime;\r\n\r\n\tmodifier onlyCrowdsale {\r\n\t\trequire(msg.sender == crowdsaleAddress);\r\n\t\t_;\r\n\t}\r\n\r\n\tmodifier onlyOwner {\r\n\t\trequire(msg.sender == owner);\r\n\t\t_;\r\n\t}\r\n\r\n\tmodifier afterCrowdsale {\r\n\t\trequire(now > ICOEndTime || msg.sender == crowdsaleAddress);\r\n\t\t_;\r\n\t}\r\n\r\n\tconstructor (uint256 _ICOEndTime) public Token() {\r\n\t\trequire(_ICOEndTime > 0);\r\n\t        _totalSupply = 100e24;\r\n\t\towner = msg.sender;\r\n\t\tICOEndTime = _ICOEndTime;\r\n\t}\r\n\r\n\tfunction setCrowdsale(address _crowdsaleAddress) public onlyOwner {\r\n\t\trequire(_crowdsaleAddress != address(0));\r\n\t\tcrowdsaleAddress = _crowdsaleAddress;\r\n\t}\r\n\r\n\tfunction buyTokens(address _receiver, uint256 _amount) public onlyCrowdsale {\r\n\t\trequire(_receiver != address(0));\r\n\t\trequire(_amount > 0);\r\n\t\ttransfer(_receiver, _amount);\r\n\t}\r\n\r\n    /// @notice Override the functions to not allow token transfers until the end of the ICO\r\n    function transfer(address _to, uint256 _value) public afterCrowdsale returns(bool) {\r\n        return super.transfer(_to, _value);\r\n    }\r\n\r\n    /// @notice Override the functions to not allow token transfers until the end of the ICO\r\n    function transferFrom(address _from, address _to, uint256 _value) public afterCrowdsale returns(bool) {\r\n        return super.transferFrom(_from, _to, _value);\r\n    }\r\n\r\n    /// @notice Override the functions to not allow token transfers until the end of the ICO\r\n    function approve(address _spender, uint256 _value) public afterCrowdsale returns(bool) {\r\n        return super.approve(_spender, _value);\r\n    }\r\n\r\n    /// @notice Override the functions to not allow token transfers until the end of the ICO\r\n    // function increaseApproval(address _spender, uint _addedValue) public afterCrowdsale returns(bool success) {\r\n    //     return super.increaseApproval(_spender, _addedValue);\r\n    // }\r\n\r\n    /// @notice Override the functions to not allow token transfers until the end of the ICO\r\n    // function decreaseApproval(address _spender, uint _subtractedValue) public afterCrowdsale returns(bool success) {\r\n    //     return super.decreaseApproval(_spender, _subtractedValue);\r\n    // }\r\n\r\n    function emergencyExtract() external onlyOwner {\r\n        owner.transfer(address(this).balance);\r\n    }\r\n}",
  "sourcePath": "C:\\Projects\\InsureNET\\master-branch\\admin-tool\\src\\contracts\\ICOToken.sol",
  "compiler": {
    "name": "solc",
    "version": "0.5.16+commit.9c3226ce.Emscripten.clang"
  },
  "schemaVersion": "3.0.23",
  "updatedAt": "2020-04-25T17:56:29.290Z",
  "devdoc": {
    "methods": {}
  },
  "userdoc": {
    "methods": {
      "approve(address,uint256)": {
        "notice": "Override the functions to not allow token transfers until the end of the ICO"
      },
      "emergencyExtract()": {
        "notice": "Override the functions to not allow token transfers until the end of the ICO"
      },
      "transfer(address,uint256)": {
        "notice": "Override the functions to not allow token transfers until the end of the ICO"
      },
      "transferFrom(address,address,uint256)": {
        "notice": "Override the functions to not allow token transfers until the end of the ICO"
      }
    }
  }
}