{
  "contractName": "InetWhitelistedCrowdsale",
  "abi": [
    {
      "anonymous": false,
      "inputs": [
        {
          "indexed": true,
          "internalType": "address",
          "name": "previousOwner",
          "type": "address"
        },
        {
          "indexed": true,
          "internalType": "address",
          "name": "newOwner",
          "type": "address"
        }
      ],
      "name": "OwnershipTransferred",
      "type": "event"
    },
    {
      "anonymous": false,
      "inputs": [
        {
          "indexed": true,
          "internalType": "address",
          "name": "_contributor",
          "type": "address"
        },
        {
          "indexed": false,
          "internalType": "uint256",
          "name": "_allowance",
          "type": "uint256"
        },
        {
          "indexed": false,
          "internalType": "bool",
          "name": "_airdrop",
          "type": "bool"
        },
        {
          "indexed": false,
          "internalType": "uint256",
          "name": "_bonus",
          "type": "uint256"
        },
        {
          "indexed": false,
          "internalType": "uint256",
          "name": "_lockupPeriod",
          "type": "uint256"
        }
      ],
      "name": "Whitelisted",
      "type": "event"
    },
    {
      "constant": true,
      "inputs": [
        {
          "internalType": "address",
          "name": "",
          "type": "address"
        }
      ],
      "name": "contributorList",
      "outputs": [
        {
          "internalType": "uint256",
          "name": "allowance",
          "type": "uint256"
        },
        {
          "internalType": "uint256",
          "name": "contributionAmount",
          "type": "uint256"
        },
        {
          "internalType": "uint256",
          "name": "tokensIssued",
          "type": "uint256"
        },
        {
          "internalType": "bool",
          "name": "airdrop",
          "type": "bool"
        },
        {
          "internalType": "uint256",
          "name": "bonus",
          "type": "uint256"
        },
        {
          "internalType": "uint256",
          "name": "lockupPeriod",
          "type": "uint256"
        }
      ],
      "payable": false,
      "stateMutability": "view",
      "type": "function"
    },
    {
      "constant": true,
      "inputs": [],
      "name": "isOwner",
      "outputs": [
        {
          "internalType": "bool",
          "name": "",
          "type": "bool"
        }
      ],
      "payable": false,
      "stateMutability": "view",
      "type": "function"
    },
    {
      "constant": true,
      "inputs": [],
      "name": "owner",
      "outputs": [
        {
          "internalType": "address",
          "name": "",
          "type": "address"
        }
      ],
      "payable": false,
      "stateMutability": "view",
      "type": "function"
    },
    {
      "constant": false,
      "inputs": [],
      "name": "renounceOwnership",
      "outputs": [],
      "payable": false,
      "stateMutability": "nonpayable",
      "type": "function"
    },
    {
      "constant": false,
      "inputs": [
        {
          "internalType": "address",
          "name": "newOwner",
          "type": "address"
        }
      ],
      "name": "transferOwnership",
      "outputs": [],
      "payable": false,
      "stateMutability": "nonpayable",
      "type": "function"
    },
    {
      "constant": false,
      "inputs": [
        {
          "internalType": "address[]",
          "name": "_contributorAddresses",
          "type": "address[]"
        },
        {
          "internalType": "uint256[]",
          "name": "_contributorAllowance",
          "type": "uint256[]"
        },
        {
          "internalType": "bool[]",
          "name": "_airdrop",
          "type": "bool[]"
        },
        {
          "internalType": "uint256[]",
          "name": "_bonus",
          "type": "uint256[]"
        },
        {
          "internalType": "uint256[]",
          "name": "_lockupPeriod",
          "type": "uint256[]"
        }
      ],
      "name": "editContributors",
      "outputs": [],
      "payable": false,
      "stateMutability": "nonpayable",
      "type": "function"
    }
  ],
  "bytecode": "0x608060405260006100146100b760201b60201c565b9050806000806101000a81548173ffffffffffffffffffffffffffffffffffffffff021916908373ffffffffffffffffffffffffffffffffffffffff1602179055508073ffffffffffffffffffffffffffffffffffffffff16600073ffffffffffffffffffffffffffffffffffffffff167f8be0079c531659141344cd1fd0a4f28419497f9722a3daafe3b4186f6b6457e060405160405180910390a3506100bf565b600033905090565b610e64806100ce6000396000f3fe608060405234801561001057600080fd5b50600436106100625760003560e01c8063715018a6146100675780638da5cb5b146100715780638f32d59b146100bb57806392acb4d6146100dd578063b70949c91461015c578063f2fde38b14610464575b600080fd5b61006f6104a8565b005b6100796105e1565b604051808273ffffffffffffffffffffffffffffffffffffffff1673ffffffffffffffffffffffffffffffffffffffff16815260200191505060405180910390f35b6100c361060a565b604051808215151515815260200191505060405180910390f35b61011f600480360360208110156100f357600080fd5b81019080803573ffffffffffffffffffffffffffffffffffffffff169060200190929190505050610668565b6040518087815260200186815260200185815260200184151515158152602001838152602001828152602001965050505050505060405180910390f35b610462600480360360a081101561017257600080fd5b810190808035906020019064010000000081111561018f57600080fd5b8201836020820111156101a157600080fd5b803590602001918460208302840111640100000000831117156101c357600080fd5b919080806020026020016040519081016040528093929190818152602001838360200280828437600081840152601f19601f8201169050808301925050505050505091929192908035906020019064010000000081111561022357600080fd5b82018360208201111561023557600080fd5b8035906020019184602083028401116401000000008311171561025757600080fd5b919080806020026020016040519081016040528093929190818152602001838360200280828437600081840152601f19601f820116905080830192505050505050509192919290803590602001906401000000008111156102b757600080fd5b8201836020820111156102c957600080fd5b803590602001918460208302840111640100000000831117156102eb57600080fd5b919080806020026020016040519081016040528093929190818152602001838360200280828437600081840152601f19601f8201169050808301925050505050505091929192908035906020019064010000000081111561034b57600080fd5b82018360208201111561035d57600080fd5b8035906020019184602083028401116401000000008311171561037f57600080fd5b919080806020026020016040519081016040528093929190818152602001838360200280828437600081840152601f19601f820116905080830192505050505050509192919290803590602001906401000000008111156103df57600080fd5b8201836020820111156103f157600080fd5b8035906020019184602083028401116401000000008311171561041357600080fd5b919080806020026020016040519081016040528093929190818152602001838360200280828437600081840152601f19601f8201169050808301925050505050505091929192905050506106b1565b005b6104a66004803603602081101561047a57600080fd5b81019080803573ffffffffffffffffffffffffffffffffffffffff169060200190929190505050610b8a565b005b6104b061060a565b610522576040517f08c379a00000000000000000000000000000000000000000000000000000000081526004018080602001828103825260208152602001807f4f776e61626c653a2063616c6c6572206973206e6f7420746865206f776e657281525060200191505060405180910390fd5b600073ffffffffffffffffffffffffffffffffffffffff166000809054906101000a900473ffffffffffffffffffffffffffffffffffffffff1673ffffffffffffffffffffffffffffffffffffffff167f8be0079c531659141344cd1fd0a4f28419497f9722a3daafe3b4186f6b6457e060405160405180910390a360008060006101000a81548173ffffffffffffffffffffffffffffffffffffffff021916908373ffffffffffffffffffffffffffffffffffffffff160217905550565b60008060009054906101000a900473ffffffffffffffffffffffffffffffffffffffff16905090565b60008060009054906101000a900473ffffffffffffffffffffffffffffffffffffffff1673ffffffffffffffffffffffffffffffffffffffff1661064c610c10565b73ffffffffffffffffffffffffffffffffffffffff1614905090565b60016020528060005260406000206000915090508060000154908060010154908060020154908060030160009054906101000a900460ff16908060040154908060050154905086565b6106b961060a565b61072b576040517f08c379a00000000000000000000000000000000000000000000000000000000081526004018080602001828103825260208152602001807f4f776e61626c653a2063616c6c6572206973206e6f7420746865206f776e657281525060200191505060405180910390fd5b8351855114801561073d575082518551145b801561074a575081518551145b8015610757575080518551145b6107ac576040517f08c379a0000000000000000000000000000000000000000000000000000000008152600401808060200182810382526025815260200180610e0b6025913960400191505060405180910390fd5b60008090505b8551811015610b825760008382815181106107c957fe5b602002602001015114806107f0575060048382815181106107e657fe5b6020026020010151145b8061080e5750600a83828151811061080457fe5b6020026020010151145b610880576040517f08c379a000000000000000000000000000000000000000000000000000000000815260040180806020018281038252601f8152602001807f626f6e757320747970652f76616c7565206973206e6f7420636f72726563740081525060200191505060405180910390fd5b600282828151811061088e57fe5b6020026020010151111561090a576040517f08c379a00000000000000000000000000000000000000000000000000000000081526004018080602001828103825260168152602001807f6c6f636b757020706572696f64206e6f74206f7665720000000000000000000081525060200191505060405180910390fd5b600086828151811061091857fe5b6020026020010151905085828151811061092e57fe5b6020026020010151600160008373ffffffffffffffffffffffffffffffffffffffff1673ffffffffffffffffffffffffffffffffffffffff1681526020019081526020016000206000018190555084828151811061098857fe5b6020026020010151600160008373ffffffffffffffffffffffffffffffffffffffff1673ffffffffffffffffffffffffffffffffffffffff16815260200190815260200160002060030160006101000a81548160ff0219169083151502179055508382815181106109f557fe5b6020026020010151600160008373ffffffffffffffffffffffffffffffffffffffff1673ffffffffffffffffffffffffffffffffffffffff16815260200190815260200160002060040181905550828281518110610a4f57fe5b6020026020010151600160008373ffffffffffffffffffffffffffffffffffffffff1673ffffffffffffffffffffffffffffffffffffffff16815260200190815260200160002060050181905550868281518110610aa957fe5b602002602001015173ffffffffffffffffffffffffffffffffffffffff167f77c09a19fcd5375bb199fef6f7ff5c86bb393ad9b0574d097475dbec3263d43d878481518110610af457fe5b6020026020010151878581518110610b0857fe5b6020026020010151878681518110610b1c57fe5b6020026020010151878781518110610b3057fe5b6020026020010151604051808581526020018415151515815260200183815260200182815260200194505050505060405180910390a250610b7b600182610c1890919063ffffffff16565b90506107b2565b505050505050565b610b9261060a565b610c04576040517f08c379a00000000000000000000000000000000000000000000000000000000081526004018080602001828103825260208152602001807f4f776e61626c653a2063616c6c6572206973206e6f7420746865206f776e657281525060200191505060405180910390fd5b610c0d81610ca0565b50565b600033905090565b600080828401905083811015610c96576040517f08c379a000000000000000000000000000000000000000000000000000000000815260040180806020018281038252601b8152602001807f536166654d6174683a206164646974696f6e206f766572666c6f77000000000081525060200191505060405180910390fd5b8091505092915050565b600073ffffffffffffffffffffffffffffffffffffffff168173ffffffffffffffffffffffffffffffffffffffff161415610d26576040517f08c379a0000000000000000000000000000000000000000000000000000000008152600401808060200182810382526026815260200180610de56026913960400191505060405180910390fd5b8073ffffffffffffffffffffffffffffffffffffffff166000809054906101000a900473ffffffffffffffffffffffffffffffffffffffff1673ffffffffffffffffffffffffffffffffffffffff167f8be0079c531659141344cd1fd0a4f28419497f9722a3daafe3b4186f6b6457e060405160405180910390a3806000806101000a81548173ffffffffffffffffffffffffffffffffffffffff021916908373ffffffffffffffffffffffffffffffffffffffff1602179055505056fe4f776e61626c653a206e6577206f776e657220697320746865207a65726f2061646472657373596f7520617265206e6f7420616e20617574686f72697a656420636f6e7472696275746f72a265627a7a723158205600551bad1c7b1241012fd7823c167634bb38ee25937b21557853a3ba75291d64736f6c63430005100032",
  "source": "/**\r\n * @title iNET Token Generating Event - TGE\r\n * @dev The Decentralized Insurance Platform Token.\r\n * @author Jason Romero\r\n * @copyright 2020 InsureNET\r\n */\r\n\r\npragma solidity ^0.5.0;\r\n\r\nimport '@openzeppelin/contracts/math/SafeMath.sol';\r\nimport '@openzeppelin/contracts/crowdsale/emission/MintedCrowdsale.sol';\r\nimport '@openzeppelin/contracts/ownership/Ownable.sol';\r\n\r\ncontract InetWhitelistedCrowdsale is Ownable {\r\n  using SafeMath for uint256;\r\n\r\n  struct ContributorData {\r\n    uint256 allowance;\r\n    uint256 contributionAmount;\r\n    uint256 tokensIssued;\r\n    bool airdrop;\r\n    uint256 bonus;        // 0 == 0%, 4 == 25%, 10 == 10%\r\n    uint256 lockupPeriod; // 0, 1 or 2 (years)\r\n  }\r\n\r\n  mapping (address => ContributorData) public contributorList;\r\n\r\n  event Whitelisted(address indexed _contributor, uint256 _allowance, bool _airdrop, uint256 _bonus, uint256 _lockupPeriod);\r\n\r\n  /**\r\n   * Push contributor data to the contract before the crowdsale\r\n   */\r\n  function editContributors (\r\n    address[] memory _contributorAddresses,\r\n    uint256[] memory _contributorAllowance,\r\n    bool[] memory _airdrop,\r\n    uint256[] memory _bonus,\r\n    uint256[] memory _lockupPeriod\r\n  ) public onlyOwner{\r\n    // Check if input data is consistent\r\n    require(\r\n      _contributorAddresses.length == _contributorAllowance.length &&\r\n      _contributorAddresses.length == _airdrop.length &&\r\n      _contributorAddresses.length == _bonus.length &&\r\n      _contributorAddresses.length == _lockupPeriod.length,\r\n      'You are not an authorized contributor'\r\n    );\r\n\r\n    for (uint256 cnt = 0; cnt < _contributorAddresses.length; cnt = cnt.add(1)) {\r\n      require(_bonus[cnt] == 0 || _bonus[cnt] == 4 || _bonus[cnt] == 10, 'bonus type/value is not correct');\r\n      require(_lockupPeriod[cnt] <= 2, 'lockup period not over');\r\n\r\n      address contributor = _contributorAddresses[cnt];\r\n      contributorList[contributor].allowance = _contributorAllowance[cnt];\r\n      contributorList[contributor].airdrop = _airdrop[cnt];\r\n      contributorList[contributor].bonus = _bonus[cnt];\r\n      contributorList[contributor].lockupPeriod = _lockupPeriod[cnt];\r\n\r\n      emit Whitelisted(\r\n        _contributorAddresses[cnt],\r\n        _contributorAllowance[cnt],\r\n        _airdrop[cnt],\r\n        _bonus[cnt],\r\n        _lockupPeriod[cnt]\r\n      );\r\n    }\r\n  }\r\n\r\n}",
  "sourcePath": "C:\\Users\\jaxco\\source\\repos\\HederaHack\\InsureNET-Hedera\\admin-tool\\src\\contracts\\InetWhitelistedCrowdsale.sol",
  "compiler": {
    "name": "solc",
    "version": "0.5.16+commit.9c3226ce.Emscripten.clang"
  },
  "schemaVersion": "3.0.23",
  "updatedAt": "2020-04-11T23:32:45.007Z",
  "devdoc": {
    "methods": {
      "isOwner()": {
        "details": "Returns true if the caller is the current owner."
      },
      "owner()": {
        "details": "Returns the address of the current owner."
      },
      "renounceOwnership()": {
        "details": "Leaves the contract without owner. It will not be possible to call `onlyOwner` functions anymore. Can only be called by the current owner.     * NOTE: Renouncing ownership will leave the contract without an owner, thereby removing any functionality that is only available to the owner."
      },
      "transferOwnership(address)": {
        "details": "Transfers ownership of the contract to a new account (`newOwner`). Can only be called by the current owner."
      }
    }
  },
  "userdoc": {
    "methods": {
      "editContributors(address[],uint256[],bool[],uint256[],uint256[])": {
        "notice": "Push contributor data to the contract before the crowdsale"
      }
    }
  }
}