{
  "contractName": "Marketplace",
  "abi": [
    {
      "inputs": [],
      "payable": false,
      "stateMutability": "nonpayable",
      "type": "constructor"
    },
    {
      "anonymous": false,
      "inputs": [
        {
          "indexed": false,
          "internalType": "uint256",
          "name": "id",
          "type": "uint256"
        },
        {
          "indexed": false,
          "internalType": "string",
          "name": "name",
          "type": "string"
        },
        {
          "indexed": false,
          "internalType": "uint256",
          "name": "price",
          "type": "uint256"
        },
        {
          "indexed": false,
          "internalType": "address payable",
          "name": "owner",
          "type": "address"
        },
        {
          "indexed": false,
          "internalType": "bool",
          "name": "purchased",
          "type": "bool"
        }
      ],
      "name": "PolicyCreated",
      "type": "event"
    },
    {
      "anonymous": false,
      "inputs": [
        {
          "indexed": false,
          "internalType": "uint256",
          "name": "id",
          "type": "uint256"
        },
        {
          "indexed": false,
          "internalType": "string",
          "name": "name",
          "type": "string"
        },
        {
          "indexed": false,
          "internalType": "uint256",
          "name": "price",
          "type": "uint256"
        },
        {
          "indexed": false,
          "internalType": "address payable",
          "name": "owner",
          "type": "address"
        },
        {
          "indexed": false,
          "internalType": "bool",
          "name": "purchased",
          "type": "bool"
        }
      ],
      "name": "PolicyPurchased",
      "type": "event"
    },
    {
      "anonymous": false,
      "inputs": [
        {
          "indexed": false,
          "internalType": "uint256",
          "name": "id",
          "type": "uint256"
        },
        {
          "indexed": false,
          "internalType": "string",
          "name": "name",
          "type": "string"
        },
        {
          "indexed": false,
          "internalType": "uint256",
          "name": "price",
          "type": "uint256"
        },
        {
          "indexed": false,
          "internalType": "address payable",
          "name": "owner",
          "type": "address"
        },
        {
          "indexed": false,
          "internalType": "bool",
          "name": "purchased",
          "type": "bool"
        }
      ],
      "name": "ProductCreated",
      "type": "event"
    },
    {
      "anonymous": false,
      "inputs": [
        {
          "indexed": false,
          "internalType": "uint256",
          "name": "id",
          "type": "uint256"
        },
        {
          "indexed": false,
          "internalType": "string",
          "name": "name",
          "type": "string"
        },
        {
          "indexed": false,
          "internalType": "uint256",
          "name": "price",
          "type": "uint256"
        },
        {
          "indexed": false,
          "internalType": "address payable",
          "name": "owner",
          "type": "address"
        },
        {
          "indexed": false,
          "internalType": "bool",
          "name": "purchased",
          "type": "bool"
        }
      ],
      "name": "ProductPurchased",
      "type": "event"
    },
    {
      "constant": true,
      "inputs": [
        {
          "internalType": "uint256",
          "name": "",
          "type": "uint256"
        }
      ],
      "name": "agents",
      "outputs": [
        {
          "internalType": "uint256",
          "name": "id",
          "type": "uint256"
        },
        {
          "internalType": "string",
          "name": "name",
          "type": "string"
        },
        {
          "internalType": "string",
          "name": "title",
          "type": "string"
        },
        {
          "internalType": "uint256",
          "name": "commission",
          "type": "uint256"
        },
        {
          "internalType": "address payable",
          "name": "owner",
          "type": "address"
        },
        {
          "internalType": "bool",
          "name": "commissionPaid",
          "type": "bool"
        }
      ],
      "payable": false,
      "stateMutability": "view",
      "type": "function"
    },
    {
      "constant": true,
      "inputs": [],
      "name": "commission",
      "outputs": [
        {
          "internalType": "uint256",
          "name": "",
          "type": "uint256"
        }
      ],
      "payable": false,
      "stateMutability": "view",
      "type": "function"
    },
    {
      "constant": true,
      "inputs": [],
      "name": "fee",
      "outputs": [
        {
          "internalType": "uint256",
          "name": "",
          "type": "uint256"
        }
      ],
      "payable": false,
      "stateMutability": "view",
      "type": "function"
    },
    {
      "constant": true,
      "inputs": [],
      "name": "name",
      "outputs": [
        {
          "internalType": "string",
          "name": "",
          "type": "string"
        }
      ],
      "payable": false,
      "stateMutability": "view",
      "type": "function"
    },
    {
      "constant": true,
      "inputs": [
        {
          "internalType": "uint256",
          "name": "",
          "type": "uint256"
        }
      ],
      "name": "policies",
      "outputs": [
        {
          "internalType": "uint256",
          "name": "id",
          "type": "uint256"
        },
        {
          "internalType": "string",
          "name": "policyNumber",
          "type": "string"
        },
        {
          "internalType": "address payable",
          "name": "owner",
          "type": "address"
        },
        {
          "internalType": "uint256",
          "name": "price",
          "type": "uint256"
        },
        {
          "internalType": "uint256",
          "name": "commission",
          "type": "uint256"
        },
        {
          "internalType": "bool",
          "name": "active",
          "type": "bool"
        },
        {
          "internalType": "bool",
          "name": "purchased",
          "type": "bool"
        },
        {
          "internalType": "bool",
          "name": "renewable",
          "type": "bool"
        }
      ],
      "payable": false,
      "stateMutability": "view",
      "type": "function"
    },
    {
      "constant": true,
      "inputs": [],
      "name": "policyCount",
      "outputs": [
        {
          "internalType": "uint256",
          "name": "",
          "type": "uint256"
        }
      ],
      "payable": false,
      "stateMutability": "view",
      "type": "function"
    },
    {
      "constant": true,
      "inputs": [],
      "name": "productCount",
      "outputs": [
        {
          "internalType": "uint256",
          "name": "",
          "type": "uint256"
        }
      ],
      "payable": false,
      "stateMutability": "view",
      "type": "function"
    },
    {
      "constant": true,
      "inputs": [
        {
          "internalType": "uint256",
          "name": "",
          "type": "uint256"
        }
      ],
      "name": "products",
      "outputs": [
        {
          "internalType": "uint256",
          "name": "id",
          "type": "uint256"
        },
        {
          "internalType": "string",
          "name": "name",
          "type": "string"
        },
        {
          "internalType": "uint256",
          "name": "price",
          "type": "uint256"
        },
        {
          "internalType": "address payable",
          "name": "owner",
          "type": "address"
        },
        {
          "internalType": "bool",
          "name": "purchased",
          "type": "bool"
        },
        {
          "internalType": "bool",
          "name": "available",
          "type": "bool"
        }
      ],
      "payable": false,
      "stateMutability": "view",
      "type": "function"
    },
    {
      "constant": true,
      "inputs": [
        {
          "internalType": "uint256",
          "name": "",
          "type": "uint256"
        }
      ],
      "name": "users",
      "outputs": [
        {
          "internalType": "uint256",
          "name": "id",
          "type": "uint256"
        },
        {
          "internalType": "string",
          "name": "name",
          "type": "string"
        },
        {
          "internalType": "string",
          "name": "title",
          "type": "string"
        },
        {
          "internalType": "uint256",
          "name": "commission",
          "type": "uint256"
        },
        {
          "internalType": "address payable",
          "name": "owner",
          "type": "address"
        },
        {
          "internalType": "bool",
          "name": "commissionPaid",
          "type": "bool"
        }
      ],
      "payable": false,
      "stateMutability": "view",
      "type": "function"
    },
    {
      "constant": false,
      "inputs": [
        {
          "internalType": "string",
          "name": "_policyNumber",
          "type": "string"
        },
        {
          "internalType": "uint256",
          "name": "_price",
          "type": "uint256"
        }
      ],
      "name": "createPolicy",
      "outputs": [],
      "payable": false,
      "stateMutability": "nonpayable",
      "type": "function"
    },
    {
      "constant": false,
      "inputs": [
        {
          "internalType": "string",
          "name": "_name",
          "type": "string"
        },
        {
          "internalType": "uint256",
          "name": "_price",
          "type": "uint256"
        }
      ],
      "name": "createProduct",
      "outputs": [],
      "payable": false,
      "stateMutability": "nonpayable",
      "type": "function"
    },
    {
      "constant": false,
      "inputs": [
        {
          "internalType": "uint256",
          "name": "_id",
          "type": "uint256"
        }
      ],
      "name": "purchasePolicy",
      "outputs": [],
      "payable": true,
      "stateMutability": "payable",
      "type": "function"
    },
    {
      "constant": false,
      "inputs": [
        {
          "internalType": "uint256",
          "name": "_id",
          "type": "uint256"
        }
      ],
      "name": "purchaseProduct",
      "outputs": [],
      "payable": true,
      "stateMutability": "payable",
      "type": "function"
    }
  ],
  "bytecode": "0x608060405260006001556000600255600460035560016004553480156200002557600080fd5b506040518060400160405280601581526020017f496e737572654e4554204d61726b6574706c616365000000000000000000000081525060009080519060200190620000739291906200007a565b5062000129565b828054600181600116156101000203166002900490600052602060002090601f016020900481019282601f10620000bd57805160ff1916838001178555620000ee565b82800160010185558215620000ee579182015b82811115620000ed578251825591602001919060010190620000d0565b5b509050620000fd919062000101565b5090565b6200012691905b808211156200012257600081600090555060010162000108565b5090565b90565b6123d880620001396000396000f3fe6080604052600436106100c25760003560e01c8063c1260c9a1161007f578063de54d42911610059578063de54d429146107b0578063e0f6ef87146107db578063e148919114610806578063e9300c6c14610831576100c2565b8063c1260c9a1461063a578063d3e8948314610668578063ddca3f4314610785576100c2565b806306fdde03146100c7578063365b98b21461015757806338e76a03146102c3578063513856c8146102f15780637acc0b201461045d5780639c8bc7c814610568575b600080fd5b3480156100d357600080fd5b506100dc610903565b6040518080602001828103825283818151815260200191508051906020019080838360005b8381101561011c578082015181840152602081019050610101565b50505050905090810190601f1680156101495780820380516001836020036101000a031916815260200191505b509250505060405180910390f35b34801561016357600080fd5b506101906004803603602081101561017a57600080fd5b81019080803590602001909291905050506109a1565b6040518087815260200180602001806020018681526020018573ffffffffffffffffffffffffffffffffffffffff1673ffffffffffffffffffffffffffffffffffffffff16815260200184151515158152602001838103835288818151815260200191508051906020019080838360005b8381101561021c578082015181840152602081019050610201565b50505050905090810190601f1680156102495780820380516001836020036101000a031916815260200191505b50838103825287818151815260200191508051906020019080838360005b83811015610282578082015181840152602081019050610267565b50505050905090810190601f1680156102af5780820380516001836020036101000a031916815260200191505b509850505050505050505060405180910390f35b6102ef600480360360208110156102d957600080fd5b8101908080359060200190929190505050610b3a565b005b3480156102fd57600080fd5b5061032a6004803603602081101561031457600080fd5b8101908080359060200190929190505050611139565b6040518087815260200180602001806020018681526020018573ffffffffffffffffffffffffffffffffffffffff1673ffffffffffffffffffffffffffffffffffffffff16815260200184151515158152602001838103835288818151815260200191508051906020019080838360005b838110156103b657808201518184015260208101905061039b565b50505050905090810190601f1680156103e35780820380516001836020036101000a031916815260200191505b50838103825287818151815260200191508051906020019080838360005b8381101561041c578082015181840152602081019050610401565b50505050905090810190601f1680156104495780820380516001836020036101000a031916815260200191505b509850505050505050505060405180910390f35b34801561046957600080fd5b506104966004803603602081101561048057600080fd5b81019080803590602001909291905050506112d2565b60405180878152602001806020018681526020018573ffffffffffffffffffffffffffffffffffffffff1673ffffffffffffffffffffffffffffffffffffffff1681526020018415151515815260200183151515158152602001828103825287818151815260200191508051906020019080838360005b8381101561052857808201518184015260208101905061050d565b50505050905090810190601f1680156105555780820380516001836020036101000a031916815260200191505b5097505050505050505060405180910390f35b34801561057457600080fd5b506106386004803603604081101561058b57600080fd5b81019080803590602001906401000000008111156105a857600080fd5b8201836020820111156105ba57600080fd5b803590602001918460018302840111640100000000831117156105dc57600080fd5b91908080601f016020809104026020016040519081016040528093929190818152602001838380828437600081840152601f19601f820116905080830192505050505050509192919290803590602001909291905050506113e0565b005b6106666004803603602081101561065057600080fd5b8101908080359060200190929190505050611729565b005b34801561067457600080fd5b506106a16004803603602081101561068b57600080fd5b8101908080359060200190929190505050611e01565b60405180898152602001806020018873ffffffffffffffffffffffffffffffffffffffff1673ffffffffffffffffffffffffffffffffffffffff168152602001878152602001868152602001851515151581526020018415151515815260200183151515158152602001828103825289818151815260200191508051906020019080838360005b83811015610743578082015181840152602081019050610728565b50505050905090810190601f1680156107705780820380516001836020036101000a031916815260200191505b50995050505050505050505060405180910390f35b34801561079157600080fd5b5061079a611f28565b6040518082815260200191505060405180910390f35b3480156107bc57600080fd5b506107c5611f2e565b6040518082815260200191505060405180910390f35b3480156107e757600080fd5b506107f0611f34565b6040518082815260200191505060405180910390f35b34801561081257600080fd5b5061081b611f3a565b6040518082815260200191505060405180910390f35b34801561083d57600080fd5b506109016004803603604081101561085457600080fd5b810190808035906020019064010000000081111561087157600080fd5b82018360208201111561088357600080fd5b803590602001918460018302840111640100000000831117156108a557600080fd5b91908080601f016020809104026020016040519081016040528093929190818152602001838380828437600081840152601f19601f82011690508083019250505050505050919291929080359060200190929190505050611f40565b005b60008054600181600116156101000203166002900480601f0160208091040260200160405190810160405280929190818152602001828054600181600116156101000203166002900480156109995780601f1061096e57610100808354040283529160200191610999565b820191906000526020600020905b81548152906001019060200180831161097c57829003601f168201915b505050505081565b6007602052806000526040600020600091509050806000015490806001018054600181600116156101000203166002900480601f016020809104026020016040519081016040528092919081815260200182805460018160011615610100020316600290048015610a535780601f10610a2857610100808354040283529160200191610a53565b820191906000526020600020905b815481529060010190602001808311610a3657829003601f168201915b505050505090806002018054600181600116156101000203166002900480601f016020809104026020016040519081016040528092919081815260200182805460018160011615610100020316600290048015610af15780601f10610ac657610100808354040283529160200191610af1565b820191906000526020600020905b815481529060010190602001808311610ad457829003601f168201915b5050505050908060030154908060040160009054906101000a900473ffffffffffffffffffffffffffffffffffffffff16908060040160149054906101000a900460ff16905086565b610b4261224d565b600560008381526020019081526020016000206040518060c001604052908160008201548152602001600182018054600181600116156101000203166002900480601f016020809104026020016040519081016040528092919081815260200182805460018160011615610100020316600290048015610c035780601f10610bd857610100808354040283529160200191610c03565b820191906000526020600020905b815481529060010190602001808311610be657829003601f168201915b50505050508152602001600282015481526020016003820160009054906101000a900473ffffffffffffffffffffffffffffffffffffffff1673ffffffffffffffffffffffffffffffffffffffff1673ffffffffffffffffffffffffffffffffffffffff1681526020016003820160149054906101000a900460ff161515151581526020016003820160159054906101000a900460ff161515151581525050905060008160600151905060008260000151118015610cc75750600154826000015111155b610d39576040517f08c379a00000000000000000000000000000000000000000000000000000000081526004018080602001828103825260058152602001807f4572726f7200000000000000000000000000000000000000000000000000000081525060200191505060405180910390fd5b8160400151341015610db3576040517f08c379a00000000000000000000000000000000000000000000000000000000081526004018080602001828103825260058152602001807f4572726f7200000000000000000000000000000000000000000000000000000081525060200191505060405180910390fd5b816080015115610e2b576040517f08c379a00000000000000000000000000000000000000000000000000000000081526004018080602001828103825260058152602001807f4572726f7200000000000000000000000000000000000000000000000000000081525060200191505060405180910390fd5b3373ffffffffffffffffffffffffffffffffffffffff168173ffffffffffffffffffffffffffffffffffffffff161415610ecd576040517f08c379a00000000000000000000000000000000000000000000000000000000081526004018080602001828103825260058152602001807f4572726f7200000000000000000000000000000000000000000000000000000081525060200191505060405180910390fd5b33826060019073ffffffffffffffffffffffffffffffffffffffff16908173ffffffffffffffffffffffffffffffffffffffff1681525050600182608001901515908115158152505060008260a00190151590811515815250508160056000858152602001908152602001600020600082015181600001556020820151816001019080519060200190610f6192919061229d565b506040820151816002015560608201518160030160006101000a81548173ffffffffffffffffffffffffffffffffffffffff021916908373ffffffffffffffffffffffffffffffffffffffff16021790555060808201518160030160146101000a81548160ff02191690831515021790555060a08201518160030160156101000a81548160ff0219169083151502179055509050508073ffffffffffffffffffffffffffffffffffffffff166108fc349081150290604051600060405180830381858888f1935050505015801561103c573d6000803e3d6000fd5b507f79558d0d7d4d900e2f15c4cc0a665f1acdbe415e44de900ecdd1e5bf12b56f4e6001548360200151846040015133600160405180868152602001806020018581526020018473ffffffffffffffffffffffffffffffffffffffff1673ffffffffffffffffffffffffffffffffffffffff16815260200183151515158152602001828103825286818151815260200191508051906020019080838360005b838110156110f65780820151818401526020810190506110db565b50505050905090810190601f1680156111235780820380516001836020036101000a031916815260200191505b50965050505050505060405180910390a1505050565b6006602052806000526040600020600091509050806000015490806001018054600181600116156101000203166002900480601f0160208091040260200160405190810160405280929190818152602001828054600181600116156101000203166002900480156111eb5780601f106111c0576101008083540402835291602001916111eb565b820191906000526020600020905b8154815290600101906020018083116111ce57829003601f168201915b505050505090806002018054600181600116156101000203166002900480601f0160208091040260200160405190810160405280929190818152602001828054600181600116156101000203166002900480156112895780601f1061125e57610100808354040283529160200191611289565b820191906000526020600020905b81548152906001019060200180831161126c57829003601f168201915b5050505050908060030154908060040160009054906101000a900473ffffffffffffffffffffffffffffffffffffffff16908060040160149054906101000a900460ff16905086565b6005602052806000526040600020600091509050806000015490806001018054600181600116156101000203166002900480601f0160208091040260200160405190810160405280929190818152602001828054600181600116156101000203166002900480156113845780601f1061135957610100808354040283529160200191611384565b820191906000526020600020905b81548152906001019060200180831161136757829003601f168201915b5050505050908060020154908060030160009054906101000a900473ffffffffffffffffffffffffffffffffffffffff16908060030160149054906101000a900460ff16908060030160159054906101000a900460ff16905086565b6000825111611457576040517f08c379a00000000000000000000000000000000000000000000000000000000081526004018080602001828103825260058152602001807f4572726f7200000000000000000000000000000000000000000000000000000081525060200191505060405180910390fd5b600081116114cd576040517f08c379a00000000000000000000000000000000000000000000000000000000081526004018080602001828103825260058152602001807f4572726f7200000000000000000000000000000000000000000000000000000081525060200191505060405180910390fd5b60026000815480929190600101919050555060405180610100016040528060025481526020018381526020013373ffffffffffffffffffffffffffffffffffffffff16815260200182815260200160035481526020016001151581526020016000151581526020016000151581525060086000600254815260200190815260200160002060008201518160000155602082015181600101908051906020019061157792919061229d565b5060408201518160020160006101000a81548173ffffffffffffffffffffffffffffffffffffffff021916908373ffffffffffffffffffffffffffffffffffffffff160217905550606082015181600301556080820151816004015560a08201518160050160006101000a81548160ff02191690831515021790555060c08201518160050160016101000a81548160ff02191690831515021790555060e08201518160050160026101000a81548160ff0219169083151502179055509050507ff996a37debe4f145eac7f95ec785dcd059a5c3a642555a14adfa9d9308ec16b0600254838333600060405180868152602001806020018581526020018473ffffffffffffffffffffffffffffffffffffffff1673ffffffffffffffffffffffffffffffffffffffff16815260200183151515158152602001828103825286818151815260200191508051906020019080838360005b838110156116e75780820151818401526020810190506116cc565b50505050905090810190601f1680156117145780820380516001836020036101000a031916815260200191505b50965050505050505060405180910390a15050565b61173161231d565b600860008381526020019081526020016000206040518061010001604052908160008201548152602001600182018054600181600116156101000203166002900480601f0160208091040260200160405190810160405280929190818152602001828054600181600116156101000203166002900480156117f35780601f106117c8576101008083540402835291602001916117f3565b820191906000526020600020905b8154815290600101906020018083116117d657829003601f168201915b505050505081526020016002820160009054906101000a900473ffffffffffffffffffffffffffffffffffffffff1673ffffffffffffffffffffffffffffffffffffffff1673ffffffffffffffffffffffffffffffffffffffff16815260200160038201548152602001600482015481526020016005820160009054906101000a900460ff161515151581526020016005820160019054906101000a900460ff161515151581526020016005820160029054906101000a900460ff1615151515815250509050600081604001519050600082600001511180156118dc5750600254826000015111155b61194e576040517f08c379a00000000000000000000000000000000000000000000000000000000081526004018080602001828103825260058152602001807f4572726f7200000000000000000000000000000000000000000000000000000081525060200191505060405180910390fd5b81606001513410156119c8576040517f08c379a00000000000000000000000000000000000000000000000000000000081526004018080602001828103825260058152602001807f4572726f7200000000000000000000000000000000000000000000000000000081525060200191505060405180910390fd5b8160c0015115611a40576040517f08c379a00000000000000000000000000000000000000000000000000000000081526004018080602001828103825260058152602001807f4572726f7200000000000000000000000000000000000000000000000000000081525060200191505060405180910390fd5b8160a0015115611ab8576040517f08c379a00000000000000000000000000000000000000000000000000000000081526004018080602001828103825260058152602001807f4572726f7200000000000000000000000000000000000000000000000000000081525060200191505060405180910390fd5b3373ffffffffffffffffffffffffffffffffffffffff168173ffffffffffffffffffffffffffffffffffffffff161415611b5a576040517f08c379a00000000000000000000000000000000000000000000000000000000081526004018080602001828103825260058152602001807f4572726f7200000000000000000000000000000000000000000000000000000081525060200191505060405180910390fd5b33826040019073ffffffffffffffffffffffffffffffffffffffff16908173ffffffffffffffffffffffffffffffffffffffff168152505060018260c001901515908115158152505060018260a001901515908115158152505060008260e00190151590811515815250508160086000858152602001908152602001600020600082015181600001556020820151816001019080519060200190611bff92919061229d565b5060408201518160020160006101000a81548173ffffffffffffffffffffffffffffffffffffffff021916908373ffffffffffffffffffffffffffffffffffffffff160217905550606082015181600301556080820151816004015560a08201518160050160006101000a81548160ff02191690831515021790555060c08201518160050160016101000a81548160ff02191690831515021790555060e08201518160050160026101000a81548160ff0219169083151502179055509050508073ffffffffffffffffffffffffffffffffffffffff166108fc349081150290604051600060405180830381858888f19350505050158015611d04573d6000803e3d6000fd5b507fb8bb9c8459531555bee96c5c18394fdb8f7d323988aa700e810f4e75b5d9bb396002548360200151846060015133600160405180868152602001806020018581526020018473ffffffffffffffffffffffffffffffffffffffff1673ffffffffffffffffffffffffffffffffffffffff16815260200183151515158152602001828103825286818151815260200191508051906020019080838360005b83811015611dbe578082015181840152602081019050611da3565b50505050905090810190601f168015611deb5780820380516001836020036101000a031916815260200191505b50965050505050505060405180910390a1505050565b6008602052806000526040600020600091509050806000015490806001018054600181600116156101000203166002900480601f016020809104026020016040519081016040528092919081815260200182805460018160011615610100020316600290048015611eb35780601f10611e8857610100808354040283529160200191611eb3565b820191906000526020600020905b815481529060010190602001808311611e9657829003601f168201915b5050505050908060020160009054906101000a900473ffffffffffffffffffffffffffffffffffffffff16908060030154908060040154908060050160009054906101000a900460ff16908060050160019054906101000a900460ff16908060050160029054906101000a900460ff16905088565b60045481565b60025481565b60015481565b60035481565b6000825111611fb7576040517f08c379a00000000000000000000000000000000000000000000000000000000081526004018080602001828103825260058152602001807f4572726f7200000000000000000000000000000000000000000000000000000081525060200191505060405180910390fd5b6000811161202d576040517f08c379a00000000000000000000000000000000000000000000000000000000081526004018080602001828103825260058152602001807f4572726f7200000000000000000000000000000000000000000000000000000081525060200191505060405180910390fd5b6001600081548092919060010191905055506040518060c0016040528060015481526020018381526020018281526020013373ffffffffffffffffffffffffffffffffffffffff168152602001600015158152602001600015158152506005600060015481526020019081526020016000206000820151816000015560208201518160010190805190602001906120c592919061229d565b506040820151816002015560608201518160030160006101000a81548173ffffffffffffffffffffffffffffffffffffffff021916908373ffffffffffffffffffffffffffffffffffffffff16021790555060808201518160030160146101000a81548160ff02191690831515021790555060a08201518160030160156101000a81548160ff0219169083151502179055509050507fbc59c0c8165864dcceb377dd07d8f431d4303f8e501cb0a0374a10cc68d71836600154838333600060405180868152602001806020018581526020018473ffffffffffffffffffffffffffffffffffffffff1673ffffffffffffffffffffffffffffffffffffffff16815260200183151515158152602001828103825286818151815260200191508051906020019080838360005b8381101561220b5780820151818401526020810190506121f0565b50505050905090810190601f1680156122385780820380516001836020036101000a031916815260200191505b50965050505050505060405180910390a15050565b6040518060c00160405280600081526020016060815260200160008152602001600073ffffffffffffffffffffffffffffffffffffffff1681526020016000151581526020016000151581525090565b828054600181600116156101000203166002900490600052602060002090601f016020900481019282601f106122de57805160ff191683800117855561230c565b8280016001018555821561230c579182015b8281111561230b5782518255916020019190600101906122f0565b5b509050612319919061237e565b5090565b6040518061010001604052806000815260200160608152602001600073ffffffffffffffffffffffffffffffffffffffff16815260200160008152602001600081526020016000151581526020016000151581526020016000151581525090565b6123a091905b8082111561239c576000816000905550600101612384565b5090565b9056fea265627a7a723158208de4225ad1bbbc02f5aa0f92aa864e62bba52dde75ad94076068989eb2bb20b464736f6c63430005100032",
  "source": "pragma solidity ^0.5.16;\r\n/*\r\n1. We are using underscore prefix for all local variables.\r\n2. State variables do not.\r\n3.\r\n4.\r\n*/\r\ncontract Marketplace {\r\n    string public name;\r\n    uint public productCount = 0;\r\n    uint public policyCount = 0;\r\n\r\n    // Commissions and fees\r\n    uint256 public commission = 4; // 4%\r\n    uint256 public fee = 1; // 1%\r\n\r\n    // Mapping by id's (indexing the arrays).\r\n    mapping(uint => Product) public products;\r\n    mapping(uint => Agent) public agents;\r\n    mapping(uint => User) public users;\r\n    mapping(uint => Policy) public policies;\r\n\r\n    // Describe the User. The user in this case\r\n    // is the potential insured or buyer of the\r\n    // product. The end user.\r\n    struct User {\r\n        uint id;\r\n        string name;\r\n        string title;\r\n        uint commission;\r\n        address payable owner;\r\n        bool commissionPaid;\r\n    }\r\n     // Describe the Binder\r\n    struct Binder {\r\n        uint id;\r\n        string name;\r\n        uint price;\r\n        address payable owner;\r\n        bool available;\r\n    }\r\n\r\n    // Describe the Product\r\n    struct Product {\r\n        uint id;\r\n        string name;\r\n        uint price;\r\n        address payable owner;\r\n        bool purchased;\r\n        bool available;\r\n    }\r\n\r\n    // Describe the Agent\r\n    struct Agent {\r\n        uint id;\r\n        string name;\r\n        string title;\r\n        uint commission;\r\n        address payable owner;\r\n        bool commissionPaid;\r\n    }\r\n\r\n\r\n\r\n    event PolicyCreated(\r\n        uint id,\r\n        string name,\r\n        uint price,\r\n        address payable owner,\r\n        bool purchased\r\n    );\r\n\r\n    event ProductCreated(\r\n        uint id,\r\n        string name,\r\n        uint price,\r\n        address payable owner,\r\n        bool purchased\r\n    );\r\n\r\n    event ProductPurchased(\r\n        uint id,\r\n        string name,\r\n        uint price,\r\n        address payable owner,\r\n        bool purchased\r\n    );\r\n\r\n    event PolicyPurchased(\r\n        uint id,\r\n        string name,\r\n        uint price,\r\n        address payable owner,\r\n        bool purchased\r\n    );\r\n\r\n    // Describe the Policy\r\n    struct Policy {\r\n        uint id;\r\n        string policyNumber;\r\n        address payable owner;\r\n        uint price;\r\n        uint commission;\r\n        bool active;\r\n        bool purchased;\r\n        bool renewable;\r\n    }\r\n\r\n    constructor() public {\r\n        name = \"InsureNET Marketplace\";\r\n        //products = [];\r\n        //agents = [];\r\n        //users = [];\r\n    }\r\n\r\n    // Create a Policy\r\n    function createPolicy(\r\n        //string memory _name,\r\n        string memory _policyNumber,\r\n        uint _price\r\n    ) public {\r\n        // Validation\r\n        // Require a valid name\r\n        require(bytes(_policyNumber).length > 0, \"Error\");\r\n        require(_price > 0, \"Error\");\r\n\r\n        // ToDo:\r\n        // Add commision(s) and fee(s) and pay them out.\r\n\r\n        policyCount ++;\r\n\r\n        policies[policyCount] = Policy(policyCount, _policyNumber, msg.sender, _price, commission, true, false, false);\r\n\r\n        emit PolicyCreated(policyCount, _policyNumber, _price, msg.sender, false);\r\n    }\r\n\r\n    // ToDo: update from memory to store on the blockchain.\r\n    // Currently all the products get wiped out on restart.\r\n    function createProduct(string memory _name, uint _price) public {\r\n        // Require a valid name\r\n        require(bytes(_name).length > 0, \"Error\");\r\n        // Require a valid price\r\n        require(_price > 0, \"Error\");\r\n        // Increment product count\r\n        productCount ++;\r\n        // Create the product\r\n        products[productCount] = Product(productCount, _name, _price, msg.sender, false, false);\r\n        // Trigger an event\r\n        emit ProductCreated(productCount, _name, _price, msg.sender, false);\r\n    }\r\n\r\n    function purchasePolicy(uint _id) public payable {\r\n        // Fetch the product\r\n        // Create a copy in memory of a new Product (from struct above).\r\n        // This is not the actual product from blockchain. Remember were\r\n        // following _local naming convention.\r\n        Policy memory _policy = policies[_id];\r\n        // Fetch the owner\r\n        address payable _seller = _policy.owner;\r\n        // Make sure the product has a valid id\r\n        require(_policy.id > 0 && _policy.id <= policyCount, \"Error\");\r\n        // Require that there is enough Ether in the transaction\r\n        require(msg.value >= _policy.price, \"Error\");\r\n        // Require that the product has not been purchased already\r\n        require(!_policy.purchased, \"Error\");\r\n        // Require that the is active\r\n        require(!_policy.active, \"Error\");\r\n        // Require that the buyer is not the seller\r\n        require(_seller != msg.sender, \"Error\");\r\n        // Transfer ownership to the buyer\r\n        _policy.owner = msg.sender;\r\n        // Mark as purchased.\r\n        // ?? Is there anything else we can add here?\r\n        // Are there limitations, and what?\r\n        _policy.purchased = true;\r\n        _policy.active = true;\r\n        _policy.renewable = false; // set this default for testing\r\n\r\n        // Update the product. Put it back into the mapping.\r\n        policies[_id] = _policy;\r\n        // Pay the seller by sending them Ether\r\n        // The amount of Ethereum is the msg.value\r\n        address(_seller).transfer(msg.value);\r\n        // Trigger an event\r\n        emit PolicyPurchased(policyCount, _policy.policyNumber, _policy.price, msg.sender, true);\r\n    }\r\n\r\n    function purchaseProduct(uint _id) public payable {\r\n        // Fetch the product\r\n        // Create a copy in memory of a new Product (from struct above).\r\n        // This is not the actual product from blockchain. Remember were\r\n        // following _local naming convention.\r\n        Product memory _product = products[_id];\r\n        // Fetch the owner\r\n        address payable _seller = _product.owner;\r\n        // Make sure the product has a valid id\r\n        require(_product.id > 0 && _product.id <= productCount, \"Error\");\r\n        // Require that there is enough Ether in the transaction\r\n        // to cover the product price.\r\n        require(msg.value >= _product.price, \"Error\");\r\n        // Require that the product has not been purchased already\r\n        require(!_product.purchased, \"Error\");\r\n        // Require that the buyer is not the seller\r\n        require(_seller != msg.sender, \"Error\");\r\n\r\n        // Transfer ownership to the buyer\r\n        _product.owner = msg.sender;\r\n        // Mark as purchased.\r\n        // ?? Is there anything else we can add here?\r\n        // Are there limitations, and what?\r\n        _product.purchased = true;\r\n        _product.available = false;\r\n\r\n        // Update the product. Put it back into the mapping.\r\n        products[_id] = _product;\r\n        // Pay the seller by sending them Ether\r\n        // The amount of Ethereum is the msg.value\r\n        address(_seller).transfer(msg.value);\r\n        // Trigger an event\r\n        emit ProductPurchased(productCount, _product.name, _product.price, msg.sender, true);\r\n    }\r\n}",
  "sourcePath": "C:\\Projects\\InsureNET\\master-branch\\admin-tool\\src\\contracts\\Marketplace.sol",
  "compiler": {
    "name": "solc",
    "version": "0.5.16+commit.9c3226ce.Emscripten.clang"
  },
  "schemaVersion": "3.0.23",
  "updatedAt": "2020-05-08T21:51:30.668Z",
  "devdoc": {
    "methods": {}
  },
  "userdoc": {
    "methods": {}
  }
}