{
  "contractName": "PolicyCreator",
  "abi": [
    {
      "inputs": [],
      "payable": false,
      "stateMutability": "nonpayable",
      "type": "constructor"
    },
    {
      "anonymous": false,
      "inputs": [
        {
          "indexed": false,
          "internalType": "uint256",
          "name": "id",
          "type": "uint256"
        },
        {
          "indexed": false,
          "internalType": "string",
          "name": "name",
          "type": "string"
        },
        {
          "indexed": false,
          "internalType": "uint256",
          "name": "price",
          "type": "uint256"
        },
        {
          "indexed": false,
          "internalType": "uint256",
          "name": "converageAmount",
          "type": "uint256"
        },
        {
          "indexed": false,
          "internalType": "uint256",
          "name": "riskPoolRequirement",
          "type": "uint256"
        },
        {
          "indexed": false,
          "internalType": "address payable",
          "name": "policyHolder",
          "type": "address"
        },
        {
          "indexed": false,
          "internalType": "uint256",
          "name": "fee",
          "type": "uint256"
        },
        {
          "indexed": false,
          "internalType": "bool",
          "name": "active",
          "type": "bool"
        }
      ],
      "name": "PolicyCreated",
      "type": "event"
    },
    {
      "anonymous": false,
      "inputs": [
        {
          "indexed": false,
          "internalType": "string",
          "name": "reason",
          "type": "string"
        }
      ],
      "name": "PolicyDestroyed",
      "type": "event"
    },
    {
      "constant": true,
      "inputs": [],
      "name": "fee",
      "outputs": [
        {
          "internalType": "uint256",
          "name": "",
          "type": "uint256"
        }
      ],
      "payable": false,
      "stateMutability": "view",
      "type": "function"
    },
    {
      "constant": true,
      "inputs": [],
      "name": "policyCount",
      "outputs": [
        {
          "internalType": "uint256",
          "name": "",
          "type": "uint256"
        }
      ],
      "payable": false,
      "stateMutability": "view",
      "type": "function"
    },
    {
      "constant": true,
      "inputs": [],
      "name": "policyHolder",
      "outputs": [
        {
          "internalType": "address",
          "name": "",
          "type": "address"
        }
      ],
      "payable": false,
      "stateMutability": "view",
      "type": "function"
    },
    {
      "constant": false,
      "inputs": [
        {
          "internalType": "string",
          "name": "_name",
          "type": "string"
        },
        {
          "internalType": "address payable",
          "name": "_policyHolder",
          "type": "address"
        },
        {
          "internalType": "uint256",
          "name": "_price",
          "type": "uint256"
        },
        {
          "internalType": "uint256",
          "name": "_fee",
          "type": "uint256"
        },
        {
          "internalType": "uint256",
          "name": "_coverageAmt",
          "type": "uint256"
        },
        {
          "internalType": "uint256",
          "name": "_riskPoolAmtRqd",
          "type": "uint256"
        }
      ],
      "name": "createPolicy",
      "outputs": [],
      "payable": true,
      "stateMutability": "payable",
      "type": "function"
    },
    {
      "constant": false,
      "inputs": [],
      "name": "destroyPolicy",
      "outputs": [],
      "payable": false,
      "stateMutability": "nonpayable",
      "type": "function"
    }
  ],
  "bytecode": "0x608060405261060e60015534801561001657600080fd5b50610407806100266000396000f3fe60806040526004361061004a5760003560e01c8063202d301a1461004f5780633433d7011461015257806381f8ac8e14610169578063ddca3f43146101c0578063de54d429146101eb575b600080fd5b610150600480360360c081101561006557600080fd5b810190808035906020019064010000000081111561008257600080fd5b82018360208201111561009457600080fd5b803590602001918460018302840111640100000000831117156100b657600080fd5b91908080601f016020809104026020016040519081016040528093929190818152602001838380828437600081840152601f19601f820116905080830192505050505050509192919290803573ffffffffffffffffffffffffffffffffffffffff16906020019092919080359060200190929190803590602001909291908035906020019092919080359060200190929190505050610216565b005b34801561015e57600080fd5b50610167610337565b005b34801561017557600080fd5b5061017e6103a1565b604051808273ffffffffffffffffffffffffffffffffffffffff1673ffffffffffffffffffffffffffffffffffffffff16815260200191505060405180910390f35b3480156101cc57600080fd5b506101d56103c6565b6040518082815260200191505060405180910390f35b3480156101f757600080fd5b506102006103cc565b6040518082815260200191505060405180910390f35b6002600081548092919060010191905055507f82df08bef02ad46c5f0d547ab3b4c5831a47b9dac85f54ae38bc2c3a1f7e9308600254878685858a89600160405180898152602001806020018881526020018781526020018681526020018573ffffffffffffffffffffffffffffffffffffffff1673ffffffffffffffffffffffffffffffffffffffff16815260200184815260200183151515158152602001828103825289818151815260200191508051906020019080838360005b838110156102ee5780820151818401526020810190506102d3565b50505050905090810190601f16801561031b5780820380516001836020036101000a031916815260200191505b50995050505050505050505060405180910390a1505050505050565b7fb854d408981709638a788f4c013160169eb8b24d45ce28922f3d1b4afd8a897e60405180806020018281038252600c8152602001807f46656c74206c696b65206974000000000000000000000000000000000000000081525060200191505060405180910390a1565b6000809054906101000a900473ffffffffffffffffffffffffffffffffffffffff1681565b60015481565b6002548156fea265627a7a7231582097e7820c2d6c2931f63a130604b607b876fc51e905d6acf60bec21d63bd19a0f64736f6c63430005100032",
  "source": "/**\r\n * @title Policy Creator Contract\r\n * @dev InsureNET Decentralized Insurance Platform Policy Creator Contract.\r\n * @author Jason Romero\r\n * @copyright 2020 InsureNET\r\n */\r\n\r\npragma solidity ^0.5.0;\r\n\r\ncontract PolicyCreator {\r\n    // State parameters\r\n    address public policyHolder;\r\n    uint256 public fee = 1550;\r\n    uint256 public policyCount;\r\n\r\n    // Mappings\r\n\r\n\r\n    // Structs\r\n\r\n\r\n    // Events\r\n    event PolicyCreated (\r\n        uint id,\r\n        string name,\r\n        uint256 price,\r\n        uint256 converageAmount,\r\n        uint256 riskPoolRequirement,\r\n        address payable policyHolder,\r\n        uint256 fee,\r\n        bool active\r\n    );\r\n\r\n    event PolicyDestroyed (\r\n        string reason\r\n    );\r\n\r\n    /**\r\n    * @dev constructor\r\n    */\r\n    constructor() public {\r\n\r\n    }\r\n\r\n    /**\r\n    * @dev createPolicy\r\n    * @param _name name of the policy\r\n    * @param _policyHolder address of the policyHolder\r\n    * @param _price price of the policy\r\n    * @param _fee fee for InsureNET\r\n    * @param _coverageAmt coverage amount (amount of payout)\r\n    * @param _riskPoolAmtRqd the amount needed to cover this policies risk\r\n    *\r\n    */\r\n    function createPolicy (\r\n        string memory _name,\r\n        address payable _policyHolder,\r\n        uint256 _price,\r\n        uint256 _fee,\r\n        uint256 _coverageAmt,\r\n        uint256 _riskPoolAmtRqd\r\n    ) public payable {\r\n\r\n        policyCount ++;\r\n        // ToDo: how do I want to do the id?? uuid??? custom???\r\n        emit PolicyCreated(policyCount, _name, _price, _coverageAmt, _riskPoolAmtRqd, _policyHolder, _fee, true);\r\n    }\r\n\r\n\r\n    function destroyPolicy (\r\n\r\n    ) public {\r\n\r\n        emit PolicyDestroyed('Felt like it');\r\n    }\r\n\r\n}\r\n",
  "sourcePath": "C:\\Projects\\InsureNET\\master-branch\\admin-tool\\src\\contracts\\PolicyCreator.sol",
  "compiler": {
    "name": "solc",
    "version": "0.5.16+commit.9c3226ce.Emscripten.clang"
  },
  "schemaVersion": "3.0.23",
  "updatedAt": "2020-03-29T18:19:21.443Z",
  "networkType": "ethereum",
  "devdoc": {
    "methods": {
      "constructor": {
        "details": "constructor"
      },
      "createPolicy(string,address,uint256,uint256,uint256,uint256)": {
        "details": "createPolicy",
        "params": {
          "_coverageAmt": "coverage amount (amount of payout)",
          "_fee": "fee for InsureNET",
          "_name": "name of the policy",
          "_policyHolder": "address of the policyHolder",
          "_price": "price of the policy",
          "_riskPoolAmtRqd": "the amount needed to cover this policies risk     "
        }
      }
    }
  },
  "userdoc": {
    "methods": {}
  }
}