{
  "contractName": "PolicyCreator",
  "abi": [
    {
      "inputs": [],
      "payable": false,
      "stateMutability": "nonpayable",
      "type": "constructor"
    },
    {
      "anonymous": false,
      "inputs": [
        {
          "indexed": false,
          "internalType": "uint256",
          "name": "id",
          "type": "uint256"
        },
        {
          "indexed": false,
          "internalType": "string",
          "name": "name",
          "type": "string"
        },
        {
          "indexed": false,
          "internalType": "string",
          "name": "policyNumber",
          "type": "string"
        },
        {
          "indexed": false,
          "internalType": "uint256",
          "name": "price",
          "type": "uint256"
        },
        {
          "indexed": false,
          "internalType": "uint256",
          "name": "converageAmount",
          "type": "uint256"
        },
        {
          "indexed": false,
          "internalType": "uint256",
          "name": "riskPoolRequirement",
          "type": "uint256"
        },
        {
          "indexed": false,
          "internalType": "address payable",
          "name": "policyHolder",
          "type": "address"
        },
        {
          "indexed": false,
          "internalType": "uint256",
          "name": "fee",
          "type": "uint256"
        },
        {
          "indexed": false,
          "internalType": "bool",
          "name": "active",
          "type": "bool"
        }
      ],
      "name": "PolicyCreated",
      "type": "event"
    },
    {
      "anonymous": false,
      "inputs": [
        {
          "indexed": false,
          "internalType": "string",
          "name": "reason",
          "type": "string"
        }
      ],
      "name": "PolicyDestroyed",
      "type": "event"
    },
    {
      "constant": true,
      "inputs": [],
      "name": "fee",
      "outputs": [
        {
          "internalType": "uint256",
          "name": "",
          "type": "uint256"
        }
      ],
      "payable": false,
      "stateMutability": "view",
      "type": "function"
    },
    {
      "constant": true,
      "inputs": [],
      "name": "policyCount",
      "outputs": [
        {
          "internalType": "uint256",
          "name": "",
          "type": "uint256"
        }
      ],
      "payable": false,
      "stateMutability": "view",
      "type": "function"
    },
    {
      "constant": true,
      "inputs": [],
      "name": "policyHolder",
      "outputs": [
        {
          "internalType": "address",
          "name": "",
          "type": "address"
        }
      ],
      "payable": false,
      "stateMutability": "view",
      "type": "function"
    },
    {
      "constant": true,
      "inputs": [],
      "name": "policyHolderCount",
      "outputs": [
        {
          "internalType": "uint256",
          "name": "",
          "type": "uint256"
        }
      ],
      "payable": false,
      "stateMutability": "view",
      "type": "function"
    },
    {
      "constant": true,
      "inputs": [],
      "name": "riskPoolAmountRequired",
      "outputs": [
        {
          "internalType": "uint256",
          "name": "",
          "type": "uint256"
        }
      ],
      "payable": false,
      "stateMutability": "view",
      "type": "function"
    },
    {
      "constant": false,
      "inputs": [
        {
          "internalType": "string",
          "name": "_name",
          "type": "string"
        },
        {
          "internalType": "address payable",
          "name": "_policyHolder",
          "type": "address"
        },
        {
          "internalType": "uint256",
          "name": "_price",
          "type": "uint256"
        },
        {
          "internalType": "uint256",
          "name": "_fee",
          "type": "uint256"
        },
        {
          "internalType": "uint256",
          "name": "_coverageAmt",
          "type": "uint256"
        },
        {
          "internalType": "uint256",
          "name": "_riskPoolAmtRqd",
          "type": "uint256"
        }
      ],
      "name": "createPolicy",
      "outputs": [],
      "payable": true,
      "stateMutability": "payable",
      "type": "function"
    },
    {
      "constant": false,
      "inputs": [],
      "name": "destroyPolicy",
      "outputs": [],
      "payable": false,
      "stateMutability": "nonpayable",
      "type": "function"
    }
  ],
  "bytecode": "0x608060405261060e60025534801561001657600080fd5b506104c8806100266000396000f3fe6080604052600436106100705760003560e01c8063a1fdf65b1161004e578063a1fdf65b146101e6578063baf97c0614610211578063ddca3f431461023c578063de54d4291461026757610070565b8063202d301a146100755780633433d7011461017857806381f8ac8e1461018f575b600080fd5b610176600480360360c081101561008b57600080fd5b81019080803590602001906401000000008111156100a857600080fd5b8201836020820111156100ba57600080fd5b803590602001918460018302840111640100000000831117156100dc57600080fd5b91908080601f016020809104026020016040519081016040528093929190818152602001838380828437600081840152601f19601f820116905080830192505050505050509192919290803573ffffffffffffffffffffffffffffffffffffffff16906020019092919080359060200190929190803590602001909291908035906020019092919080359060200190929190505050610292565b005b34801561018457600080fd5b5061018d6103ec565b005b34801561019b57600080fd5b506101a4610456565b604051808273ffffffffffffffffffffffffffffffffffffffff1673ffffffffffffffffffffffffffffffffffffffff16815260200191505060405180910390f35b3480156101f257600080fd5b506101fb61047b565b6040518082815260200191505060405180910390f35b34801561021d57600080fd5b50610226610481565b6040518082815260200191505060405180910390f35b34801561024857600080fd5b50610251610487565b6040518082815260200191505060405180910390f35b34801561027357600080fd5b5061027c61048d565b6040518082815260200191505060405180910390f35b6003600081548092919060010191905055507f444d395fb980805f385c34edaad025ad3b9b4fa58b0a5f19d0c8c7c5a31a75dd600354878685858a8960016040518089815260200180602001806020018981526020018881526020018781526020018673ffffffffffffffffffffffffffffffffffffffff1673ffffffffffffffffffffffffffffffffffffffff1681526020018581526020018415151515815260200183810383528a818151815260200191508051906020019080838360005b8381101561036e578082015181840152602081019050610353565b50505050905090810190601f16801561039b5780820380516001836020036101000a031916815260200191505b508381038252600e8152602001807f3c506f6c6963794e756d6265723e0000000000000000000000000000000000008152506020019a505050505050505050505060405180910390a1505050505050565b7fb854d408981709638a788f4c013160169eb8b24d45ce28922f3d1b4afd8a897e60405180806020018281038252600c8152602001807f46656c74206c696b65206974000000000000000000000000000000000000000081525060200191505060405180910390a1565b6000809054906101000a900473ffffffffffffffffffffffffffffffffffffffff1681565b60045481565b60015481565b60025481565b6003548156fea265627a7a72315820f2844cffb9276db20ada3cbe618f91303f6db509e99b19eb4c700d572152299f64736f6c63430005100032",
  "source": "/**\n * @title Policy Creator Contract\n * @dev InsureNET Decentralized Insurance Platform Policy Creator Contract.\n * @author Jason Romero\n * @copyright 2020 InsureNET\n */\n\npragma solidity ^0.5.16;\n\ncontract PolicyCreator {\n    // State parameters\n    address public policyHolder;\n    uint256 public policyHolderCount;\n    uint256 public fee = 1550;\n    uint256 public policyCount;\n    // ToDo: Formula for this\n    uint256 public riskPoolAmountRequired;\n\n    // Mappings\n\n\n    // Structs\n    struct Policy {\n        uint id;\n        string name;\n        uint256 price;\n        uint256 converageAmount;\n        uint256 riskPoolRequirement;\n        address payable policyHolder;\n        uint256 fee;\n        bool active;\n    }\n\n  // the risk structure; this structure keeps track of the risk-\n  // specific parameters.\n  // several policies can share the same risk structure\n  // (typically same people in a specific geographic\n  // area [market] for a particular season)\n  struct Risk {\n    // 0 - Market, \"PR\" for pilot\n    bytes32 market;\n    // 1 - Season, the current year\n    bytes32 season;\n    // 2 - the event category that triggered payouts\n    bytes32 category;\n    // 3 - we limit the cumulated weighted premium to avoid cluster risks\n    uint cumulatedWeightedPremium;\n    // 4 - max cumulated Payout for this risk\n    uint premiumMultiplier;\n  }\n\n    // Events\n    event PolicyCreated (\n        uint id,\n        string name,\n        string policyNumber,\n        uint256 price,\n        uint256 converageAmount,\n        uint256 riskPoolRequirement,\n        address payable policyHolder,\n        uint256 fee,\n        bool active\n    );\n\n    event PolicyDestroyed (\n        string reason\n    );\n\n    /**\n    * @dev constructor\n    */\n    constructor() public {\n\n    }\n\n    /**\n    * @dev createPolicy\n    * @param _name name of the policy\n    * @param _policyHolder address of the policyHolder\n    * @param _price price of the policy\n    * @param _fee fee for InsureNET\n    * @param _coverageAmt coverage amount (amount of payout)\n    * @param _riskPoolAmtRqd the amount needed to cover this policies risk\n    *\n    */\n    function createPolicy (\n        string memory _name,\n        address payable _policyHolder,\n        uint256 _price,\n        uint256 _fee,\n        uint256 _coverageAmt,\n        uint256 _riskPoolAmtRqd\n    ) public payable {\n\n        policyCount ++;\n        // ToDo: how do I want to do the policyNumber?? uuid??? custom???\n        emit PolicyCreated(policyCount, _name, '<PolicyNumber>', _price, _coverageAmt, _riskPoolAmtRqd, _policyHolder, _fee, true);\n    }\n\n\n    function destroyPolicy (\n\n    ) public {\n\n        emit PolicyDestroyed('Felt like it');\n    }\n\n}\n",
  "sourcePath": "/Users/jaxcoder/Documents/Blockchain/InsureNET/applications/admin-tool/src/contracts/utility/PolicyCreator.sol",
  "compiler": {
    "name": "solc",
    "version": "0.5.16+commit.9c3226ce.Emscripten.clang"
  },
  "schemaVersion": "3.0.23",
  "updatedAt": "2020-04-01T00:42:21.047Z",
  "networkType": "ethereum",
  "devdoc": {
    "methods": {
      "constructor": {
        "details": "constructor"
      },
      "createPolicy(string,address,uint256,uint256,uint256,uint256)": {
        "details": "createPolicy",
        "params": {
          "_coverageAmt": "coverage amount (amount of payout)",
          "_fee": "fee for InsureNET",
          "_name": "name of the policy",
          "_policyHolder": "address of the policyHolder",
          "_price": "price of the policy",
          "_riskPoolAmtRqd": "the amount needed to cover this policies risk    "
        }
      }
    }
  },
  "userdoc": {
    "methods": {}
  }
}