{
  "contractName": "PolicyCreator",
  "abi": [
    {
      "inputs": [],
      "payable": false,
      "stateMutability": "nonpayable",
      "type": "constructor"
    },
    {
      "anonymous": false,
      "inputs": [
        {
          "indexed": false,
          "internalType": "uint256",
          "name": "id",
          "type": "uint256"
        },
        {
          "indexed": false,
          "internalType": "string",
          "name": "name",
          "type": "string"
        },
        {
          "indexed": false,
          "internalType": "uint256",
          "name": "price",
          "type": "uint256"
        },
        {
          "indexed": false,
          "internalType": "uint256",
          "name": "converageAmount",
          "type": "uint256"
        },
        {
          "indexed": false,
          "internalType": "address payable",
          "name": "policyHolder",
          "type": "address"
        },
        {
          "indexed": false,
          "internalType": "bool",
          "name": "active",
          "type": "bool"
        }
      ],
      "name": "PolicyCreated",
      "type": "event"
    },
    {
      "constant": true,
      "inputs": [],
      "name": "policyHolder",
      "outputs": [
        {
          "internalType": "address",
          "name": "",
          "type": "address"
        }
      ],
      "payable": false,
      "stateMutability": "view",
      "type": "function"
    },
    {
      "constant": false,
      "inputs": [
        {
          "internalType": "string",
          "name": "_name",
          "type": "string"
        },
        {
          "internalType": "address payable",
          "name": "_policyHolder",
          "type": "address"
        },
        {
          "internalType": "uint256",
          "name": "_price",
          "type": "uint256"
        },
        {
          "internalType": "uint256",
          "name": "_coverageAmt",
          "type": "uint256"
        },
        {
          "internalType": "uint256",
          "name": "_riskPoolAmt",
          "type": "uint256"
        }
      ],
      "name": "createPolicy",
      "outputs": [],
      "payable": true,
      "stateMutability": "payable",
      "type": "function"
    }
  ],
  "bytecode": "0x608060405234801561001057600080fd5b506102d5806100206000396000f3fe6080604052600436106100295760003560e01c80633121f2411461002e57806381f8ac8e14610127575b600080fd5b610125600480360360a081101561004457600080fd5b810190808035906020019064010000000081111561006157600080fd5b82018360208201111561007357600080fd5b8035906020019184600183028401116401000000008311171561009557600080fd5b91908080601f016020809104026020016040519081016040528093929190818152602001838380828437600081840152601f19601f820116905080830192505050505050509192919290803573ffffffffffffffffffffffffffffffffffffffff16906020019092919080359060200190929190803590602001909291908035906020019092919050505061017e565b005b34801561013357600080fd5b5061013c61027b565b604051808273ffffffffffffffffffffffffffffffffffffffff1673ffffffffffffffffffffffffffffffffffffffff16815260200191505060405180910390f35b7f80ea2d84118858145aa8d91c50bbc4aa23ec12572992c2ab17b065f2785b7b63600186858588600160405180878152602001806020018681526020018581526020018473ffffffffffffffffffffffffffffffffffffffff1673ffffffffffffffffffffffffffffffffffffffff16815260200183151515158152602001828103825287818151815260200191508051906020019080838360005b8381101561023557808201518184015260208101905061021a565b50505050905090810190601f1680156102625780820380516001836020036101000a031916815260200191505b5097505050505050505060405180910390a15050505050565b6000809054906101000a900473ffffffffffffffffffffffffffffffffffffffff168156fea265627a7a72315820bcbe8df6596004dadf5d2e6ca6a35fbf14305ab7ac93ad7fe4969be0c6f96b9f64736f6c63430005100032",
  "source": "/**\r\n * @title Policy Creator Contract\r\n * @dev InsureNET Decentralized Insurance Platform Policy Creator Contract.\r\n * @author Jason Romero\r\n * @copyright 2020 InsureNET\r\n */\r\n\r\npragma solidity ^0.5.0;\r\n\r\ncontract PolicyCreator {\r\n    // State parameters\r\n    address public policyHolder;\r\n\r\n    // Mappings\r\n    \r\n\r\n    // Structs\r\n\r\n\r\n    // Events\r\n    event PolicyCreated(\r\n        uint id,\r\n        string name,\r\n        uint256 price,\r\n        uint256 converageAmount,\r\n        address payable policyHolder,\r\n        bool active\r\n    );\r\n\r\n    /**\r\n    * @dev constructor\r\n    */\r\n    constructor() public {\r\n\r\n    }\r\n\r\n    function createPolicy (\r\n        string memory _name,\r\n        address payable _policyHolder,\r\n        uint256 _price,\r\n        uint256 _coverageAmt,\r\n        uint256 _riskPoolAmt\r\n    ) public payable {\r\n\r\n\r\n\r\n        emit PolicyCreated(1, _name, _price, _coverageAmt, _policyHolder, true);\r\n    }\r\n\r\n}\r\n",
  "sourcePath": "C:\\Projects\\InsureNET\\master-branch\\admin-tool\\src\\contracts\\PolicyCreator.sol",
  "compiler": {
    "name": "solc",
    "version": "0.5.16+commit.9c3226ce.Emscripten.clang"
  },
  "schemaVersion": "3.0.23",
  "updatedAt": "2020-03-29T17:12:39.287Z",
  "devdoc": {
    "methods": {
      "constructor": {
        "details": "constructor"
      }
    }
  },
  "userdoc": {
    "methods": {}
  }
}