{
  "contractName": "ProofOfExistence",
  "abi": [
    {
      "constant": true,
      "inputs": [],
      "name": "proof",
      "outputs": [
        {
          "internalType": "bytes32",
          "name": "",
          "type": "bytes32"
        }
      ],
      "payable": false,
      "stateMutability": "view",
      "type": "function"
    },
    {
      "constant": false,
      "inputs": [
        {
          "internalType": "string",
          "name": "_document",
          "type": "string"
        }
      ],
      "name": "notarize",
      "outputs": [
        {
          "internalType": "bytes32",
          "name": "",
          "type": "bytes32"
        }
      ],
      "payable": false,
      "stateMutability": "nonpayable",
      "type": "function"
    }
  ],
  "bytecode": "0x608060405234801561001057600080fd5b506102a9806100206000396000f3fe608060405234801561001057600080fd5b50600436106100365760003560e01c80637183616c1461003b578063faf924cf1461010a575b600080fd5b6100f46004803603602081101561005157600080fd5b810190808035906020019064010000000081111561006e57600080fd5b82018360208201111561008057600080fd5b803590602001918460018302840111640100000000831117156100a257600080fd5b91908080601f016020809104026020016040519081016040528093929190818152602001838380828437600081840152601f19601f820116905080830192505050505050509192919290505050610128565b6040518082815260200191505060405180910390f35b610112610143565b6040518082815260200191505060405180910390f35b600061013382610149565b6000819055506000549050919050565b60005481565b60006002826040516020018080602001828103825283818151815260200191508051906020019080838360005b83811015610191578082015181840152602081019050610176565b50505050905090810190601f1680156101be5780820380516001836020036101000a031916815260200191505b50925050506040516020818303038152906040526040518082805190602001908083835b6020831061020557805182526020820191506020810190506020830392506101e2565b6001836020036101000a038019825116818451168082178552505050505050905001915050602060405180830381855afa158015610247573d6000803e3d6000fd5b5050506040513d602081101561025c57600080fd5b8101908080519060200190929190505050905091905056fea265627a7a723158201718d078f145ba1ac5f523ab65540ea8a210937b180dd687e654a3d84910363064736f6c63430005100032",
  "source": "/**\n * @title Generic POE Contract\n * @dev InsureNET Decentralized Insurance Platform POE Contract.\n * @author Jason Romero\n * @copyright 2020 InsureNET\n */\n\npragma solidity ^0.5.16;\n\n// Proof of Existence contract, version 1\ncontract ProofOfExistence {\n  // state\n  bytes32 public proof;\n\n\n  // calculate and store the proof for a document\n  // *transactional function*\n  function notarize(\n    string memory _document\n  ) public returns (bytes32) {\n    proof = proofFor(_document);\n    return proof;\n  }\n\n\n  // helper function to get a document's sha256\n  // *read-only function*\n  function proofFor(\n    string memory _document\n  ) internal returns (bytes32) {\n    return sha256(abi.encode(_document));\n  }\n\n\n}",
  "sourcePath": "/home/jaxcoder/Projects/InetMaster/applications/admin-tool/src/contracts/utility/ProofOfExistence.sol",
  "compiler": {
    "name": "solc",
    "version": "0.5.16+commit.9c3226ce.Emscripten.clang"
  },
  "schemaVersion": "3.0.23",
  "updatedAt": "2020-04-18T18:34:24.999Z",
  "devdoc": {
    "methods": {}
  },
  "userdoc": {
    "methods": {}
  }
}