{
  "contractName": "SocialNetwork",
  "abi": [
    {
      "inputs": [],
      "payable": false,
      "stateMutability": "nonpayable",
      "type": "constructor"
    },
    {
      "anonymous": false,
      "inputs": [
        {
          "indexed": false,
          "internalType": "uint256",
          "name": "id",
          "type": "uint256"
        },
        {
          "indexed": false,
          "internalType": "address payable",
          "name": "author",
          "type": "address"
        },
        {
          "indexed": false,
          "internalType": "uint256",
          "name": "boostAmount",
          "type": "uint256"
        }
      ],
      "name": "PostBoosted",
      "type": "event"
    },
    {
      "anonymous": false,
      "inputs": [
        {
          "indexed": false,
          "internalType": "uint256",
          "name": "id",
          "type": "uint256"
        },
        {
          "indexed": false,
          "internalType": "string",
          "name": "content",
          "type": "string"
        },
        {
          "indexed": false,
          "internalType": "uint256",
          "name": "tipAmount",
          "type": "uint256"
        },
        {
          "indexed": false,
          "internalType": "uint256",
          "name": "boostAmount",
          "type": "uint256"
        },
        {
          "indexed": false,
          "internalType": "address payable",
          "name": "author",
          "type": "address"
        }
      ],
      "name": "PostCreated",
      "type": "event"
    },
    {
      "anonymous": false,
      "inputs": [
        {
          "indexed": false,
          "internalType": "uint256",
          "name": "id",
          "type": "uint256"
        },
        {
          "indexed": false,
          "internalType": "string",
          "name": "content",
          "type": "string"
        },
        {
          "indexed": false,
          "internalType": "uint256",
          "name": "tipAmount",
          "type": "uint256"
        },
        {
          "indexed": false,
          "internalType": "address payable",
          "name": "author",
          "type": "address"
        }
      ],
      "name": "PostTipped",
      "type": "event"
    },
    {
      "constant": true,
      "inputs": [],
      "name": "name",
      "outputs": [
        {
          "internalType": "string",
          "name": "",
          "type": "string"
        }
      ],
      "payable": false,
      "stateMutability": "view",
      "type": "function"
    },
    {
      "constant": true,
      "inputs": [],
      "name": "postCount",
      "outputs": [
        {
          "internalType": "uint256",
          "name": "",
          "type": "uint256"
        }
      ],
      "payable": false,
      "stateMutability": "view",
      "type": "function"
    },
    {
      "constant": true,
      "inputs": [
        {
          "internalType": "uint256",
          "name": "",
          "type": "uint256"
        }
      ],
      "name": "posts",
      "outputs": [
        {
          "internalType": "uint256",
          "name": "id",
          "type": "uint256"
        },
        {
          "internalType": "string",
          "name": "content",
          "type": "string"
        },
        {
          "internalType": "uint256",
          "name": "tipAmount",
          "type": "uint256"
        },
        {
          "internalType": "uint256",
          "name": "boostAmount",
          "type": "uint256"
        },
        {
          "internalType": "address payable",
          "name": "author",
          "type": "address"
        }
      ],
      "payable": false,
      "stateMutability": "view",
      "type": "function"
    },
    {
      "constant": false,
      "inputs": [
        {
          "internalType": "string",
          "name": "_content",
          "type": "string"
        }
      ],
      "name": "createPost",
      "outputs": [],
      "payable": false,
      "stateMutability": "nonpayable",
      "type": "function"
    },
    {
      "constant": false,
      "inputs": [
        {
          "internalType": "uint256",
          "name": "_id",
          "type": "uint256"
        }
      ],
      "name": "tipPost",
      "outputs": [],
      "payable": true,
      "stateMutability": "payable",
      "type": "function"
    },
    {
      "constant": false,
      "inputs": [
        {
          "internalType": "uint256",
          "name": "_id",
          "type": "uint256"
        }
      ],
      "name": "boostPost",
      "outputs": [],
      "payable": true,
      "stateMutability": "payable",
      "type": "function"
    }
  ],
  "bytecode": "0x6080604052600060015534801561001557600080fd5b506040518060400160405280601881526020017f496e737572654e455420536f6369616c204e6574776f726b000000000000000081525060009080519060200190610061929190610067565b5061010c565b828054600181600116156101000203166002900490600052602060002090601f016020900481019282601f106100a857805160ff19168380011785556100d6565b828001600101855582156100d6579182015b828111156100d55782518255916020019190600101906100ba565b5b5090506100e391906100e7565b5090565b61010991905b808211156101055760008160009055506001016100ed565b5090565b90565b610eda8061011b6000396000f3fe6080604052600436106100555760003560e01c806306fdde031461005a5780630b1e7f83146100ea57806317906c2e146101e657806374d3c1f8146102115780637d7fe5851461023f578063c7303c611461026d575b600080fd5b34801561006657600080fd5b5061006f610335565b6040518080602001828103825283818151815260200191508051906020019080838360005b838110156100af578082015181840152602081019050610094565b50505050905090810190601f1680156100dc5780820380516001836020036101000a031916815260200191505b509250505060405180910390f35b3480156100f657600080fd5b506101236004803603602081101561010d57600080fd5b81019080803590602001909291905050506103d3565b60405180868152602001806020018581526020018481526020018373ffffffffffffffffffffffffffffffffffffffff1673ffffffffffffffffffffffffffffffffffffffff168152602001828103825286818151815260200191508051906020019080838360005b838110156101a757808201518184015260208101905061018c565b50505050905090810190601f1680156101d45780820380516001836020036101000a031916815260200191505b50965050505050505060405180910390f35b3480156101f257600080fd5b506101fb6104c1565b6040518082815260200191505060405180910390f35b61023d6004803603602081101561022757600080fd5b81019080803590602001909291905050506104c7565b005b61026b6004803603602081101561025557600080fd5b8101908080359060200190929190505050610854565b005b34801561027957600080fd5b506103336004803603602081101561029057600080fd5b81019080803590602001906401000000008111156102ad57600080fd5b8201836020820111156102bf57600080fd5b803590602001918460018302840111640100000000831117156102e157600080fd5b91908080601f016020809104026020016040519081016040528093929190818152602001838380828437600081840152601f19601f820116905080830192505050505050509192919290505050610b23565b005b60008054600181600116156101000203166002900480601f0160208091040260200160405190810160405280929190818152602001828054600181600116156101000203166002900480156103cb5780601f106103a0576101008083540402835291602001916103cb565b820191906000526020600020905b8154815290600101906020018083116103ae57829003601f168201915b505050505081565b6002602052806000526040600020600091509050806000015490806001018054600181600116156101000203166002900480601f0160208091040260200160405190810160405280929190818152602001828054600181600116156101000203166002900480156104855780601f1061045a57610100808354040283529160200191610485565b820191906000526020600020905b81548152906001019060200180831161046857829003601f168201915b5050505050908060020154908060030154908060040160009054906101000a900473ffffffffffffffffffffffffffffffffffffffff16905085565b60015481565b6000811180156104d957506001548111155b61052e576040517f08c379a0000000000000000000000000000000000000000000000000000000008152600401808060200182810382526025815260200180610e606025913960400191505060405180910390fd5b610536610d75565b600260008381526020019081526020016000206040518060a001604052908160008201548152602001600182018054600181600116156101000203166002900480601f0160208091040260200160405190810160405280929190818152602001828054600181600116156101000203166002900480156105f75780601f106105cc576101008083540402835291602001916105f7565b820191906000526020600020905b8154815290600101906020018083116105da57829003601f168201915b5050505050815260200160028201548152602001600382015481526020016004820160009054906101000a900473ffffffffffffffffffffffffffffffffffffffff1673ffffffffffffffffffffffffffffffffffffffff1673ffffffffffffffffffffffffffffffffffffffff168152505090506000816080015190508073ffffffffffffffffffffffffffffffffffffffff166108fc349081150290604051600060405180830381858888f193505050501580156106bb573d6000803e3d6000fd5b50348260400151018260400181815250508160026000858152602001908152602001600020600082015181600001556020820151816001019080519060200190610706929190610dba565b50604082015181600201556060820151816003015560808201518160040160006101000a81548173ffffffffffffffffffffffffffffffffffffffff021916908373ffffffffffffffffffffffffffffffffffffffff1602179055509050507f20988fe475351e75813672abada1dddb7ac67cbbeb81e61e1160b8329d8cdf1c600154836020015184604001518460405180858152602001806020018481526020018373ffffffffffffffffffffffffffffffffffffffff1673ffffffffffffffffffffffffffffffffffffffff168152602001828103825285818151815260200191508051906020019080838360005b838110156108125780820151818401526020810190506107f7565b50505050905090810190601f16801561083f5780820380516001836020036101000a031916815260200191505b509550505050505060405180910390a1505050565b60008111801561086657506001548111155b6108bb576040517f08c379a0000000000000000000000000000000000000000000000000000000008152600401808060200182810382526021815260200180610e856021913960400191505060405180910390fd5b6108c3610d75565b600260008381526020019081526020016000206040518060a001604052908160008201548152602001600182018054600181600116156101000203166002900480601f0160208091040260200160405190810160405280929190818152602001828054600181600116156101000203166002900480156109845780601f1061095957610100808354040283529160200191610984565b820191906000526020600020905b81548152906001019060200180831161096757829003601f168201915b5050505050815260200160028201548152602001600382015481526020016004820160009054906101000a900473ffffffffffffffffffffffffffffffffffffffff1673ffffffffffffffffffffffffffffffffffffffff1673ffffffffffffffffffffffffffffffffffffffff16815250509050600081608001519050348260600151018260600181815250508160026000858152602001908152602001600020600082015181600001556020820151816001019080519060200190610a4c929190610dba565b50604082015181600201556060820151816003015560808201518160040160006101000a81548173ffffffffffffffffffffffffffffffffffffffff021916908373ffffffffffffffffffffffffffffffffffffffff1602179055509050507fbe48cdc44a4190186743199ad870143bb636c1aba8e2349acbee6e8e4bf0ade2833334604051808481526020018373ffffffffffffffffffffffffffffffffffffffff1673ffffffffffffffffffffffffffffffffffffffff168152602001828152602001935050505060405180910390a1505050565b6000815111610b9a576040517f08c379a000000000000000000000000000000000000000000000000000000000815260040180806020018281038252601c8152602001807f74686520636f6e7472616374206973206e6f74206465706c6f7965640000000081525060200191505060405180910390fd5b6001600081548092919060010191905055506040518060a00160405280600154815260200182815260200160008152602001600081526020013373ffffffffffffffffffffffffffffffffffffffff16815250600260006001548152602001908152602001600020600082015181600001556020820151816001019080519060200190610c28929190610dba565b50604082015181600201556060820151816003015560808201518160040160006101000a81548173ffffffffffffffffffffffffffffffffffffffff021916908373ffffffffffffffffffffffffffffffffffffffff1602179055509050507f60407612d370305dc6c1b08611e062b713b9c2e0c0dee29ff90a1325ba9ba24b600154826000803360405180868152602001806020018581526020018481526020018373ffffffffffffffffffffffffffffffffffffffff1673ffffffffffffffffffffffffffffffffffffffff168152602001828103825286818151815260200191508051906020019080838360005b83811015610d34578082015181840152602081019050610d19565b50505050905090810190601f168015610d615780820380516001836020036101000a031916815260200191505b50965050505050505060405180910390a150565b6040518060a0016040528060008152602001606081526020016000815260200160008152602001600073ffffffffffffffffffffffffffffffffffffffff1681525090565b828054600181600116156101000203166002900490600052602060002090601f016020900481019282601f10610dfb57805160ff1916838001178555610e29565b82800160010185558215610e29579182015b82811115610e28578251825591602001919060010190610e0d565b5b509050610e369190610e3a565b5090565b610e5c91905b80821115610e58576000816000905550600101610e40565b5090565b9056fe796f75206e65656420616e20696420746f20746970206120706f73742c206c6f6720696e2e796f75206e65656420616e20696420746f20626f6f7374206120706f73742e2e2ea265627a7a7231582038010e858dba6d8318e2030fe1b6e37e23554e42f157311335aa6dca93bfda1564736f6c63430005100032",
  "source": "pragma solidity ^0.5.0;\r\n\r\ncontract SocialNetwork {\r\n    string public name;\r\n    uint256 public postCount = 0;\r\n    mapping(uint256 => Post) public posts;\r\n\r\n    struct Post {\r\n        uint256 id;\r\n        string content;\r\n        uint256 tipAmount;\r\n        uint256 boostAmount;\r\n        address payable author;\r\n    }\r\n\r\n    event PostCreated(\r\n        uint256 id,\r\n        string content,\r\n        uint256 tipAmount,\r\n        uint256 boostAmount,\r\n        address payable author\r\n    );\r\n\r\n    event PostTipped(\r\n        uint256 id,\r\n        string content,\r\n        uint256 tipAmount,\r\n        address payable author\r\n    );\r\n\r\n    event PostBoosted(uint256 id, address payable author, uint256 boostAmount);\r\n\r\n    constructor() public {\r\n        name = \"InsureNET Social Network\";\r\n    }\r\n\r\n    function createPost(string memory _content) public {\r\n        // Require valid content\r\n        require(bytes(_content).length > 0, 'the contract is not deployed');\r\n        // Increment the post count\r\n        postCount++;\r\n        // Create the post\r\n        posts[postCount] = Post(postCount, _content, 0, 0, msg.sender);\r\n        // Trigger event\r\n        emit PostCreated(postCount, _content, 0, 0, msg.sender);\r\n    }\r\n\r\n    function tipPost(uint256 _id) public payable {\r\n        // Make sure the id is valid\r\n        require(_id > 0 && _id <= postCount, 'you need an id to tip a post, log in.');\r\n        // Fetch the post\r\n        Post memory _post = posts[_id];\r\n        // Fetch the author\r\n        address payable _author = _post.author;\r\n        // Pay the author by sending them Ether\r\n        address(_author).transfer(msg.value);\r\n        // Incremet the tip amount\r\n        _post.tipAmount = _post.tipAmount + msg.value;\r\n        // Update the post\r\n        posts[_id] = _post;\r\n        // Trigger an event\r\n        emit PostTipped(postCount, _post.content, _post.tipAmount, _author);\r\n    }\r\n\r\n    function boostPost(uint256 _id) public payable {\r\n        // check the id\r\n        require(_id > 0 && _id <= postCount, 'you need an id to boost a post...');\r\n        // Fetch the post\r\n        Post memory _post = posts[_id];\r\n        // Add the boosted amount to the post, not the author.\r\n        // the author will get a portion of this.\r\n        address payable _author = _post.author;\r\n        // todo: pay the post and subtract fees\r\n        // todo: address(_author).transfer(msg.value);\r\n        // Increment the boost amount\r\n        _post.boostAmount = _post.boostAmount + msg.value;\r\n        // Update the post\r\n        posts[_id] = _post;\r\n        // Trigger event\r\n        emit PostBoosted(_id, msg.sender, msg.value);\r\n    }\r\n\r\n}\r\n",
  "sourcePath": "C:\\Projects\\InsureNET\\master-branch\\admin-tool\\src\\contracts\\SocialNetwork.sol",
  "compiler": {
    "name": "solc",
    "version": "0.5.16+commit.9c3226ce.Emscripten.clang"
  },
  "schemaVersion": "3.0.23",
  "updatedAt": "2020-03-27T20:38:56.344Z",
  "networkType": "ethereum",
  "devdoc": {
    "methods": {}
  },
  "userdoc": {
    "methods": {}
  }
}