{
  "contractName": "Token",
  "abi": [
    {
      "inputs": [],
      "payable": false,
      "stateMutability": "nonpayable",
      "type": "constructor"
    },
    {
      "anonymous": false,
      "inputs": [
        {
          "indexed": true,
          "internalType": "address",
          "name": "_owner",
          "type": "address"
        },
        {
          "indexed": true,
          "internalType": "address",
          "name": "_spender",
          "type": "address"
        },
        {
          "indexed": false,
          "internalType": "uint256",
          "name": "_value",
          "type": "uint256"
        }
      ],
      "name": "Approval",
      "type": "event"
    },
    {
      "anonymous": false,
      "inputs": [
        {
          "indexed": true,
          "internalType": "address",
          "name": "_from",
          "type": "address"
        },
        {
          "indexed": true,
          "internalType": "address",
          "name": "_to",
          "type": "address"
        },
        {
          "indexed": false,
          "internalType": "uint256",
          "name": "_value",
          "type": "uint256"
        }
      ],
      "name": "Transfer",
      "type": "event"
    },
    {
      "constant": true,
      "inputs": [
        {
          "internalType": "address",
          "name": "",
          "type": "address"
        },
        {
          "internalType": "address",
          "name": "",
          "type": "address"
        }
      ],
      "name": "allowance",
      "outputs": [
        {
          "internalType": "uint256",
          "name": "",
          "type": "uint256"
        }
      ],
      "payable": false,
      "stateMutability": "view",
      "type": "function"
    },
    {
      "constant": true,
      "inputs": [
        {
          "internalType": "address",
          "name": "",
          "type": "address"
        }
      ],
      "name": "balanceOf",
      "outputs": [
        {
          "internalType": "uint256",
          "name": "",
          "type": "uint256"
        }
      ],
      "payable": false,
      "stateMutability": "view",
      "type": "function"
    },
    {
      "constant": true,
      "inputs": [],
      "name": "bountyDist",
      "outputs": [
        {
          "internalType": "uint256",
          "name": "",
          "type": "uint256"
        }
      ],
      "payable": false,
      "stateMutability": "view",
      "type": "function"
    },
    {
      "constant": true,
      "inputs": [],
      "name": "decimals",
      "outputs": [
        {
          "internalType": "uint8",
          "name": "",
          "type": "uint8"
        }
      ],
      "payable": false,
      "stateMutability": "view",
      "type": "function"
    },
    {
      "constant": true,
      "inputs": [],
      "name": "founder",
      "outputs": [
        {
          "internalType": "address",
          "name": "",
          "type": "address"
        }
      ],
      "payable": false,
      "stateMutability": "view",
      "type": "function"
    },
    {
      "constant": true,
      "inputs": [],
      "name": "foundersAddress",
      "outputs": [
        {
          "internalType": "string",
          "name": "",
          "type": "string"
        }
      ],
      "payable": false,
      "stateMutability": "view",
      "type": "function"
    },
    {
      "constant": true,
      "inputs": [],
      "name": "foundersDistribution",
      "outputs": [
        {
          "internalType": "uint256",
          "name": "",
          "type": "uint256"
        }
      ],
      "payable": false,
      "stateMutability": "view",
      "type": "function"
    },
    {
      "constant": true,
      "inputs": [],
      "name": "marketingDist",
      "outputs": [
        {
          "internalType": "uint256",
          "name": "",
          "type": "uint256"
        }
      ],
      "payable": false,
      "stateMutability": "view",
      "type": "function"
    },
    {
      "constant": true,
      "inputs": [],
      "name": "name",
      "outputs": [
        {
          "internalType": "string",
          "name": "",
          "type": "string"
        }
      ],
      "payable": false,
      "stateMutability": "view",
      "type": "function"
    },
    {
      "constant": true,
      "inputs": [],
      "name": "partner1",
      "outputs": [
        {
          "internalType": "string",
          "name": "",
          "type": "string"
        }
      ],
      "payable": false,
      "stateMutability": "view",
      "type": "function"
    },
    {
      "constant": true,
      "inputs": [],
      "name": "partner1Dist",
      "outputs": [
        {
          "internalType": "uint256",
          "name": "",
          "type": "uint256"
        }
      ],
      "payable": false,
      "stateMutability": "view",
      "type": "function"
    },
    {
      "constant": true,
      "inputs": [],
      "name": "partner2",
      "outputs": [
        {
          "internalType": "string",
          "name": "",
          "type": "string"
        }
      ],
      "payable": false,
      "stateMutability": "view",
      "type": "function"
    },
    {
      "constant": true,
      "inputs": [],
      "name": "partner2Dist",
      "outputs": [
        {
          "internalType": "uint256",
          "name": "",
          "type": "uint256"
        }
      ],
      "payable": false,
      "stateMutability": "view",
      "type": "function"
    },
    {
      "constant": true,
      "inputs": [],
      "name": "publicSaleDist",
      "outputs": [
        {
          "internalType": "uint256",
          "name": "",
          "type": "uint256"
        }
      ],
      "payable": false,
      "stateMutability": "view",
      "type": "function"
    },
    {
      "constant": true,
      "inputs": [],
      "name": "symbol",
      "outputs": [
        {
          "internalType": "string",
          "name": "",
          "type": "string"
        }
      ],
      "payable": false,
      "stateMutability": "view",
      "type": "function"
    },
    {
      "constant": true,
      "inputs": [],
      "name": "totalSupply",
      "outputs": [
        {
          "internalType": "uint256",
          "name": "",
          "type": "uint256"
        }
      ],
      "payable": false,
      "stateMutability": "view",
      "type": "function"
    },
    {
      "constant": false,
      "inputs": [
        {
          "internalType": "address",
          "name": "_to",
          "type": "address"
        },
        {
          "internalType": "uint256",
          "name": "_value",
          "type": "uint256"
        }
      ],
      "name": "transfer",
      "outputs": [
        {
          "internalType": "bool",
          "name": "success",
          "type": "bool"
        }
      ],
      "payable": false,
      "stateMutability": "nonpayable",
      "type": "function"
    },
    {
      "constant": false,
      "inputs": [
        {
          "internalType": "address",
          "name": "_spender",
          "type": "address"
        },
        {
          "internalType": "uint256",
          "name": "_value",
          "type": "uint256"
        }
      ],
      "name": "approve",
      "outputs": [
        {
          "internalType": "bool",
          "name": "success",
          "type": "bool"
        }
      ],
      "payable": false,
      "stateMutability": "nonpayable",
      "type": "function"
    },
    {
      "constant": false,
      "inputs": [
        {
          "internalType": "address",
          "name": "_from",
          "type": "address"
        },
        {
          "internalType": "address",
          "name": "_to",
          "type": "address"
        },
        {
          "internalType": "uint256",
          "name": "_value",
          "type": "uint256"
        }
      ],
      "name": "transferFrom",
      "outputs": [
        {
          "internalType": "bool",
          "name": "success",
          "type": "bool"
        }
      ],
      "payable": false,
      "stateMutability": "nonpayable",
      "type": "function"
    }
  ],
  "bytecode": "0x60806040526040518060400160405280600a81526020017f694e455420546f6b656e00000000000000000000000000000000000000000000815250600090805190602001906200005192919062000265565b506040518060400160405280600481526020017f694e455400000000000000000000000000000000000000000000000000000000815250600190805190602001906200009f92919062000265565b506b033b2e3c9fd0803ce80000006002556012600360006101000a81548160ff021916908360ff160217905550736f7d7d68c3eed4df81cf5f97582deef8abc51533600360016101000a81548173ffffffffffffffffffffffffffffffffffffffff021916908373ffffffffffffffffffffffffffffffffffffffff1602179055506040518060600160405280602a815260200162001424602a9139600490805190602001906200015292919062000265565b506a52b7d2dcc80cd2e400000060055560405180602001604052806000815250600690805190602001906200018992919062000265565b506040518060200160405280600081525060079080519060200190620001b192919062000265565b506a0c685fa11e01ec6f0000006008556a0c685fa11e01ec6f0000006009556a108b2a2c28029094000000600a556a52b7d2dcc80cd2e4000000600b556b026c62ad77dc602dae000000600c553480156200020b57600080fd5b506a52b7d2dcc80cd2e400000060025403600d60003373ffffffffffffffffffffffffffffffffffffffff1673ffffffffffffffffffffffffffffffffffffffff1681526020019081526020016000208190555062000314565b828054600181600116156101000203166002900490600052602060002090601f016020900481019282601f10620002a857805160ff1916838001178555620002d9565b82800160010185558215620002d9579182015b82811115620002d8578251825591602001919060010190620002bb565b5b509050620002e89190620002ec565b5090565b6200031191905b808211156200030d576000816000905550600101620002f3565b5090565b90565b61110080620003246000396000f3fe608060405234801561001057600080fd5b50600436106101215760003560e01c80638b35a244116100ad578063ccb0b0db11610071578063ccb0b0db146105c2578063dd62ed3e146105e0578063e121a7a914610658578063ebfdc65714610676578063f584f63b146106f957610121565b80638b35a244146103b557806395d89b4114610438578063a4c7c7b3146104bb578063a9059cbb1461053e578063ae4b9dd9146105a457610121565b8063313ce567116100f4578063313ce567146102b3578063424f8400146102d75780634d853ee5146102f557806370a082311461033f57806382c137fb1461039757610121565b806306fdde0314610126578063095ea7b3146101a957806318160ddd1461020f57806323b872dd1461022d575b600080fd5b61012e610717565b6040518080602001828103825283818151815260200191508051906020019080838360005b8381101561016e578082015181840152602081019050610153565b50505050905090810190601f16801561019b5780820380516001836020036101000a031916815260200191505b509250505060405180910390f35b6101f5600480360360408110156101bf57600080fd5b81019080803573ffffffffffffffffffffffffffffffffffffffff169060200190929190803590602001909291905050506107b5565b604051808215151515815260200191505060405180910390f35b6102176108a7565b6040518082815260200191505060405180910390f35b6102996004803603606081101561024357600080fd5b81019080803573ffffffffffffffffffffffffffffffffffffffff169060200190929190803573ffffffffffffffffffffffffffffffffffffffff169060200190929190803590602001909291905050506108ad565b604051808215151515815260200191505060405180910390f35b6102bb610bcd565b604051808260ff1660ff16815260200191505060405180910390f35b6102df610be0565b6040518082815260200191505060405180910390f35b6102fd610be6565b604051808273ffffffffffffffffffffffffffffffffffffffff1673ffffffffffffffffffffffffffffffffffffffff16815260200191505060405180910390f35b6103816004803603602081101561035557600080fd5b81019080803573ffffffffffffffffffffffffffffffffffffffff169060200190929190505050610c0c565b6040518082815260200191505060405180910390f35b61039f610c24565b6040518082815260200191505060405180910390f35b6103bd610c2a565b6040518080602001828103825283818151815260200191508051906020019080838360005b838110156103fd5780820151818401526020810190506103e2565b50505050905090810190601f16801561042a5780820380516001836020036101000a031916815260200191505b509250505060405180910390f35b610440610cc8565b6040518080602001828103825283818151815260200191508051906020019080838360005b83811015610480578082015181840152602081019050610465565b50505050905090810190601f1680156104ad5780820380516001836020036101000a031916815260200191505b509250505060405180910390f35b6104c3610d66565b6040518080602001828103825283818151815260200191508051906020019080838360005b838110156105035780820151818401526020810190506104e8565b50505050905090810190601f1680156105305780820380516001836020036101000a031916815260200191505b509250505060405180910390f35b61058a6004803603604081101561055457600080fd5b81019080803573ffffffffffffffffffffffffffffffffffffffff16906020019092919080359060200190929190505050610e04565b604051808215151515815260200191505060405180910390f35b6105ac610fc4565b6040518082815260200191505060405180910390f35b6105ca610fca565b6040518082815260200191505060405180910390f35b610642600480360360408110156105f657600080fd5b81019080803573ffffffffffffffffffffffffffffffffffffffff169060200190929190803573ffffffffffffffffffffffffffffffffffffffff169060200190929190505050610fd0565b6040518082815260200191505060405180910390f35b610660610ff5565b6040518082815260200191505060405180910390f35b61067e610ffb565b6040518080602001828103825283818151815260200191508051906020019080838360005b838110156106be5780820151818401526020810190506106a3565b50505050905090810190601f1680156106eb5780820380516001836020036101000a031916815260200191505b509250505060405180910390f35b610701611099565b6040518082815260200191505060405180910390f35b60008054600181600116156101000203166002900480601f0160208091040260200160405190810160405280929190818152602001828054600181600116156101000203166002900480156107ad5780601f10610782576101008083540402835291602001916107ad565b820191906000526020600020905b81548152906001019060200180831161079057829003601f168201915b505050505081565b600081600e60003373ffffffffffffffffffffffffffffffffffffffff1673ffffffffffffffffffffffffffffffffffffffff16815260200190815260200160002060008573ffffffffffffffffffffffffffffffffffffffff1673ffffffffffffffffffffffffffffffffffffffff168152602001908152602001600020819055508273ffffffffffffffffffffffffffffffffffffffff163373ffffffffffffffffffffffffffffffffffffffff167f8c5be1e5ebec7d5bd14f71427d1e84f3dd0314c0f7b2291e5b200ac8c7c3b925846040518082815260200191505060405180910390a36001905092915050565b60025481565b6000600d60008573ffffffffffffffffffffffffffffffffffffffff1673ffffffffffffffffffffffffffffffffffffffff16815260200190815260200160002054821115610964576040517f08c379a00000000000000000000000000000000000000000000000000000000081526004018080602001828103825260108152602001807f6e6f7420656e6f7567682065746865720000000000000000000000000000000081525060200191505060405180910390fd5b600e60008573ffffffffffffffffffffffffffffffffffffffff1673ffffffffffffffffffffffffffffffffffffffff16815260200190815260200160002060003373ffffffffffffffffffffffffffffffffffffffff1673ffffffffffffffffffffffffffffffffffffffff16815260200190815260200160002054821115610a39576040517f08c379a000000000000000000000000000000000000000000000000000000000815260040180806020018281038252602c8152602001806110a0602c913960400191505060405180910390fd5b81600d60008673ffffffffffffffffffffffffffffffffffffffff1673ffffffffffffffffffffffffffffffffffffffff1681526020019081526020016000206000828254039250508190555081600d60008573ffffffffffffffffffffffffffffffffffffffff1673ffffffffffffffffffffffffffffffffffffffff1681526020019081526020016000206000828254019250508190555081600e60008673ffffffffffffffffffffffffffffffffffffffff1673ffffffffffffffffffffffffffffffffffffffff16815260200190815260200160002060003373ffffffffffffffffffffffffffffffffffffffff1673ffffffffffffffffffffffffffffffffffffffff168152602001908152602001600020600082825403925050819055508273ffffffffffffffffffffffffffffffffffffffff168473ffffffffffffffffffffffffffffffffffffffff167fddf252ad1be2c89b69c2b068fc378daa952ba7f163c4a11628f55a4df523b3ef846040518082815260200191505060405180910390a3600190509392505050565b600360009054906101000a900460ff1681565b60095481565b600360019054906101000a900473ffffffffffffffffffffffffffffffffffffffff1681565b600d6020528060005260406000206000915090505481565b60055481565b60078054600181600116156101000203166002900480601f016020809104026020016040519081016040528092919081815260200182805460018160011615610100020316600290048015610cc05780601f10610c9557610100808354040283529160200191610cc0565b820191906000526020600020905b815481529060010190602001808311610ca357829003601f168201915b505050505081565b60018054600181600116156101000203166002900480601f016020809104026020016040519081016040528092919081815260200182805460018160011615610100020316600290048015610d5e5780601f10610d3357610100808354040283529160200191610d5e565b820191906000526020600020905b815481529060010190602001808311610d4157829003601f168201915b505050505081565b60068054600181600116156101000203166002900480601f016020809104026020016040519081016040528092919081815260200182805460018160011615610100020316600290048015610dfc5780601f10610dd157610100808354040283529160200191610dfc565b820191906000526020600020905b815481529060010190602001808311610ddf57829003601f168201915b505050505081565b600081600d60003373ffffffffffffffffffffffffffffffffffffffff1673ffffffffffffffffffffffffffffffffffffffff168152602001908152602001600020541015610ebb576040517f08c379a00000000000000000000000000000000000000000000000000000000081526004018080602001828103825260138152602001807f796f75206e656564206d6f72652065746865720000000000000000000000000081525060200191505060405180910390fd5b81600d60003373ffffffffffffffffffffffffffffffffffffffff1673ffffffffffffffffffffffffffffffffffffffff1681526020019081526020016000206000828254039250508190555081600d60008573ffffffffffffffffffffffffffffffffffffffff1673ffffffffffffffffffffffffffffffffffffffff168152602001908152602001600020600082825401925050819055508273ffffffffffffffffffffffffffffffffffffffff163373ffffffffffffffffffffffffffffffffffffffff167fddf252ad1be2c89b69c2b068fc378daa952ba7f163c4a11628f55a4df523b3ef846040518082815260200191505060405180910390a36001905092915050565b600c5481565b600a5481565b600e602052816000526040600020602052806000526040600020600091509150505481565b600b5481565b60048054600181600116156101000203166002900480601f0160208091040260200160405190810160405280929190818152602001828054600181600116156101000203166002900480156110915780601f1061106657610100808354040283529160200191611091565b820191906000526020600020905b81548152906001019060200180831161107457829003601f168201915b505050505081565b6008548156fe796f7520617265206e6f7420616c6c6f77656420746f207370656e64207468617420616d6f756e7420796574a265627a7a72315820dca0920596918ab22a8d32a755a0adcdc2d358e6ab8efa24bc61a8f6391bb57564736f6c63430005100032307836463764376436386333456564344466383143463546393735383264656566384142433531353333",
  "source": "/**\r\n * @title Token Contract\r\n * @dev InsureNET Decentralized Insurance Platform Token Contract.\r\n * @author Jason Romero\r\n * @copyright 2020 InsureNET\r\n */\r\n\r\npragma solidity ^0.5.0;\r\n\r\n/**\r\n* @dev iNET Token Contract\r\n*\r\n* todo: make the token pausable so it must be held for a specified period of time.\r\n*\r\n*/\r\ncontract Token {\r\n    string  public name = \"iNET Token\";\r\n    string  public symbol = \"iNET\";\r\n    uint256 public totalSupply = 1000000000000000000000000000; // 1 Billion tokens\r\n    uint8   public decimals = 18;\r\n\r\n    /**\r\n    * @dev all distribution will add up to the 1 Billion tokens minted.\r\n    */\r\n    // Founder\r\n    address public founder  = 0x6F7d7d68c3Eed4Df81CF5F97582deef8ABC51533;\r\n    string public foundersAddress = '0x6F7d7d68c3Eed4Df81CF5F97582deef8ABC51533';\r\n    uint256 public foundersDistribution = 100000000000000000000000000; // 100 Million Tokens\r\n\r\n    // Partners, Bounties and Marketing\r\n    string public partner1 = '';\r\n    string public partner2 = '';\r\n    uint256 public partner1Dist = 15000000000000000000000000 ; // 15 Million\r\n    uint256 public partner2Dist = 15000000000000000000000000; // 15 Million\r\n    uint256 public bountyDist = 20000000000000000000000000; // 20 Million\r\n    uint256 public marketingDist = 100000000000000000000000000; // 100 Million\r\n\r\n    // Public Sale\r\n    uint256 public publicSaleDist = 750000000000000000000000000; // 750 Million\r\n\r\n    event Transfer(\r\n        address indexed _from,\r\n        address indexed _to,\r\n        uint256 _value\r\n    );\r\n\r\n    event Approval(\r\n        address indexed _owner,\r\n        address indexed _spender,\r\n        uint256 _value\r\n    );\r\n\r\n    mapping(address => uint256) public balanceOf;\r\n    mapping(address => mapping(address => uint256)) public allowance;\r\n\r\n    constructor() public {\r\n        balanceOf[msg.sender] = totalSupply - 100000000000000000000000000; // 1 Billion\r\n    }\r\n\r\n\r\n    function transfer(address _to, uint256 _value) public returns (bool success) {\r\n        require(balanceOf[msg.sender] >= _value, 'you need more ether');\r\n        balanceOf[msg.sender] -= _value;\r\n        balanceOf[_to] += _value;\r\n        emit Transfer(msg.sender, _to, _value);\r\n        return true;\r\n    }\r\n\r\n\r\n    function approve(address _spender, uint256 _value) public returns (bool success) {\r\n        allowance[msg.sender][_spender] = _value;\r\n        emit Approval(msg.sender, _spender, _value);\r\n        return true;\r\n    }\r\n\r\n\r\n    function transferFrom(address _from, address _to, uint256 _value) public returns (bool success) {\r\n        require(_value <= balanceOf[_from], 'not enough ether');\r\n        require(_value <= allowance[_from][msg.sender], 'you are not allowed to spend that amount yet');\r\n        balanceOf[_from] -= _value;\r\n        balanceOf[_to] += _value;\r\n        allowance[_from][msg.sender] -= _value;\r\n        emit Transfer(_from, _to, _value);\r\n        return true;\r\n    }\r\n}",
  "sourcePath": "C:\\Projects\\InsureNET\\master-branch\\admin-tool\\src\\contracts\\Token.sol",
  "compiler": {
    "name": "solc",
    "version": "0.5.16+commit.9c3226ce.Emscripten.clang"
  },
  "schemaVersion": "3.0.23",
  "updatedAt": "2020-03-31T19:50:37.597Z",
  "devdoc": {
    "details": "iNET Token Contract  * todo: make the token pausable so it must be held for a specified period of time. ",
    "methods": {}
  },
  "userdoc": {
    "methods": {}
  }
}