{
  "contractName": "Token",
  "abi": [
    {
      "inputs": [],
      "payable": false,
      "stateMutability": "nonpayable",
      "type": "constructor"
    },
    {
      "anonymous": false,
      "inputs": [
        {
          "indexed": true,
          "internalType": "address",
          "name": "_owner",
          "type": "address"
        },
        {
          "indexed": true,
          "internalType": "address",
          "name": "_spender",
          "type": "address"
        },
        {
          "indexed": false,
          "internalType": "uint256",
          "name": "_value",
          "type": "uint256"
        }
      ],
      "name": "Approval",
      "type": "event"
    },
    {
      "anonymous": false,
      "inputs": [
        {
          "indexed": true,
          "internalType": "address",
          "name": "_from",
          "type": "address"
        },
        {
          "indexed": true,
          "internalType": "address",
          "name": "_to",
          "type": "address"
        },
        {
          "indexed": false,
          "internalType": "uint256",
          "name": "_value",
          "type": "uint256"
        }
      ],
      "name": "Transfer",
      "type": "event"
    },
    {
      "constant": true,
      "inputs": [
        {
          "internalType": "address",
          "name": "",
          "type": "address"
        },
        {
          "internalType": "address",
          "name": "",
          "type": "address"
        }
      ],
      "name": "allowance",
      "outputs": [
        {
          "internalType": "uint256",
          "name": "",
          "type": "uint256"
        }
      ],
      "payable": false,
      "stateMutability": "view",
      "type": "function"
    },
    {
      "constant": true,
      "inputs": [
        {
          "internalType": "address",
          "name": "",
          "type": "address"
        }
      ],
      "name": "balanceOf",
      "outputs": [
        {
          "internalType": "uint256",
          "name": "",
          "type": "uint256"
        }
      ],
      "payable": false,
      "stateMutability": "view",
      "type": "function"
    },
    {
      "constant": true,
      "inputs": [],
      "name": "bountyDist",
      "outputs": [
        {
          "internalType": "uint256",
          "name": "",
          "type": "uint256"
        }
      ],
      "payable": false,
      "stateMutability": "view",
      "type": "function"
    },
    {
      "constant": true,
      "inputs": [],
      "name": "decimals",
      "outputs": [
        {
          "internalType": "uint8",
          "name": "",
          "type": "uint8"
        }
      ],
      "payable": false,
      "stateMutability": "view",
      "type": "function"
    },
    {
      "constant": true,
      "inputs": [],
      "name": "foundersAddress",
      "outputs": [
        {
          "internalType": "string",
          "name": "",
          "type": "string"
        }
      ],
      "payable": false,
      "stateMutability": "view",
      "type": "function"
    },
    {
      "constant": true,
      "inputs": [],
      "name": "foundersDistribution",
      "outputs": [
        {
          "internalType": "uint256",
          "name": "",
          "type": "uint256"
        }
      ],
      "payable": false,
      "stateMutability": "view",
      "type": "function"
    },
    {
      "constant": true,
      "inputs": [],
      "name": "marketingDist",
      "outputs": [
        {
          "internalType": "uint256",
          "name": "",
          "type": "uint256"
        }
      ],
      "payable": false,
      "stateMutability": "view",
      "type": "function"
    },
    {
      "constant": true,
      "inputs": [],
      "name": "name",
      "outputs": [
        {
          "internalType": "string",
          "name": "",
          "type": "string"
        }
      ],
      "payable": false,
      "stateMutability": "view",
      "type": "function"
    },
    {
      "constant": true,
      "inputs": [],
      "name": "partner1",
      "outputs": [
        {
          "internalType": "string",
          "name": "",
          "type": "string"
        }
      ],
      "payable": false,
      "stateMutability": "view",
      "type": "function"
    },
    {
      "constant": true,
      "inputs": [],
      "name": "partner1Dist",
      "outputs": [
        {
          "internalType": "uint256",
          "name": "",
          "type": "uint256"
        }
      ],
      "payable": false,
      "stateMutability": "view",
      "type": "function"
    },
    {
      "constant": true,
      "inputs": [],
      "name": "partner2",
      "outputs": [
        {
          "internalType": "string",
          "name": "",
          "type": "string"
        }
      ],
      "payable": false,
      "stateMutability": "view",
      "type": "function"
    },
    {
      "constant": true,
      "inputs": [],
      "name": "partner2Dist",
      "outputs": [
        {
          "internalType": "uint256",
          "name": "",
          "type": "uint256"
        }
      ],
      "payable": false,
      "stateMutability": "view",
      "type": "function"
    },
    {
      "constant": true,
      "inputs": [],
      "name": "publicSaleDist",
      "outputs": [
        {
          "internalType": "uint256",
          "name": "",
          "type": "uint256"
        }
      ],
      "payable": false,
      "stateMutability": "view",
      "type": "function"
    },
    {
      "constant": true,
      "inputs": [],
      "name": "symbol",
      "outputs": [
        {
          "internalType": "string",
          "name": "",
          "type": "string"
        }
      ],
      "payable": false,
      "stateMutability": "view",
      "type": "function"
    },
    {
      "constant": true,
      "inputs": [],
      "name": "totalSupply",
      "outputs": [
        {
          "internalType": "uint256",
          "name": "",
          "type": "uint256"
        }
      ],
      "payable": false,
      "stateMutability": "view",
      "type": "function"
    },
    {
      "constant": false,
      "inputs": [
        {
          "internalType": "address",
          "name": "_to",
          "type": "address"
        },
        {
          "internalType": "uint256",
          "name": "_value",
          "type": "uint256"
        }
      ],
      "name": "transfer",
      "outputs": [
        {
          "internalType": "bool",
          "name": "success",
          "type": "bool"
        }
      ],
      "payable": false,
      "stateMutability": "nonpayable",
      "type": "function"
    },
    {
      "constant": false,
      "inputs": [
        {
          "internalType": "address",
          "name": "_spender",
          "type": "address"
        },
        {
          "internalType": "uint256",
          "name": "_value",
          "type": "uint256"
        }
      ],
      "name": "approve",
      "outputs": [
        {
          "internalType": "bool",
          "name": "success",
          "type": "bool"
        }
      ],
      "payable": false,
      "stateMutability": "nonpayable",
      "type": "function"
    },
    {
      "constant": false,
      "inputs": [
        {
          "internalType": "address",
          "name": "_from",
          "type": "address"
        },
        {
          "internalType": "address",
          "name": "_to",
          "type": "address"
        },
        {
          "internalType": "uint256",
          "name": "_value",
          "type": "uint256"
        }
      ],
      "name": "transferFrom",
      "outputs": [
        {
          "internalType": "bool",
          "name": "success",
          "type": "bool"
        }
      ],
      "payable": false,
      "stateMutability": "nonpayable",
      "type": "function"
    }
  ],
  "bytecode": "0x60806040526040518060400160405280600a81526020017f694e455420546f6b656e00000000000000000000000000000000000000000000815250600090805190602001906200005192919062000208565b506040518060400160405280600481526020017f694e455400000000000000000000000000000000000000000000000000000000815250600190805190602001906200009f92919062000208565b506a52b7d2dcc80cd2e40000006002556012600360006101000a81548160ff021916908360ff1602179055506040518060600160405280602a81526020016200134c602a913960049080519060200190620000fc92919062000208565b5069d3c21bcecceda100000060055560405180602001604052806000815250600690805190602001906200013292919062000208565b5060405180602001604052806000815250600790805190602001906200015a92919062000208565b50691fc3842bd1f071c00000600855691fc3842bd1f071c0000060095569152d02c7e14af6800000600a5569d3c21bcecceda1000000600b556a3e09de2596099e2b000000600c55348015620001af57600080fd5b5069d3c21bcecceda100000060025403600d60003373ffffffffffffffffffffffffffffffffffffffff1673ffffffffffffffffffffffffffffffffffffffff16815260200190815260200160002081905550620002b7565b828054600181600116156101000203166002900490600052602060002090601f016020900481019282601f106200024b57805160ff19168380011785556200027c565b828001600101855582156200027c579182015b828111156200027b5782518255916020019190600101906200025e565b5b5090506200028b91906200028f565b5090565b620002b491905b80821115620002b057600081600090555060010162000296565b5090565b90565b61108580620002c76000396000f3fe608060405234801561001057600080fd5b50600436106101165760003560e01c806395d89b41116100a2578063ccb0b0db11610071578063ccb0b0db1461056d578063dd62ed3e1461058b578063e121a7a914610603578063ebfdc65714610621578063f584f63b146106a457610116565b806395d89b41146103e3578063a4c7c7b314610466578063a9059cbb146104e9578063ae4b9dd91461054f57610116565b8063313ce567116100e9578063313ce567146102a8578063424f8400146102cc57806370a08231146102ea57806382c137fb146103425780638b35a2441461036057610116565b806306fdde031461011b578063095ea7b31461019e57806318160ddd1461020457806323b872dd14610222575b600080fd5b6101236106c2565b6040518080602001828103825283818151815260200191508051906020019080838360005b83811015610163578082015181840152602081019050610148565b50505050905090810190601f1680156101905780820380516001836020036101000a031916815260200191505b509250505060405180910390f35b6101ea600480360360408110156101b457600080fd5b81019080803573ffffffffffffffffffffffffffffffffffffffff16906020019092919080359060200190929190505050610760565b604051808215151515815260200191505060405180910390f35b61020c610852565b6040518082815260200191505060405180910390f35b61028e6004803603606081101561023857600080fd5b81019080803573ffffffffffffffffffffffffffffffffffffffff169060200190929190803573ffffffffffffffffffffffffffffffffffffffff16906020019092919080359060200190929190505050610858565b604051808215151515815260200191505060405180910390f35b6102b0610b78565b604051808260ff1660ff16815260200191505060405180910390f35b6102d4610b8b565b6040518082815260200191505060405180910390f35b61032c6004803603602081101561030057600080fd5b81019080803573ffffffffffffffffffffffffffffffffffffffff169060200190929190505050610b91565b6040518082815260200191505060405180910390f35b61034a610ba9565b6040518082815260200191505060405180910390f35b610368610baf565b6040518080602001828103825283818151815260200191508051906020019080838360005b838110156103a857808201518184015260208101905061038d565b50505050905090810190601f1680156103d55780820380516001836020036101000a031916815260200191505b509250505060405180910390f35b6103eb610c4d565b6040518080602001828103825283818151815260200191508051906020019080838360005b8381101561042b578082015181840152602081019050610410565b50505050905090810190601f1680156104585780820380516001836020036101000a031916815260200191505b509250505060405180910390f35b61046e610ceb565b6040518080602001828103825283818151815260200191508051906020019080838360005b838110156104ae578082015181840152602081019050610493565b50505050905090810190601f1680156104db5780820380516001836020036101000a031916815260200191505b509250505060405180910390f35b610535600480360360408110156104ff57600080fd5b81019080803573ffffffffffffffffffffffffffffffffffffffff16906020019092919080359060200190929190505050610d89565b604051808215151515815260200191505060405180910390f35b610557610f49565b6040518082815260200191505060405180910390f35b610575610f4f565b6040518082815260200191505060405180910390f35b6105ed600480360360408110156105a157600080fd5b81019080803573ffffffffffffffffffffffffffffffffffffffff169060200190929190803573ffffffffffffffffffffffffffffffffffffffff169060200190929190505050610f55565b6040518082815260200191505060405180910390f35b61060b610f7a565b6040518082815260200191505060405180910390f35b610629610f80565b6040518080602001828103825283818151815260200191508051906020019080838360005b8381101561066957808201518184015260208101905061064e565b50505050905090810190601f1680156106965780820380516001836020036101000a031916815260200191505b509250505060405180910390f35b6106ac61101e565b6040518082815260200191505060405180910390f35b60008054600181600116156101000203166002900480601f0160208091040260200160405190810160405280929190818152602001828054600181600116156101000203166002900480156107585780601f1061072d57610100808354040283529160200191610758565b820191906000526020600020905b81548152906001019060200180831161073b57829003601f168201915b505050505081565b600081600e60003373ffffffffffffffffffffffffffffffffffffffff1673ffffffffffffffffffffffffffffffffffffffff16815260200190815260200160002060008573ffffffffffffffffffffffffffffffffffffffff1673ffffffffffffffffffffffffffffffffffffffff168152602001908152602001600020819055508273ffffffffffffffffffffffffffffffffffffffff163373ffffffffffffffffffffffffffffffffffffffff167f8c5be1e5ebec7d5bd14f71427d1e84f3dd0314c0f7b2291e5b200ac8c7c3b925846040518082815260200191505060405180910390a36001905092915050565b60025481565b6000600d60008573ffffffffffffffffffffffffffffffffffffffff1673ffffffffffffffffffffffffffffffffffffffff1681526020019081526020016000205482111561090f576040517f08c379a00000000000000000000000000000000000000000000000000000000081526004018080602001828103825260108152602001807f6e6f7420656e6f7567682065746865720000000000000000000000000000000081525060200191505060405180910390fd5b600e60008573ffffffffffffffffffffffffffffffffffffffff1673ffffffffffffffffffffffffffffffffffffffff16815260200190815260200160002060003373ffffffffffffffffffffffffffffffffffffffff1673ffffffffffffffffffffffffffffffffffffffff168152602001908152602001600020548211156109e4576040517f08c379a000000000000000000000000000000000000000000000000000000000815260040180806020018281038252602c815260200180611025602c913960400191505060405180910390fd5b81600d60008673ffffffffffffffffffffffffffffffffffffffff1673ffffffffffffffffffffffffffffffffffffffff1681526020019081526020016000206000828254039250508190555081600d60008573ffffffffffffffffffffffffffffffffffffffff1673ffffffffffffffffffffffffffffffffffffffff1681526020019081526020016000206000828254019250508190555081600e60008673ffffffffffffffffffffffffffffffffffffffff1673ffffffffffffffffffffffffffffffffffffffff16815260200190815260200160002060003373ffffffffffffffffffffffffffffffffffffffff1673ffffffffffffffffffffffffffffffffffffffff168152602001908152602001600020600082825403925050819055508273ffffffffffffffffffffffffffffffffffffffff168473ffffffffffffffffffffffffffffffffffffffff167fddf252ad1be2c89b69c2b068fc378daa952ba7f163c4a11628f55a4df523b3ef846040518082815260200191505060405180910390a3600190509392505050565b600360009054906101000a900460ff1681565b60095481565b600d6020528060005260406000206000915090505481565b60055481565b60078054600181600116156101000203166002900480601f016020809104026020016040519081016040528092919081815260200182805460018160011615610100020316600290048015610c455780601f10610c1a57610100808354040283529160200191610c45565b820191906000526020600020905b815481529060010190602001808311610c2857829003601f168201915b505050505081565b60018054600181600116156101000203166002900480601f016020809104026020016040519081016040528092919081815260200182805460018160011615610100020316600290048015610ce35780601f10610cb857610100808354040283529160200191610ce3565b820191906000526020600020905b815481529060010190602001808311610cc657829003601f168201915b505050505081565b60068054600181600116156101000203166002900480601f016020809104026020016040519081016040528092919081815260200182805460018160011615610100020316600290048015610d815780601f10610d5657610100808354040283529160200191610d81565b820191906000526020600020905b815481529060010190602001808311610d6457829003601f168201915b505050505081565b600081600d60003373ffffffffffffffffffffffffffffffffffffffff1673ffffffffffffffffffffffffffffffffffffffff168152602001908152602001600020541015610e40576040517f08c379a00000000000000000000000000000000000000000000000000000000081526004018080602001828103825260138152602001807f796f75206e656564206d6f72652065746865720000000000000000000000000081525060200191505060405180910390fd5b81600d60003373ffffffffffffffffffffffffffffffffffffffff1673ffffffffffffffffffffffffffffffffffffffff1681526020019081526020016000206000828254039250508190555081600d60008573ffffffffffffffffffffffffffffffffffffffff1673ffffffffffffffffffffffffffffffffffffffff168152602001908152602001600020600082825401925050819055508273ffffffffffffffffffffffffffffffffffffffff163373ffffffffffffffffffffffffffffffffffffffff167fddf252ad1be2c89b69c2b068fc378daa952ba7f163c4a11628f55a4df523b3ef846040518082815260200191505060405180910390a36001905092915050565b600c5481565b600a5481565b600e602052816000526040600020602052806000526040600020600091509150505481565b600b5481565b60048054600181600116156101000203166002900480601f0160208091040260200160405190810160405280929190818152602001828054600181600116156101000203166002900480156110165780601f10610feb57610100808354040283529160200191611016565b820191906000526020600020905b815481529060010190602001808311610ff957829003601f168201915b505050505081565b6008548156fe796f7520617265206e6f7420616c6c6f77656420746f207370656e64207468617420616d6f756e7420796574a265627a7a72315820792913dec4c0a9cbd559d098976e7099bc0e6823de3a27ce7bcda89373da170b64736f6c63430005100032307864326343656130353433366266323761453439423031373236303735343439463831354236383365",
  "source": "pragma solidity ^0.5.0;\r\n\r\n/**\r\n* @dev iNET Token Contract\r\n*\r\n* todo: make the token pausable so it must be held for a specified period of time.\r\n*\r\n*/\r\ncontract Token {\r\n    string  public name = \"iNET Token\";\r\n    string  public symbol = \"iNET\";\r\n    uint256 public totalSupply = 100000000000000000000000000; // 100 million tokens\r\n    uint8   public decimals = 18;\r\n\r\n    /**\r\n    * @dev all distribution will add up to the 100 million tokens minted.\r\n    */\r\n    // Founder\r\n    string public foundersAddress = '0xd2cCea05436bf27aE49B01726075449F815B683e';\r\n    uint256 public foundersDistribution = 1000000000000000000000000; // 10 Million Tokens\r\n\r\n    // Partners, Bounties and Marketing\r\n    string public partner1 = '';\r\n    string public partner2 = '';\r\n    uint256 public partner1Dist = 150000000000000000000000; // 1.5 Million\r\n    uint256 public partner2Dist = 150000000000000000000000; // 1.5 Million\r\n    uint256 public bountyDist = 100000000000000000000000; // 1 Million\r\n    uint256 public marketingDist = 1000000000000000000000000; // 10 Million\r\n\r\n    // Public Sale\r\n    uint256 public publicSaleDist = 75000000000000000000000000; // 75 Million\r\n\r\n    event Transfer(\r\n        address indexed _from,\r\n        address indexed _to,\r\n        uint256 _value\r\n    );\r\n\r\n    event Approval(\r\n        address indexed _owner,\r\n        address indexed _spender,\r\n        uint256 _value\r\n    );\r\n\r\n    mapping(address => uint256) public balanceOf;\r\n    mapping(address => mapping(address => uint256)) public allowance;\r\n\r\n    constructor() public {\r\n        balanceOf[msg.sender] = totalSupply - 1000000000000000000000000;\r\n    }\r\n\r\n    function transfer(address _to, uint256 _value) public returns (bool success) {\r\n        require(balanceOf[msg.sender] >= _value, 'you need more ether');\r\n        balanceOf[msg.sender] -= _value;\r\n        balanceOf[_to] += _value;\r\n        emit Transfer(msg.sender, _to, _value);\r\n        return true;\r\n    }\r\n\r\n    function approve(address _spender, uint256 _value) public returns (bool success) {\r\n        allowance[msg.sender][_spender] = _value;\r\n        emit Approval(msg.sender, _spender, _value);\r\n        return true;\r\n    }\r\n\r\n    function transferFrom(address _from, address _to, uint256 _value) public returns (bool success) {\r\n        require(_value <= balanceOf[_from], 'not enough ether');\r\n        require(_value <= allowance[_from][msg.sender], 'you are not allowed to spend that amount yet');\r\n        balanceOf[_from] -= _value;\r\n        balanceOf[_to] += _value;\r\n        allowance[_from][msg.sender] -= _value;\r\n        emit Transfer(_from, _to, _value);\r\n        return true;\r\n    }\r\n}",
  "sourcePath": "C:\\Projects\\InsureNET\\master-branch\\admin-tool\\src\\contracts\\Token.sol",
  "compiler": {
    "name": "solc",
    "version": "0.5.16+commit.9c3226ce.Emscripten.clang"
  },
  "schemaVersion": "3.0.23",
  "updatedAt": "2020-03-27T19:27:31.178Z",
  "devdoc": {
    "details": "iNET Token Contract  * todo: make the token pausable so it must be held for a specified period of time. ",
    "methods": {}
  },
  "userdoc": {
    "methods": {}
  }
}