{
  "contractName": "IncomeStreamCreator",
  "abi": [
    {
      "inputs": [],
      "payable": false,
      "stateMutability": "nonpayable",
      "type": "constructor"
    },
    {
      "anonymous": false,
      "inputs": [
        {
          "indexed": false,
          "internalType": "uint256",
          "name": "_streamId",
          "type": "uint256"
        },
        {
          "indexed": true,
          "internalType": "address",
          "name": "_streamOwner",
          "type": "address"
        },
        {
          "indexed": false,
          "internalType": "uint256",
          "name": "_streamAmount",
          "type": "uint256"
        },
        {
          "indexed": false,
          "internalType": "uint256",
          "name": "_streamLength",
          "type": "uint256"
        },
        {
          "indexed": false,
          "internalType": "uint256",
          "name": "_streamPayment",
          "type": "uint256"
        },
        {
          "indexed": false,
          "internalType": "uint256",
          "name": "_streamFrequency",
          "type": "uint256"
        }
      ],
      "name": "StreamCreated",
      "type": "event"
    },
    {
      "anonymous": false,
      "inputs": [
        {
          "indexed": false,
          "internalType": "uint256",
          "name": "_streamId",
          "type": "uint256"
        },
        {
          "indexed": false,
          "internalType": "address",
          "name": "_owner",
          "type": "address"
        },
        {
          "indexed": false,
          "internalType": "address",
          "name": "_newOwner",
          "type": "address"
        },
        {
          "indexed": false,
          "internalType": "bool",
          "name": "_tokensTransferred",
          "type": "bool"
        }
      ],
      "name": "StreamTransferred",
      "type": "event"
    },
    {
      "anonymous": false,
      "inputs": [
        {
          "indexed": true,
          "internalType": "address",
          "name": "_owner",
          "type": "address"
        },
        {
          "indexed": false,
          "internalType": "uint256",
          "name": "_amount",
          "type": "uint256"
        }
      ],
      "name": "TokensSent",
      "type": "event"
    },
    {
      "anonymous": false,
      "inputs": [
        {
          "indexed": false,
          "internalType": "uint256",
          "name": "_amount",
          "type": "uint256"
        },
        {
          "indexed": false,
          "internalType": "address",
          "name": "_user",
          "type": "address"
        }
      ],
      "name": "WithdrawMade",
      "type": "event"
    },
    {
      "constant": true,
      "inputs": [],
      "name": "MEMBER_HASH",
      "outputs": [
        {
          "internalType": "bytes32",
          "name": "",
          "type": "bytes32"
        }
      ],
      "payable": false,
      "stateMutability": "view",
      "type": "function"
    },
    {
      "constant": true,
      "inputs": [],
      "name": "maxDeposit",
      "outputs": [
        {
          "internalType": "uint256",
          "name": "",
          "type": "uint256"
        }
      ],
      "payable": false,
      "stateMutability": "view",
      "type": "function"
    },
    {
      "constant": true,
      "inputs": [],
      "name": "minDeposit",
      "outputs": [
        {
          "internalType": "uint256",
          "name": "",
          "type": "uint256"
        }
      ],
      "payable": false,
      "stateMutability": "view",
      "type": "function"
    },
    {
      "constant": true,
      "inputs": [],
      "name": "minWaitingPeriod",
      "outputs": [
        {
          "internalType": "uint256",
          "name": "",
          "type": "uint256"
        }
      ],
      "payable": false,
      "stateMutability": "view",
      "type": "function"
    },
    {
      "constant": true,
      "inputs": [],
      "name": "owner",
      "outputs": [
        {
          "internalType": "address payable",
          "name": "",
          "type": "address"
        }
      ],
      "payable": false,
      "stateMutability": "view",
      "type": "function"
    },
    {
      "constant": true,
      "inputs": [],
      "name": "priceToRegister",
      "outputs": [
        {
          "internalType": "uint256",
          "name": "",
          "type": "uint256"
        }
      ],
      "payable": false,
      "stateMutability": "view",
      "type": "function"
    },
    {
      "constant": true,
      "inputs": [
        {
          "internalType": "uint256",
          "name": "",
          "type": "uint256"
        }
      ],
      "name": "streamAccounts",
      "outputs": [
        {
          "internalType": "address",
          "name": "",
          "type": "address"
        }
      ],
      "payable": false,
      "stateMutability": "view",
      "type": "function"
    },
    {
      "constant": true,
      "inputs": [
        {
          "internalType": "address",
          "name": "",
          "type": "address"
        }
      ],
      "name": "streamBalances",
      "outputs": [
        {
          "internalType": "uint256",
          "name": "",
          "type": "uint256"
        }
      ],
      "payable": false,
      "stateMutability": "view",
      "type": "function"
    },
    {
      "constant": true,
      "inputs": [],
      "name": "streamOwner",
      "outputs": [
        {
          "internalType": "address payable",
          "name": "",
          "type": "address"
        }
      ],
      "payable": false,
      "stateMutability": "view",
      "type": "function"
    },
    {
      "constant": true,
      "inputs": [
        {
          "internalType": "address",
          "name": "",
          "type": "address"
        }
      ],
      "name": "streams",
      "outputs": [
        {
          "internalType": "uint256",
          "name": "streamId",
          "type": "uint256"
        },
        {
          "internalType": "address",
          "name": "streamOwner",
          "type": "address"
        },
        {
          "internalType": "uint256",
          "name": "streamValue",
          "type": "uint256"
        },
        {
          "internalType": "uint256",
          "name": "duration",
          "type": "uint256"
        },
        {
          "internalType": "uint256",
          "name": "frequency",
          "type": "uint256"
        },
        {
          "internalType": "uint256",
          "name": "payment",
          "type": "uint256"
        },
        {
          "internalType": "uint256",
          "name": "depositAmt",
          "type": "uint256"
        },
        {
          "internalType": "uint256",
          "name": "dateCreated",
          "type": "uint256"
        }
      ],
      "payable": false,
      "stateMutability": "view",
      "type": "function"
    },
    {
      "constant": true,
      "inputs": [
        {
          "internalType": "uint256",
          "name": "",
          "type": "uint256"
        }
      ],
      "name": "streamsArray",
      "outputs": [
        {
          "internalType": "uint256",
          "name": "streamId",
          "type": "uint256"
        },
        {
          "internalType": "address",
          "name": "streamOwner",
          "type": "address"
        },
        {
          "internalType": "uint256",
          "name": "streamValue",
          "type": "uint256"
        },
        {
          "internalType": "uint256",
          "name": "duration",
          "type": "uint256"
        },
        {
          "internalType": "uint256",
          "name": "frequency",
          "type": "uint256"
        },
        {
          "internalType": "uint256",
          "name": "payment",
          "type": "uint256"
        },
        {
          "internalType": "uint256",
          "name": "depositAmt",
          "type": "uint256"
        },
        {
          "internalType": "uint256",
          "name": "dateCreated",
          "type": "uint256"
        }
      ],
      "payable": false,
      "stateMutability": "view",
      "type": "function"
    },
    {
      "constant": true,
      "inputs": [],
      "name": "userData",
      "outputs": [
        {
          "internalType": "bytes32",
          "name": "",
          "type": "bytes32"
        }
      ],
      "payable": false,
      "stateMutability": "view",
      "type": "function"
    },
    {
      "constant": true,
      "inputs": [
        {
          "internalType": "uint256",
          "name": "_streamId",
          "type": "uint256"
        }
      ],
      "name": "getStream",
      "outputs": [
        {
          "components": [
            {
              "internalType": "uint256",
              "name": "streamId",
              "type": "uint256"
            },
            {
              "internalType": "address",
              "name": "streamOwner",
              "type": "address"
            },
            {
              "internalType": "uint256",
              "name": "streamValue",
              "type": "uint256"
            },
            {
              "internalType": "uint256",
              "name": "duration",
              "type": "uint256"
            },
            {
              "internalType": "uint256",
              "name": "frequency",
              "type": "uint256"
            },
            {
              "internalType": "uint256",
              "name": "payment",
              "type": "uint256"
            },
            {
              "internalType": "uint256",
              "name": "depositAmt",
              "type": "uint256"
            },
            {
              "internalType": "uint256",
              "name": "dateCreated",
              "type": "uint256"
            }
          ],
          "internalType": "struct IncomeStreamCreator.Stream",
          "name": "",
          "type": "tuple"
        }
      ],
      "payable": false,
      "stateMutability": "view",
      "type": "function"
    },
    {
      "constant": true,
      "inputs": [
        {
          "internalType": "address",
          "name": "_owner",
          "type": "address"
        }
      ],
      "name": "getStreams",
      "outputs": [
        {
          "components": [
            {
              "internalType": "uint256",
              "name": "streamId",
              "type": "uint256"
            },
            {
              "internalType": "address",
              "name": "streamOwner",
              "type": "address"
            },
            {
              "internalType": "uint256",
              "name": "streamValue",
              "type": "uint256"
            },
            {
              "internalType": "uint256",
              "name": "duration",
              "type": "uint256"
            },
            {
              "internalType": "uint256",
              "name": "frequency",
              "type": "uint256"
            },
            {
              "internalType": "uint256",
              "name": "payment",
              "type": "uint256"
            },
            {
              "internalType": "uint256",
              "name": "depositAmt",
              "type": "uint256"
            },
            {
              "internalType": "uint256",
              "name": "dateCreated",
              "type": "uint256"
            }
          ],
          "internalType": "struct IncomeStreamCreator.Stream",
          "name": "",
          "type": "tuple"
        }
      ],
      "payable": false,
      "stateMutability": "view",
      "type": "function"
    },
    {
      "constant": true,
      "inputs": [],
      "name": "getAllStreams",
      "outputs": [
        {
          "internalType": "address[]",
          "name": "",
          "type": "address[]"
        }
      ],
      "payable": false,
      "stateMutability": "view",
      "type": "function"
    },
    {
      "constant": false,
      "inputs": [
        {
          "internalType": "uint256",
          "name": "_amount",
          "type": "uint256"
        },
        {
          "internalType": "uint256",
          "name": "_duration",
          "type": "uint256"
        },
        {
          "internalType": "uint256",
          "name": "_frequency",
          "type": "uint256"
        },
        {
          "internalType": "uint256",
          "name": "_payment",
          "type": "uint256"
        }
      ],
      "name": "createStream",
      "outputs": [],
      "payable": true,
      "stateMutability": "payable",
      "type": "function"
    },
    {
      "constant": false,
      "inputs": [
        {
          "internalType": "uint256",
          "name": "_streamId",
          "type": "uint256"
        },
        {
          "internalType": "address",
          "name": "_newOwner",
          "type": "address"
        }
      ],
      "name": "transferStream",
      "outputs": [],
      "payable": true,
      "stateMutability": "payable",
      "type": "function"
    },
    {
      "constant": false,
      "inputs": [
        {
          "internalType": "uint256",
          "name": "_amount",
          "type": "uint256"
        }
      ],
      "name": "withdraw",
      "outputs": [
        {
          "internalType": "bool",
          "name": "",
          "type": "bool"
        }
      ],
      "payable": true,
      "stateMutability": "payable",
      "type": "function"
    },
    {
      "constant": false,
      "inputs": [],
      "name": "withdrawAll",
      "outputs": [
        {
          "internalType": "bool",
          "name": "",
          "type": "bool"
        }
      ],
      "payable": true,
      "stateMutability": "payable",
      "type": "function"
    },
    {
      "constant": true,
      "inputs": [],
      "name": "getBalanceContract",
      "outputs": [
        {
          "internalType": "uint256",
          "name": "",
          "type": "uint256"
        }
      ],
      "payable": false,
      "stateMutability": "view",
      "type": "function"
    }
  ],
  "bytecode": "0x608060405273d2ccea05436bf27ae49b01726075449f815b683e6000806101000a81548173ffffffffffffffffffffffffffffffffffffffff021916908373ffffffffffffffffffffffffffffffffffffffff160217905550601d60025560636003556103e96004556703782dace9d90000600555604051610080906100dd565b604051809103902060065534801561009757600080fd5b506100fd565b60006100aa6010836100f2565b91507f694e45545f4d454d4245525f48415348000000000000000000000000000000006000830152601082019050919050565b60006100e88261009d565b9150819050919050565b600081905092915050565b6119058061010c6000396000f3fe60806040526004361061011f5760003560e01c8063853828b6116100a0578063bea6998f11610064578063bea6998f146103cf578063db811835146103fa578063ea4393b41461043e578063edca7cfb1461047b578063fd9c9c3a146104975761011f565b8063853828b6146102f057806385b9dd0a1461030e578063894e9a0d1461034b5780638da5cb5b14610388578063b703e90f146103b35761011f565b80636083e59a116100e75780636083e59a1461020057806363e660e41461022b57806366bd78fd146102565780636c4876f61461028157806383699275146102ac5761011f565b80631ddea801146101245780632e1a7d4d1461014f5780633bd84c0c1461017f57806341b3d185146101aa5780634c100083146101d5575b600080fd5b34801561013057600080fd5b506101396104d4565b604051610146919061155f565b60405180910390f35b610169600480360361016491908101906110c8565b6104da565b6040516101769190611544565b60405180910390f35b34801561018b57600080fd5b5061019461061e565b6040516101a19190611522565b60405180910390f35b3480156101b657600080fd5b506101bf6106ac565b6040516101cc9190611656565b60405180910390f35b3480156101e157600080fd5b506101ea6106b2565b6040516101f79190611507565b60405180910390f35b34801561020c57600080fd5b506102156106d8565b6040516102229190611656565b60405180910390f35b34801561023757600080fd5b506102406106de565b60405161024d9190611656565b60405180910390f35b34801561026257600080fd5b5061026b6106e4565b6040516102789190611656565b60405180910390f35b34801561028d57600080fd5b506102966106ec565b6040516102a39190611656565b60405180910390f35b3480156102b857600080fd5b506102d360048036036102ce919081019061109f565b6106f2565b6040516102e79897969594939291906116df565b60405180910390f35b6102f861075a565b6040516103059190611544565b60405180910390f35b34801561031a57600080fd5b506103356004803603610330919081019061109f565b6108b4565b604051610342919061163a565b60405180910390f35b34801561035757600080fd5b50610372600480360361036d91908101906110c8565b6109aa565b60405161037f919061163a565b60405180910390f35b34801561039457600080fd5b5061039d610a7c565b6040516103aa9190611507565b60405180910390f35b6103cd60048036036103c891908101906110f1565b610aa1565b005b3480156103db57600080fd5b506103e4610b96565b6040516103f1919061155f565b60405180910390f35b34801561040657600080fd5b50610421600480360361041c91908101906110c8565b610b9c565b6040516104359897969594939291906116df565b60405180910390f35b34801561044a57600080fd5b506104656004803603610460919081019061109f565b610c11565b6040516104729190611656565b60405180910390f35b6104956004803603610490919081019061112d565b610c29565b005b3480156104a357600080fd5b506104be60048036036104b991908101906110c8565b610f8c565b6040516104cb91906114ec565b60405180910390f35b60065481565b60008060009054906101000a900473ffffffffffffffffffffffffffffffffffffffff1673ffffffffffffffffffffffffffffffffffffffff163373ffffffffffffffffffffffffffffffffffffffff161461056b576040517f08c379a00000000000000000000000000000000000000000000000000000000081526004016105629061159a565b60405180910390fd5b4782106105ad576040517f08c379a00000000000000000000000000000000000000000000000000000000081526004016105a49061161a565b60405180910390fd5b6000809054906101000a900473ffffffffffffffffffffffffffffffffffffffff1673ffffffffffffffffffffffffffffffffffffffff166108fc349081150290604051600060405180830381858888f19350505050158015610614573d6000803e3d6000fd5b5060019050919050565b606060098054806020026020016040519081016040528092919081815260200182805480156106a257602002820191906000526020600020905b8160009054906101000a900473ffffffffffffffffffffffffffffffffffffffff1673ffffffffffffffffffffffffffffffffffffffff1681526020019060010190808311610658575b5050505050905090565b60035481565b600160009054906101000a900473ffffffffffffffffffffffffffffffffffffffff1681565b60045481565b60055481565b600047905090565b60025481565b600b6020528060005260406000206000915090508060000154908060010160009054906101000a900473ffffffffffffffffffffffffffffffffffffffff16908060020154908060030154908060040154908060050154908060060154908060070154905088565b60008060009054906101000a900473ffffffffffffffffffffffffffffffffffffffff1673ffffffffffffffffffffffffffffffffffffffff163373ffffffffffffffffffffffffffffffffffffffff16146107eb576040517f08c379a00000000000000000000000000000000000000000000000000000000081526004016107e29061159a565b60405180910390fd5b6000809054906101000a900473ffffffffffffffffffffffffffffffffffffffff1673ffffffffffffffffffffffffffffffffffffffff166108fc479081150290604051600060405180830381858888f19350505050158015610852573d6000803e3d6000fd5b507fd3e630cbd9091114b1e17ef183ba893f7fb3f0f13070518e6db0fbc68b3f874d346000809054906101000a900473ffffffffffffffffffffffffffffffffffffffff166040516108a5929190611671565b60405180910390a16001905090565b6108bc61101a565b600b60008373ffffffffffffffffffffffffffffffffffffffff1673ffffffffffffffffffffffffffffffffffffffff16815260200190815260200160002060405180610100016040529081600082015481526020016001820160009054906101000a900473ffffffffffffffffffffffffffffffffffffffff1673ffffffffffffffffffffffffffffffffffffffff1673ffffffffffffffffffffffffffffffffffffffff16815260200160028201548152602001600382015481526020016004820154815260200160058201548152602001600682015481526020016007820154815250509050919050565b6109b261101a565b600882815481106109bf57fe5b906000526020600020906008020160405180610100016040529081600082015481526020016001820160009054906101000a900473ffffffffffffffffffffffffffffffffffffffff1673ffffffffffffffffffffffffffffffffffffffff1673ffffffffffffffffffffffffffffffffffffffff16815260200160028201548152602001600382015481526020016004820154815260200160058201548152602001600682015481526020016007820154815250509050919050565b6000809054906101000a900473ffffffffffffffffffffffffffffffffffffffff1681565b6000821015610ae5576040517f08c379a0000000000000000000000000000000000000000000000000000000008152600401610adc906115da565b60405180910390fd5b3373ffffffffffffffffffffffffffffffffffffffff168173ffffffffffffffffffffffffffffffffffffffff161415610b54576040517f08c379a0000000000000000000000000000000000000000000000000000000008152600401610b4b906115ba565b60405180910390fd5b7fc80e0299d6e9ea7b724b56fed894bcd0baea36461a5c899c14876b5fc446c6248233836001604051610b8a949392919061169a565b60405180910390a15050565b60075481565b60088181548110610ba957fe5b90600052602060002090600802016000915090508060000154908060010160009054906101000a900473ffffffffffffffffffffffffffffffffffffffff16908060020154908060030154908060040154908060050154908060060154908060070154905088565b600c6020528060005260406000206000915090505481565b600354841015610c6e576040517f08c379a0000000000000000000000000000000000000000000000000000000008152600401610c659061157a565b60405180910390fd5b600454841115610cb3576040517f08c379a0000000000000000000000000000000000000000000000000000000008152600401610caa906115fa565b60405180910390fd5b610cbb61101a565b600a60008154809291906001019190505581600001818152505033816020019073ffffffffffffffffffffffffffffffffffffffff16908173ffffffffffffffffffffffffffffffffffffffff1681525050348160400181815250508381606001818152505082816080018181525050848160c0018181525050428160e0018181525050818160a0018181525050600881908060018154018082558091505090600182039060005260206000209060080201600090919290919091506000820151816000015560208201518160010160006101000a81548173ffffffffffffffffffffffffffffffffffffffff021916908373ffffffffffffffffffffffffffffffffffffffff16021790555060408201518160020155606082015181600301556080820151816004015560a0820151816005015560c0820151816006015560e0820151816007015550505080600b60003373ffffffffffffffffffffffffffffffffffffffff1673ffffffffffffffffffffffffffffffffffffffff1681526020019081526020016000206000820151816000015560208201518160010160006101000a81548173ffffffffffffffffffffffffffffffffffffffff021916908373ffffffffffffffffffffffffffffffffffffffff16021790555060408201518160020155606082015181600301556080820151816004015560a0820151816005015560c0820151816006015560e082015181600701559050508060400151600c60003373ffffffffffffffffffffffffffffffffffffffff1673ffffffffffffffffffffffffffffffffffffffff16815260200190815260200160002081905550610f2d338585850202610fc8565b3373ffffffffffffffffffffffffffffffffffffffff167f9e038f0cf7dc94fff4cb0dfa4f0f0550767edccf72665c85ffc9407b974baabf600a5487878688604051610f7d95949392919061175d565b60405180910390a25050505050565b60098181548110610f9957fe5b906000526020600020016000915054906101000a900473ffffffffffffffffffffffffffffffffffffffff1681565b8173ffffffffffffffffffffffffffffffffffffffff167ff18d5a93c62c1d0c761ed52107f11d20bc2071851206b79c4dd3283bd9f006f18260405161100e9190611656565b60405180910390a25050565b60405180610100016040528060008152602001600073ffffffffffffffffffffffffffffffffffffffff1681526020016000815260200160008152602001600081526020016000815260200160008152602001600081525090565b60008135905061108481611894565b92915050565b600081359050611099816118ab565b92915050565b6000602082840312156110b157600080fd5b60006110bf84828501611075565b91505092915050565b6000602082840312156110da57600080fd5b60006110e88482850161108a565b91505092915050565b6000806040838503121561110457600080fd5b60006111128582860161108a565b925050602061112385828601611075565b9150509250929050565b6000806000806080858703121561114357600080fd5b60006111518782880161108a565b94505060206111628782880161108a565b93505060406111738782880161108a565b92505060606111848782880161108a565b91505092959194509250565b600061119c83836111c6565b60208301905092915050565b6111b18161185e565b82525050565b6111c08161180c565b82525050565b6111cf816117fa565b82525050565b6111de816117fa565b82525050565b60006111ef826117c0565b6111f981856117d8565b9350611204836117b0565b8060005b8381101561123557815161121c8882611190565b9750611227836117cb565b925050600181019050611208565b5085935050505092915050565b61124b8161181e565b82525050565b61125a8161182a565b82525050565b600061126d6020836117e9565b91507f4d7573742062652061626f766520313020746f2070617274696369706174652e6000830152602082019050919050565b60006112ad6019836117e9565b91507f596f75206e65656420746f20626520746865206f776e65722e000000000000006000830152602082019050919050565b60006112ed601d836117e9565b91507f43616e6e6f74207472616e7366657220746f20796f75722073656c662e0000006000830152602082019050919050565b600061132d6022836117e9565b91507f596f7572206964206973206e6f74206120706f73697469766520696e7465676560008301527f722e0000000000000000000000000000000000000000000000000000000000006020830152604082019050919050565b60006113936021836117e9565b91507f4d7573742062652062656c6f77203130303020746f207061727469636970617460008301527f2e000000000000000000000000000000000000000000000000000000000000006020830152604082019050919050565b60006113f96017836117e9565b91507f4e6f7420656e6f75676820746f2077697468647261772e0000000000000000006000830152602082019050919050565b6101008201600082015161144360008501826114ce565b50602082015161145660208501826111c6565b50604082015161146960408501826114ce565b50606082015161147c60608501826114ce565b50608082015161148f60808501826114ce565b5060a08201516114a260a08501826114ce565b5060c08201516114b560c08501826114ce565b5060e08201516114c860e08501826114ce565b50505050565b6114d781611854565b82525050565b6114e681611854565b82525050565b600060208201905061150160008301846111d5565b92915050565b600060208201905061151c60008301846111b7565b92915050565b6000602082019050818103600083015261153c81846111e4565b905092915050565b60006020820190506115596000830184611242565b92915050565b60006020820190506115746000830184611251565b92915050565b6000602082019050818103600083015261159381611260565b9050919050565b600060208201905081810360008301526115b3816112a0565b9050919050565b600060208201905081810360008301526115d3816112e0565b9050919050565b600060208201905081810360008301526115f381611320565b9050919050565b6000602082019050818103600083015261161381611386565b9050919050565b60006020820190508181036000830152611633816113ec565b9050919050565b600061010082019050611650600083018461142c565b92915050565b600060208201905061166b60008301846114dd565b92915050565b600060408201905061168660008301856114dd565b61169360208301846111a8565b9392505050565b60006080820190506116af60008301876114dd565b6116bc60208301866111a8565b6116c960408301856111d5565b6116d66060830184611242565b95945050505050565b6000610100820190506116f5600083018b6114dd565b611702602083018a6111d5565b61170f60408301896114dd565b61171c60608301886114dd565b61172960808301876114dd565b61173660a08301866114dd565b61174360c08301856114dd565b61175060e08301846114dd565b9998505050505050505050565b600060a08201905061177260008301886114dd565b61177f60208301876114dd565b61178c60408301866114dd565b61179960608301856114dd565b6117a660808301846114dd565b9695505050505050565b6000819050602082019050919050565b600081519050919050565b6000602082019050919050565b600082825260208201905092915050565b600082825260208201905092915050565b600061180582611834565b9050919050565b600061181782611834565b9050919050565b60008115159050919050565b6000819050919050565b600073ffffffffffffffffffffffffffffffffffffffff82169050919050565b6000819050919050565b600061186982611870565b9050919050565b600061187b82611882565b9050919050565b600061188d82611834565b9050919050565b61189d816117fa565b81146118a857600080fd5b50565b6118b481611854565b81146118bf57600080fd5b5056fea365627a7a72315820e1fa3bcab79f51214dafe94889b7623fc5a50568fd505ef2fe1fed8e0d51e17f6c6578706572696d656e74616cf564736f6c63430005100040",
  "source": "pragma solidity ^0.5.16;\r\npragma experimental ABIEncoderV2;\r\n\r\ninterface DateTimeAPI {\r\n        /*\r\n         *  Abstract contract for interfacing with the DateTime contract.\r\n         *\r\n         */\r\n        function isLeapYear(uint16 year)external view returns (bool);\r\n        function getYear(uint timestamp)external view returns (uint16);\r\n        function getMonth(uint timestamp)external view returns (uint8);\r\n        function getDay(uint timestamp)external view returns (uint8);\r\n        function getHour(uint timestamp)external view returns (uint8);\r\n        function getMinute(uint timestamp)external view returns (uint8);\r\n        function getSecond(uint timestamp)external view returns (uint8);\r\n        function getWeekday(uint timestamp)external view returns (uint8);\r\n}\r\n\r\n\r\ncontract IncomeStreamCreator {\r\n    // State variables\r\n    address payable public owner = 0xd2cCea05436bf27aE49B01726075449F815B683e;\r\n    address payable public streamOwner;\r\n    uint256 public minWaitingPeriod = 29;\r\n    uint256 public minDeposit = 99;\r\n    uint256 public maxDeposit = 1001;\r\n    uint256 public priceToRegister = .25 ether;\r\n    bytes32 public MEMBER_HASH = keccak256(\"iNET_MEMBER_HASH\");\r\n    bytes32 public userData;\r\n    \r\n    struct Stream {\r\n        uint256 streamId;\r\n        address streamOwner;\r\n        uint256 streamValue; // net present value coming soon!\r\n        uint256 duration;\r\n        uint256 frequency;\r\n        uint256 payment;\r\n        uint256 depositAmt;\r\n        uint256 dateCreated;\r\n    }\r\n    \r\n    struct Member {\r\n        bytes32 email;\r\n        uint256 balance;\r\n        bool active;\r\n    }\r\n    \r\n    Stream[] public streamsArray;\r\n    address[] public streamAccounts;\r\n    \r\n    // counter\r\n    uint256 streamCount;\r\n\r\n    // mappings mapping(_KeyType => _ValueType)\r\n    mapping(address => Stream) public streams;\r\n    mapping(address => uint256) public streamBalances;\r\n    \r\n\r\n    // Events\r\n    event StreamCreated(\r\n        uint256 _streamId,\r\n        address indexed _streamOwner,\r\n        uint256 _streamAmount,\r\n        uint256 _streamLength,\r\n        uint256 _streamPayment,\r\n        uint256 _streamFrequency\r\n    );\r\n\r\n    event StreamTransferred(\r\n        uint256 _streamId,\r\n        address _owner,\r\n        address _newOwner,\r\n        bool _tokensTransferred\r\n    );\r\n    \r\n    event TokensSent(\r\n        address indexed _owner,\r\n        uint256 _amount\r\n    );\r\n    \r\n    event WithdrawMade(\r\n        uint256 _amount,\r\n        address _user\r\n    );\r\n    \r\n    // Constructor\r\n    constructor() public \r\n    {\r\n        // do stuff if we need to...\r\n    }\r\n    \r\n    \r\n    modifier onlyOwner {\r\n        require(msg.sender == owner, \"You need to be the owner.\");\r\n        _;\r\n    }\r\n\r\n   function getStream(uint256 _streamId) public view returns(Stream memory) {\r\n      return streamsArray[_streamId];\r\n   }\r\n   \r\n   function getStreams(address _owner) public view returns(Stream memory) {\r\n      return streams[_owner];\r\n   }\r\n   \r\n   function getAllStreams() public view returns(address[] memory) {\r\n       return streamAccounts;\r\n   }\r\n    \r\n    function createStream(\r\n        uint256 _amount,\r\n        uint256 _duration,\r\n        uint256 _frequency,\r\n        uint256 _payment\r\n    ) public payable {\r\n        // make sure they are within our constraints\r\n        require(_amount >= minDeposit, \"Must be above 10 to participate.\");\r\n        require(_amount <= maxDeposit, \"Must be below 1000 to participat.\");\r\n        // create a new entity/stream\r\n        Stream memory stream;\r\n        // set its params\r\n        stream.streamId = streamCount++;\r\n        stream.streamOwner = msg.sender;\r\n        stream.streamValue = msg.value;\r\n        stream.duration = _duration;\r\n        stream.frequency = _frequency;\r\n        stream.depositAmt = _amount;\r\n        stream.dateCreated = block.timestamp;\r\n        stream.payment = _payment;\r\n        \r\n        streamsArray.push(stream);\r\n        streams[msg.sender] = stream;\r\n        streamBalances[msg.sender] = stream.streamValue;\r\n\r\n        \r\n        // send the streams tokens to the owner\r\n        sendOwnerStreamTokens(msg.sender, _payment * _frequency * _duration);\r\n        \r\n        \r\n        // Notify of success\r\n        emit StreamCreated(streamCount, msg.sender, _amount, _duration, _payment, _frequency);\r\n        //return stream;\r\n    }\r\n    \r\n    \r\n    function sendOwnerStreamTokens(address payable _owner, uint256 _payment) internal {\r\n        // send tokens representing the income stream to owner\r\n        \r\n        \r\n        \r\n        \r\n        emit TokensSent(_owner, _payment);\r\n    }\r\n    \r\n    \r\n    function transferStream(uint256 _streamId, address _newOwner) public payable {\r\n        require(_streamId >= 0, \"Your id is not a positive integer.\");\r\n        require(_newOwner != msg.sender, \"Cannot transfer to your self.\");\r\n        \r\n        emit StreamTransferred(_streamId, msg.sender, _newOwner, true);\r\n    }\r\n \r\n    function withdraw(uint256 _amount) public payable onlyOwner returns(bool) {\r\n        require(_amount < address(this).balance, \"Not enough to withdraw.\");\r\n        owner.transfer(msg.value);\r\n        return true;\r\n    }\r\n    \r\n    \r\n    function withdrawAll() public payable onlyOwner returns(bool) {\r\n        owner.transfer(address(this).balance);\r\n        emit WithdrawMade(msg.value, owner);\r\n        return true;\r\n    }\r\n    \r\n    \r\n    function getBalanceContract() public view returns(uint256) {\r\n        return address(this).balance;\r\n    }\r\n    \r\n    \r\n    // receive() external payable onlyOwner {\r\n    //     owner.transfer(address(this).balance);\r\n    // }\r\n}\r\n\r\n",
  "sourcePath": "C:\\Projects\\INET-IncomeStream\\App\\admin-tool\\contracts\\incomestream\\IncomeStreamCreator.sol",
  "compiler": {
    "name": "solc",
    "version": "0.5.16+commit.9c3226ce.Emscripten.clang"
  },
  "schemaVersion": "3.1.0",
  "updatedAt": "2020-06-01T20:08:31.687Z",
  "devdoc": {
    "methods": {}
  },
  "userdoc": {
    "methods": {}
  }
}