{
  "contractName": "IncomeStream",
  "abi": [
    {
      "inputs": [],
      "payable": false,
      "stateMutability": "nonpayable",
      "type": "constructor"
    },
    {
      "anonymous": false,
      "inputs": [
        {
          "indexed": true,
          "internalType": "address",
          "name": "_owner",
          "type": "address"
        },
        {
          "indexed": true,
          "internalType": "address",
          "name": "_spender",
          "type": "address"
        },
        {
          "indexed": false,
          "internalType": "uint256",
          "name": "_streamId",
          "type": "uint256"
        },
        {
          "indexed": false,
          "internalType": "uint256",
          "name": "_duration",
          "type": "uint256"
        },
        {
          "indexed": false,
          "internalType": "uint256",
          "name": "_value",
          "type": "uint256"
        },
        {
          "indexed": false,
          "internalType": "bool",
          "name": "spoiled",
          "type": "bool"
        }
      ],
      "name": "Approval",
      "type": "event"
    },
    {
      "anonymous": false,
      "inputs": [
        {
          "indexed": false,
          "internalType": "uint256",
          "name": "id",
          "type": "uint256"
        }
      ],
      "name": "StreamPurchased",
      "type": "event"
    },
    {
      "anonymous": false,
      "inputs": [
        {
          "indexed": true,
          "internalType": "address",
          "name": "_from",
          "type": "address"
        },
        {
          "indexed": true,
          "internalType": "address",
          "name": "_to",
          "type": "address"
        },
        {
          "indexed": false,
          "internalType": "uint256",
          "name": "_streamId",
          "type": "uint256"
        },
        {
          "indexed": false,
          "internalType": "uint256",
          "name": "_duration",
          "type": "uint256"
        },
        {
          "indexed": false,
          "internalType": "uint256",
          "name": "_value",
          "type": "uint256"
        },
        {
          "indexed": false,
          "internalType": "bool",
          "name": "spoiled",
          "type": "bool"
        }
      ],
      "name": "Transfer",
      "type": "event"
    },
    {
      "constant": true,
      "inputs": [
        {
          "internalType": "address",
          "name": "",
          "type": "address"
        },
        {
          "internalType": "address",
          "name": "",
          "type": "address"
        }
      ],
      "name": "allowance",
      "outputs": [
        {
          "internalType": "uint256",
          "name": "",
          "type": "uint256"
        }
      ],
      "payable": false,
      "stateMutability": "view",
      "type": "function"
    },
    {
      "constant": true,
      "inputs": [
        {
          "internalType": "address",
          "name": "",
          "type": "address"
        }
      ],
      "name": "balanceOf",
      "outputs": [
        {
          "internalType": "uint256",
          "name": "",
          "type": "uint256"
        }
      ],
      "payable": false,
      "stateMutability": "view",
      "type": "function"
    },
    {
      "constant": true,
      "inputs": [
        {
          "internalType": "uint256",
          "name": "",
          "type": "uint256"
        }
      ],
      "name": "streams",
      "outputs": [
        {
          "internalType": "uint256",
          "name": "id",
          "type": "uint256"
        },
        {
          "internalType": "address payable",
          "name": "ownerAddress",
          "type": "address"
        }
      ],
      "payable": false,
      "stateMutability": "view",
      "type": "function"
    },
    {
      "constant": false,
      "inputs": [
        {
          "internalType": "address",
          "name": "_ownerOfStream",
          "type": "address"
        },
        {
          "internalType": "uint256",
          "name": "_value",
          "type": "uint256"
        },
        {
          "internalType": "uint256",
          "name": "_duration",
          "type": "uint256"
        }
      ],
      "name": "createStream",
      "outputs": [
        {
          "internalType": "bool",
          "name": "",
          "type": "bool"
        }
      ],
      "payable": false,
      "stateMutability": "nonpayable",
      "type": "function"
    },
    {
      "constant": true,
      "inputs": [
        {
          "internalType": "address",
          "name": "_incomeStream",
          "type": "address"
        }
      ],
      "name": "balanceOfStream",
      "outputs": [
        {
          "internalType": "uint256",
          "name": "",
          "type": "uint256"
        }
      ],
      "payable": false,
      "stateMutability": "view",
      "type": "function"
    },
    {
      "constant": false,
      "inputs": [
        {
          "internalType": "address",
          "name": "_ownerOfStream",
          "type": "address"
        },
        {
          "internalType": "uint256",
          "name": "_duration",
          "type": "uint256"
        }
      ],
      "name": "freezeStream",
      "outputs": [],
      "payable": false,
      "stateMutability": "nonpayable",
      "type": "function"
    },
    {
      "constant": false,
      "inputs": [
        {
          "internalType": "address",
          "name": "_ownerOfStream",
          "type": "address"
        },
        {
          "internalType": "uint256",
          "name": "_streamId",
          "type": "uint256"
        }
      ],
      "name": "burnStream",
      "outputs": [],
      "payable": false,
      "stateMutability": "nonpayable",
      "type": "function"
    },
    {
      "constant": false,
      "inputs": [
        {
          "internalType": "address",
          "name": "_ownerOfStream",
          "type": "address"
        },
        {
          "internalType": "uint256",
          "name": "_streamId",
          "type": "uint256"
        },
        {
          "internalType": "address",
          "name": "_newOwnerOfStream",
          "type": "address"
        }
      ],
      "name": "transferStream",
      "outputs": [],
      "payable": false,
      "stateMutability": "nonpayable",
      "type": "function"
    }
  ],
  "bytecode": "0x608060405273d2ccea05436bf27ae49b01726075449f815b683e6000806101000a81548173ffffffffffffffffffffffffffffffffffffffff021916908373ffffffffffffffffffffffffffffffffffffffff16021790555034801561006457600080fd5b5061061d806100746000396000f3fe608060405234801561001057600080fd5b50600436106100885760003560e01c806370a082311161005b57806370a0823114610216578063bddd78111461026e578063cd9e3fe8146102bc578063dd62ed3e1461032c57610088565b806324c344ff1461008d57806338342808146100e5578063589d84811461013357806364d60d91146101a1575b600080fd5b6100cf600480360360208110156100a357600080fd5b81019080803573ffffffffffffffffffffffffffffffffffffffff1690602001909291905050506103a4565b6040518082815260200191505060405180910390f35b610131600480360360408110156100fb57600080fd5b81019080803573ffffffffffffffffffffffffffffffffffffffff169060200190929190803590602001909291905050506103ab565b005b61019f6004803603606081101561014957600080fd5b81019080803573ffffffffffffffffffffffffffffffffffffffff16906020019092919080359060200190929190803573ffffffffffffffffffffffffffffffffffffffff1690602001909291905050506103af565b005b6101cd600480360360208110156101b757600080fd5b8101908080359060200190929190505050610476565b604051808381526020018273ffffffffffffffffffffffffffffffffffffffff1673ffffffffffffffffffffffffffffffffffffffff1681526020019250505060405180910390f35b6102586004803603602081101561022c57600080fd5b81019080803573ffffffffffffffffffffffffffffffffffffffff1690602001909291905050506104c7565b6040518082815260200191505060405180910390f35b6102ba6004803603604081101561028457600080fd5b81019080803573ffffffffffffffffffffffffffffffffffffffff169060200190929190803590602001909291905050506104df565b005b610312600480360360608110156102d257600080fd5b81019080803573ffffffffffffffffffffffffffffffffffffffff16906020019092919080359060200190929190803590602001909291905050506105a5565b604051808215151515815260200191505060405180910390f35b61038e6004803603604081101561034257600080fd5b81019080803573ffffffffffffffffffffffffffffffffffffffff169060200190929190803573ffffffffffffffffffffffffffffffffffffffff1690602001909291905050506105c3565b6040518082815260200191505060405180910390f35b6000919050565b5050565b6000809054906101000a900473ffffffffffffffffffffffffffffffffffffffff1673ffffffffffffffffffffffffffffffffffffffff163373ffffffffffffffffffffffffffffffffffffffff1614610471576040517f08c379a00000000000000000000000000000000000000000000000000000000081526004018080602001828103825260158152602001807f4d757374206d6520666f756e6465722f6f776e6572000000000000000000000081525060200191505060405180910390fd5b505050565b6003818154811061048357fe5b90600052602060002090600202016000915090508060000154908060010160009054906101000a900473ffffffffffffffffffffffffffffffffffffffff16905082565b60016020528060005260406000206000915090505481565b6000809054906101000a900473ffffffffffffffffffffffffffffffffffffffff1673ffffffffffffffffffffffffffffffffffffffff163373ffffffffffffffffffffffffffffffffffffffff16146105a1576040517f08c379a00000000000000000000000000000000000000000000000000000000081526004018080602001828103825260158152602001807f4d757374206d6520666f756e6465722f6f776e6572000000000000000000000081525060200191505060405180910390fd5b5050565b60006001156105b757600190506105bc565b600090505b9392505050565b600260205281600052604060002060205280600052604060002060009150915050548156fea265627a7a72315820253fc990ecc9b8b3f509284c0593e48ca712e73034ee22cf354e2cd2c41c7bca64736f6c63430005100032",
  "source": "pragma solidity ^0.5.16;\r\n\r\ncontract IncomeStream {\r\n    address founder = 0xd2cCea05436bf27aE49B01726075449F815B683e;\r\n\r\n    mapping(address => uint256) public balanceOf;\r\n    mapping(address => mapping(address => uint256)) public allowance;\r\n\r\n    Stream[] public streams;\r\n\r\n    struct Stream {\r\n        uint256 id;\r\n        address payable ownerAddress;\r\n        \r\n    }\r\n\r\n    event StreamPurchased(\r\n        uint256 id\r\n\r\n\r\n    );\r\n\r\n    event Transfer(\r\n        address indexed _from,\r\n        address indexed _to,\r\n        uint256 _streamId,\r\n        uint256 _duration,\r\n        uint256 _value,\r\n        bool spoiled\r\n    );\r\n\r\n    event Approval(\r\n        address indexed _owner,\r\n        address indexed _spender,\r\n        uint256 _streamId,\r\n        uint256 _duration,\r\n        uint256 _value,\r\n        bool spoiled\r\n    );\r\n\r\n    constructor() public {\r\n\r\n    }\r\n\r\n     /**\r\n    *   @dev createStream\r\n    */\r\n    function createStream(\r\n        address _ownerOfStream,\r\n        uint256 _value,\r\n        uint256 _duration\r\n    )\r\n        public\r\n        returns(bool)\r\n    {\r\n        if(true){ // pseudo code\r\n\r\n\r\n\r\n\r\n            return true;\r\n        } else {\r\n\r\n\r\n            return false;\r\n        }\r\n    }\r\n\r\n    /**\r\n    *   @dev balanceOfStream\r\n    */\r\n    function balanceOfStream(\r\n        address _incomeStream\r\n    )\r\n        public\r\n        view\r\n        returns(uint256)\r\n    {\r\n\r\n    }\r\n\r\n\r\n    /**\r\n    *   @dev freezeStream\r\n    */\r\n    function freezeStream(\r\n        address _ownerOfStream,\r\n        uint256 _duration\r\n    )\r\n        public\r\n        onlyOwner\r\n    {\r\n\r\n    }\r\n\r\n    /**\r\n    *   @dev burnStream\r\n    */\r\n    function burnStream(\r\n        address _ownerOfStream,\r\n        uint256 _streamId\r\n    )\r\n        public\r\n    {\r\n        \r\n    }\r\n\r\n    /**\r\n    *   @dev transferStream\r\n    */\r\n    function transferStream(\r\n        address _ownerOfStream,\r\n        uint256 _streamId,\r\n        address _newOwnerOfStream\r\n    )\r\n        public\r\n        onlyOwner\r\n    {\r\n        //burnStream(_streamId);\r\n    }\r\n\r\n\r\n\r\n    // /**\r\n    // * @dev Throws if called by any account other than the owner.\r\n    // */\r\n    modifier onlyOwner() {\r\n        require(msg.sender == founder, 'Must me founder/owner');\r\n        _;\r\n    }\r\n}",
  "sourcePath": "C:\\Projects\\INET-IncomeStream\\App\\admin-tool\\contracts\\incomestream\\IncomeStream.sol",
  "compiler": {
    "name": "solc",
    "version": "0.5.16+commit.9c3226ce.Emscripten.clang"
  },
  "schemaVersion": "3.1.0",
  "updatedAt": "2020-06-01T20:08:31.678Z",
  "devdoc": {
    "methods": {
      "balanceOfStream(address)": {
        "details": "balanceOfStream"
      },
      "burnStream(address,uint256)": {
        "details": "burnStream"
      },
      "createStream(address,uint256,uint256)": {
        "details": "createStream"
      },
      "freezeStream(address,uint256)": {
        "details": "freezeStream"
      },
      "transferStream(address,uint256,address)": {
        "details": "transferStream"
      }
    }
  },
  "userdoc": {
    "methods": {}
  }
}