{
  "contractName": "Token",
  "abi": [
    {
      "inputs": [],
      "payable": false,
      "stateMutability": "nonpayable",
      "type": "constructor"
    },
    {
      "anonymous": false,
      "inputs": [
        {
          "indexed": true,
          "internalType": "address",
          "name": "_owner",
          "type": "address"
        },
        {
          "indexed": true,
          "internalType": "address",
          "name": "_spender",
          "type": "address"
        },
        {
          "indexed": false,
          "internalType": "uint256",
          "name": "_value",
          "type": "uint256"
        }
      ],
      "name": "Approval",
      "type": "event"
    },
    {
      "anonymous": false,
      "inputs": [
        {
          "indexed": true,
          "internalType": "address",
          "name": "_from",
          "type": "address"
        },
        {
          "indexed": true,
          "internalType": "address",
          "name": "_to",
          "type": "address"
        },
        {
          "indexed": false,
          "internalType": "uint256",
          "name": "_value",
          "type": "uint256"
        }
      ],
      "name": "Transfer",
      "type": "event"
    },
    {
      "constant": true,
      "inputs": [],
      "name": "_totalSupply",
      "outputs": [
        {
          "internalType": "uint256",
          "name": "",
          "type": "uint256"
        }
      ],
      "payable": false,
      "stateMutability": "view",
      "type": "function"
    },
    {
      "constant": true,
      "inputs": [
        {
          "internalType": "address",
          "name": "",
          "type": "address"
        },
        {
          "internalType": "address",
          "name": "",
          "type": "address"
        }
      ],
      "name": "allowance",
      "outputs": [
        {
          "internalType": "uint256",
          "name": "",
          "type": "uint256"
        }
      ],
      "payable": false,
      "stateMutability": "view",
      "type": "function"
    },
    {
      "constant": true,
      "inputs": [
        {
          "internalType": "address",
          "name": "",
          "type": "address"
        }
      ],
      "name": "balanceOf",
      "outputs": [
        {
          "internalType": "uint256",
          "name": "",
          "type": "uint256"
        }
      ],
      "payable": false,
      "stateMutability": "view",
      "type": "function"
    },
    {
      "constant": true,
      "inputs": [],
      "name": "bountyDist",
      "outputs": [
        {
          "internalType": "uint256",
          "name": "",
          "type": "uint256"
        }
      ],
      "payable": false,
      "stateMutability": "view",
      "type": "function"
    },
    {
      "constant": true,
      "inputs": [],
      "name": "decimals",
      "outputs": [
        {
          "internalType": "uint8",
          "name": "",
          "type": "uint8"
        }
      ],
      "payable": false,
      "stateMutability": "view",
      "type": "function"
    },
    {
      "constant": true,
      "inputs": [],
      "name": "foundersAddress",
      "outputs": [
        {
          "internalType": "string",
          "name": "",
          "type": "string"
        }
      ],
      "payable": false,
      "stateMutability": "view",
      "type": "function"
    },
    {
      "constant": true,
      "inputs": [],
      "name": "foundersDistribution",
      "outputs": [
        {
          "internalType": "uint256",
          "name": "",
          "type": "uint256"
        }
      ],
      "payable": false,
      "stateMutability": "view",
      "type": "function"
    },
    {
      "constant": true,
      "inputs": [],
      "name": "marketingDist",
      "outputs": [
        {
          "internalType": "uint256",
          "name": "",
          "type": "uint256"
        }
      ],
      "payable": false,
      "stateMutability": "view",
      "type": "function"
    },
    {
      "constant": true,
      "inputs": [],
      "name": "name",
      "outputs": [
        {
          "internalType": "string",
          "name": "",
          "type": "string"
        }
      ],
      "payable": false,
      "stateMutability": "view",
      "type": "function"
    },
    {
      "constant": true,
      "inputs": [],
      "name": "partner1",
      "outputs": [
        {
          "internalType": "string",
          "name": "",
          "type": "string"
        }
      ],
      "payable": false,
      "stateMutability": "view",
      "type": "function"
    },
    {
      "constant": true,
      "inputs": [],
      "name": "partner1Dist",
      "outputs": [
        {
          "internalType": "uint256",
          "name": "",
          "type": "uint256"
        }
      ],
      "payable": false,
      "stateMutability": "view",
      "type": "function"
    },
    {
      "constant": true,
      "inputs": [],
      "name": "partner2",
      "outputs": [
        {
          "internalType": "string",
          "name": "",
          "type": "string"
        }
      ],
      "payable": false,
      "stateMutability": "view",
      "type": "function"
    },
    {
      "constant": true,
      "inputs": [],
      "name": "partner2Dist",
      "outputs": [
        {
          "internalType": "uint256",
          "name": "",
          "type": "uint256"
        }
      ],
      "payable": false,
      "stateMutability": "view",
      "type": "function"
    },
    {
      "constant": true,
      "inputs": [],
      "name": "partner3",
      "outputs": [
        {
          "internalType": "string",
          "name": "",
          "type": "string"
        }
      ],
      "payable": false,
      "stateMutability": "view",
      "type": "function"
    },
    {
      "constant": true,
      "inputs": [],
      "name": "partner3Dist",
      "outputs": [
        {
          "internalType": "uint256",
          "name": "",
          "type": "uint256"
        }
      ],
      "payable": false,
      "stateMutability": "view",
      "type": "function"
    },
    {
      "constant": true,
      "inputs": [],
      "name": "publicSaleDist",
      "outputs": [
        {
          "internalType": "uint256",
          "name": "",
          "type": "uint256"
        }
      ],
      "payable": false,
      "stateMutability": "view",
      "type": "function"
    },
    {
      "constant": true,
      "inputs": [],
      "name": "symbol",
      "outputs": [
        {
          "internalType": "string",
          "name": "",
          "type": "string"
        }
      ],
      "payable": false,
      "stateMutability": "view",
      "type": "function"
    },
    {
      "constant": true,
      "inputs": [],
      "name": "totalSupply",
      "outputs": [
        {
          "internalType": "uint256",
          "name": "",
          "type": "uint256"
        }
      ],
      "payable": false,
      "stateMutability": "view",
      "type": "function"
    },
    {
      "constant": false,
      "inputs": [
        {
          "internalType": "address",
          "name": "_to",
          "type": "address"
        },
        {
          "internalType": "uint256",
          "name": "_value",
          "type": "uint256"
        }
      ],
      "name": "transfer",
      "outputs": [
        {
          "internalType": "bool",
          "name": "success",
          "type": "bool"
        }
      ],
      "payable": false,
      "stateMutability": "nonpayable",
      "type": "function"
    },
    {
      "constant": false,
      "inputs": [
        {
          "internalType": "address",
          "name": "_spender",
          "type": "address"
        },
        {
          "internalType": "uint256",
          "name": "_value",
          "type": "uint256"
        }
      ],
      "name": "approve",
      "outputs": [
        {
          "internalType": "bool",
          "name": "success",
          "type": "bool"
        }
      ],
      "payable": false,
      "stateMutability": "nonpayable",
      "type": "function"
    },
    {
      "constant": false,
      "inputs": [
        {
          "internalType": "address",
          "name": "_from",
          "type": "address"
        },
        {
          "internalType": "address",
          "name": "_to",
          "type": "address"
        },
        {
          "internalType": "uint256",
          "name": "_value",
          "type": "uint256"
        }
      ],
      "name": "transferFrom",
      "outputs": [
        {
          "internalType": "bool",
          "name": "success",
          "type": "bool"
        }
      ],
      "payable": false,
      "stateMutability": "nonpayable",
      "type": "function"
    }
  ],
  "bytecode": "0x60806040526040518060400160405280600a81526020017f694e455420546f6b656e0000000000000000000000000000000000000000000081525060009080519060200190620000519291906200033c565b506040518060400160405280600481526020017f694e455400000000000000000000000000000000000000000000000000000000815250600190805190602001906200009f9291906200033c565b506b033b2e3c9fd0803ce80000006002556012600360006101000a81548160ff021916908360ff1602179055507339dd9fdaa2aa42766c0aee7d598d275768732eb8600360016101000a81548173ffffffffffffffffffffffffffffffffffffffff021916908373ffffffffffffffffffffffffffffffffffffffff1602179055507339dd9fdaa2aa42766c0aee7d598d275768732eb8600460006101000a81548173ffffffffffffffffffffffffffffffffffffffff021916908373ffffffffffffffffffffffffffffffffffffffff1602179055506040518060600160405280602a81526020016200160e602a913960059080519060200190620001a79291906200033c565b506a52b7d2dcc80cd2e40000006006556040518060200160405280600081525060079080519060200190620001de9291906200033c565b506040518060200160405280600081525060089080519060200190620002069291906200033c565b5060405180602001604052806000815250600990805190602001906200022e9291906200033c565b506a0c685fa11e01ec6f000000600a556a0c685fa11e01ec6f000000600b556a0c685fa11e01ec6f000000600c556a108b2a2c28029094000000600d556a52b7d2dcc80cd2e4000000600e556b026c62ad77dc602dae000000600f553480156200029757600080fd5b50620002a86200033260201b60201c565b601060003373ffffffffffffffffffffffffffffffffffffffff1673ffffffffffffffffffffffffffffffffffffffff1681526020019081526020016000208190555033600360016101000a81548173ffffffffffffffffffffffffffffffffffffffff021916908373ffffffffffffffffffffffffffffffffffffffff160217905550620003eb565b6000600254905090565b828054600181600116156101000203166002900490600052602060002090601f016020900481019282601f106200037f57805160ff1916838001178555620003b0565b82800160010185558215620003b0579182015b82811115620003af57825182559160200191906001019062000392565b5b509050620003bf9190620003c3565b5090565b620003e891905b80821115620003e4576000816000905550600101620003ca565b5090565b90565b61121380620003fb6000396000f3fe608060405234801561001057600080fd5b50600436106101375760003560e01c80638b35a244116100b8578063ccb0b0db1161007c578063ccb0b0db1461062f578063dd62ed3e1461064d578063e121a7a9146106c5578063e196ac35146106e3578063ebfdc65714610701578063f584f63b1461078457610137565b80638b35a2441461042257806395d89b41146104a5578063a4c7c7b314610528578063a9059cbb146105ab578063ae4b9dd91461061157610137565b80633eaaf86b116100ff5780633eaaf86b146102ed578063424f84001461030b57806370a082311461032957806382c137fb1461038157806389eb727c1461039f57610137565b806306fdde031461013c578063095ea7b3146101bf57806318160ddd1461022557806323b872dd14610243578063313ce567146102c9575b600080fd5b6101446107a2565b6040518080602001828103825283818151815260200191508051906020019080838360005b83811015610184578082015181840152602081019050610169565b50505050905090810190601f1680156101b15780820380516001836020036101000a031916815260200191505b509250505060405180910390f35b61020b600480360360408110156101d557600080fd5b81019080803573ffffffffffffffffffffffffffffffffffffffff16906020019092919080359060200190929190505050610840565b604051808215151515815260200191505060405180910390f35b61022d610932565b6040518082815260200191505060405180910390f35b6102af6004803603606081101561025957600080fd5b81019080803573ffffffffffffffffffffffffffffffffffffffff169060200190929190803573ffffffffffffffffffffffffffffffffffffffff1690602001909291908035906020019092919050505061093c565b604051808215151515815260200191505060405180910390f35b6102d1610c5c565b604051808260ff1660ff16815260200191505060405180910390f35b6102f5610c6f565b6040518082815260200191505060405180910390f35b610313610c75565b6040518082815260200191505060405180910390f35b61036b6004803603602081101561033f57600080fd5b81019080803573ffffffffffffffffffffffffffffffffffffffff169060200190929190505050610c7b565b6040518082815260200191505060405180910390f35b610389610c93565b6040518082815260200191505060405180910390f35b6103a7610c99565b6040518080602001828103825283818151815260200191508051906020019080838360005b838110156103e75780820151818401526020810190506103cc565b50505050905090810190601f1680156104145780820380516001836020036101000a031916815260200191505b509250505060405180910390f35b61042a610d37565b6040518080602001828103825283818151815260200191508051906020019080838360005b8381101561046a57808201518184015260208101905061044f565b50505050905090810190601f1680156104975780820380516001836020036101000a031916815260200191505b509250505060405180910390f35b6104ad610dd5565b6040518080602001828103825283818151815260200191508051906020019080838360005b838110156104ed5780820151818401526020810190506104d2565b50505050905090810190601f16801561051a5780820380516001836020036101000a031916815260200191505b509250505060405180910390f35b610530610e73565b6040518080602001828103825283818151815260200191508051906020019080838360005b83811015610570578082015181840152602081019050610555565b50505050905090810190601f16801561059d5780820380516001836020036101000a031916815260200191505b509250505060405180910390f35b6105f7600480360360408110156105c157600080fd5b81019080803573ffffffffffffffffffffffffffffffffffffffff16906020019092919080359060200190929190505050610f11565b604051808215151515815260200191505060405180910390f35b6106196110d1565b6040518082815260200191505060405180910390f35b6106376110d7565b6040518082815260200191505060405180910390f35b6106af6004803603604081101561066357600080fd5b81019080803573ffffffffffffffffffffffffffffffffffffffff169060200190929190803573ffffffffffffffffffffffffffffffffffffffff1690602001909291905050506110dd565b6040518082815260200191505060405180910390f35b6106cd611102565b6040518082815260200191505060405180910390f35b6106eb611108565b6040518082815260200191505060405180910390f35b61070961110e565b6040518080602001828103825283818151815260200191508051906020019080838360005b8381101561074957808201518184015260208101905061072e565b50505050905090810190601f1680156107765780820380516001836020036101000a031916815260200191505b509250505060405180910390f35b61078c6111ac565b6040518082815260200191505060405180910390f35b60008054600181600116156101000203166002900480601f0160208091040260200160405190810160405280929190818152602001828054600181600116156101000203166002900480156108385780601f1061080d57610100808354040283529160200191610838565b820191906000526020600020905b81548152906001019060200180831161081b57829003601f168201915b505050505081565b600081601160003373ffffffffffffffffffffffffffffffffffffffff1673ffffffffffffffffffffffffffffffffffffffff16815260200190815260200160002060008573ffffffffffffffffffffffffffffffffffffffff1673ffffffffffffffffffffffffffffffffffffffff168152602001908152602001600020819055508273ffffffffffffffffffffffffffffffffffffffff163373ffffffffffffffffffffffffffffffffffffffff167f8c5be1e5ebec7d5bd14f71427d1e84f3dd0314c0f7b2291e5b200ac8c7c3b925846040518082815260200191505060405180910390a36001905092915050565b6000600254905090565b6000601060008573ffffffffffffffffffffffffffffffffffffffff1673ffffffffffffffffffffffffffffffffffffffff168152602001908152602001600020548211156109f3576040517f08c379a00000000000000000000000000000000000000000000000000000000081526004018080602001828103825260108152602001807f6e6f7420656e6f7567682065746865720000000000000000000000000000000081525060200191505060405180910390fd5b601160008573ffffffffffffffffffffffffffffffffffffffff1673ffffffffffffffffffffffffffffffffffffffff16815260200190815260200160002060003373ffffffffffffffffffffffffffffffffffffffff1673ffffffffffffffffffffffffffffffffffffffff16815260200190815260200160002054821115610ac8576040517f08c379a000000000000000000000000000000000000000000000000000000000815260040180806020018281038252602c8152602001806111b3602c913960400191505060405180910390fd5b81601060008673ffffffffffffffffffffffffffffffffffffffff1673ffffffffffffffffffffffffffffffffffffffff1681526020019081526020016000206000828254039250508190555081601060008573ffffffffffffffffffffffffffffffffffffffff1673ffffffffffffffffffffffffffffffffffffffff1681526020019081526020016000206000828254019250508190555081601160008673ffffffffffffffffffffffffffffffffffffffff1673ffffffffffffffffffffffffffffffffffffffff16815260200190815260200160002060003373ffffffffffffffffffffffffffffffffffffffff1673ffffffffffffffffffffffffffffffffffffffff168152602001908152602001600020600082825403925050819055508273ffffffffffffffffffffffffffffffffffffffff168473ffffffffffffffffffffffffffffffffffffffff167fddf252ad1be2c89b69c2b068fc378daa952ba7f163c4a11628f55a4df523b3ef846040518082815260200191505060405180910390a3600190509392505050565b600360009054906101000a900460ff1681565b60025481565b600b5481565b60106020528060005260406000206000915090505481565b60065481565b60098054600181600116156101000203166002900480601f016020809104026020016040519081016040528092919081815260200182805460018160011615610100020316600290048015610d2f5780601f10610d0457610100808354040283529160200191610d2f565b820191906000526020600020905b815481529060010190602001808311610d1257829003601f168201915b505050505081565b60088054600181600116156101000203166002900480601f016020809104026020016040519081016040528092919081815260200182805460018160011615610100020316600290048015610dcd5780601f10610da257610100808354040283529160200191610dcd565b820191906000526020600020905b815481529060010190602001808311610db057829003601f168201915b505050505081565b60018054600181600116156101000203166002900480601f016020809104026020016040519081016040528092919081815260200182805460018160011615610100020316600290048015610e6b5780601f10610e4057610100808354040283529160200191610e6b565b820191906000526020600020905b815481529060010190602001808311610e4e57829003601f168201915b505050505081565b60078054600181600116156101000203166002900480601f016020809104026020016040519081016040528092919081815260200182805460018160011615610100020316600290048015610f095780601f10610ede57610100808354040283529160200191610f09565b820191906000526020600020905b815481529060010190602001808311610eec57829003601f168201915b505050505081565b600081601060003373ffffffffffffffffffffffffffffffffffffffff1673ffffffffffffffffffffffffffffffffffffffff168152602001908152602001600020541015610fc8576040517f08c379a00000000000000000000000000000000000000000000000000000000081526004018080602001828103825260138152602001807f796f75206e656564206d6f72652065746865720000000000000000000000000081525060200191505060405180910390fd5b81601060003373ffffffffffffffffffffffffffffffffffffffff1673ffffffffffffffffffffffffffffffffffffffff1681526020019081526020016000206000828254039250508190555081601060008573ffffffffffffffffffffffffffffffffffffffff1673ffffffffffffffffffffffffffffffffffffffff168152602001908152602001600020600082825401925050819055508273ffffffffffffffffffffffffffffffffffffffff163373ffffffffffffffffffffffffffffffffffffffff167fddf252ad1be2c89b69c2b068fc378daa952ba7f163c4a11628f55a4df523b3ef846040518082815260200191505060405180910390a36001905092915050565b600f5481565b600d5481565b6011602052816000526040600020602052806000526040600020600091509150505481565b600e5481565b600c5481565b60058054600181600116156101000203166002900480601f0160208091040260200160405190810160405280929190818152602001828054600181600116156101000203166002900480156111a45780601f10611179576101008083540402835291602001916111a4565b820191906000526020600020905b81548152906001019060200180831161118757829003601f168201915b505050505081565b600a548156fe796f7520617265206e6f7420616c6c6f77656420746f207370656e64207468617420616d6f756e7420796574a265627a7a723158204348aa39ccb1e4d4aa192ee2b682f6bf6b7609459a8df5b92e051f6391f9e40e64736f6c63430005100032307833396444394644414132614134323736366330616565376435393844323735373638373332656238",
  "source": "/**\r\n * @title Token Contract\r\n * @dev InsureNET Decentralized Insurance Platform Token Contract.\r\n * @author Jason Romero\r\n * @copyright 2020 InsureNET\r\n */\r\n\r\nimport \"@openzeppelin/contracts/math/SafeMath.sol\";\r\nimport \"@openzeppelin/contracts/token/ERC20/ERC20Pausable.sol\";\r\nimport \"@openzeppelin/contracts/token/ERC20/ERC20Mintable.sol\";\r\n\r\n\r\npragma solidity ^0.5.16;\r\n\r\n/**\r\n* @dev iNET Token Contract\r\n*\r\n* todo: make the token pausable so it must be held for a specified period of time.\r\n*\r\n*/\r\ncontract Token {\r\n    string  public name = \"iNET Token\";\r\n    string  public symbol = \"iNET\";\r\n    uint256 public _totalSupply = 10**9 * 10**18; // 1 Billion tokens\r\n    uint8   public decimals = 18;\r\n\r\n    /**\r\n    * @dev all distribution will add up to the 1 Billion tokens minted.\r\n    */\r\n    // Founder\r\n    address payable founder  = 0x39dD9FDAA2aA42766c0aee7d598D275768732eb8;\r\n    address payable owner = 0x39dD9FDAA2aA42766c0aee7d598D275768732eb8;\r\n    string public foundersAddress = '0x39dD9FDAA2aA42766c0aee7d598D275768732eb8';\r\n    uint256 public foundersDistribution = 100000000000000000000000000; // 100 Million Tokens\r\n\r\n    // Partners, Bounties and Marketing\r\n    string public partner1 = '';\r\n    string public partner2 = '';\r\n    string public partner3 = '';\r\n    uint256 public partner1Dist = 15000000000000000000000000 ; // 15 Million\r\n    uint256 public partner2Dist = 15000000000000000000000000; // 15 Million\r\n    uint256 public partner3Dist = 15000000000000000000000000; // 15 Million\r\n    uint256 public bountyDist = 20000000000000000000000000; // 20 Million\r\n    uint256 public marketingDist = 100000000000000000000000000; // 100 Million\r\n\r\n    // Public Sale\r\n    uint256 public publicSaleDist = 750000000000000000000000000; // 750 Million\r\n\r\n    event Transfer(\r\n        address indexed _from,\r\n        address indexed _to,\r\n        uint256 _value\r\n    );\r\n\r\n    event Approval(\r\n        address indexed _owner,\r\n        address indexed _spender,\r\n        uint256 _value\r\n    );\r\n\r\n    // /**\r\n    // * @dev Throws if called by any account other than the owner.\r\n    // */\r\n    modifier onlyOwner() {\r\n        require(msg.sender == founder, 'Must me founder/owner');\r\n        _;\r\n    }\r\n\r\n\r\n    mapping(address => uint256) public balanceOf;\r\n    mapping(address => mapping(address => uint256)) public allowance;\r\n\r\n\r\n    constructor() public {\r\n        balanceOf[msg.sender] = totalSupply();\r\n        founder = msg.sender;\r\n    }\r\n\r\n\r\n    // function balanceOf(address _account) public view returns (uint256) {\r\n    //     return _balanceOf[_account];\r\n    // }\r\n\r\n\r\n    function totalSupply() public view returns (uint256) {\r\n        return _totalSupply;\r\n    }\r\n\r\n    // function _melt(address account, uint256 amount) internal {\r\n    //     require(account != address(0), \"ERC20: melt from the zero address\");\r\n    //     require(amount > 0, \"ERC20: value should be greater than 0\");\r\n    //     require(_frozen_balanceOf(account), \"ERC20: not enough to melt\");\r\n\r\n    //     _frozen_sub(account, amount)\r\n    //     _balances[account] = _balances[account].add(amount)\r\n    // }\r\n\r\n    // function _burnFrozen(address account, uint256 amount) internal {\r\n    //     require(account != address(0), \"ERC20: burn from the zero address\");\r\n    // }\r\n\r\n    // function freezeTokens(address _account, uint256 _amount) public onlyOwner returns (bool) {\r\n    //     _freeze(_account, _amount)\r\n    //     emit Transfer(_account, address(this), _amount)\r\n    //     return true;\r\n    // }\r\n\r\n    // function mentTokens(address _account, uint256 amount) public onlyMelter returns (bool) {\r\n    //     _melt(_account, _amount)\r\n    //     emit Transfer(_account, address(this), _amount)\r\n    //     return true;\r\n    // }\r\n\r\n    // function mintFrozenTokens(address _account, uint256 amount) public onlyMinter {\r\n    //     _mintfrozen(_account, amount)\r\n    //     return true;\r\n    // }\r\n\r\n    // function mintBatchFrozenTokens(\r\n    //     address[] calldata accounts,\r\n    //     uint256[] calldata amounts\r\n    // ) external onlyMinter returns (bool) {\r\n    // }\r\n\r\n    function transfer(address _to, uint256 _value) public returns (bool success) {\r\n        require(balanceOf[msg.sender] >= _value, 'you need more ether');\r\n        balanceOf[msg.sender] -= _value;\r\n        balanceOf[_to] += _value;\r\n        emit Transfer(msg.sender, _to, _value);\r\n        return true;\r\n    }\r\n\r\n\r\n    function approve(address _spender, uint256 _value) public returns (bool success) {\r\n        allowance[msg.sender][_spender] = _value;\r\n        emit Approval(msg.sender, _spender, _value);\r\n        return true;\r\n    }\r\n\r\n\r\n    function transferFrom(address _from, address _to, uint256 _value) public returns (bool success) {\r\n        require(_value <= balanceOf[_from], 'not enough ether');\r\n        require(_value <= allowance[_from][msg.sender], 'you are not allowed to spend that amount yet');\r\n        balanceOf[_from] -= _value;\r\n        balanceOf[_to] += _value;\r\n        allowance[_from][msg.sender] -= _value;\r\n        emit Transfer(_from, _to, _value);\r\n        return true;\r\n    }\r\n}",
  "sourcePath": "C:\\Projects\\INET-IncomeStream\\App\\admin-tool\\contracts\\Token.sol",
  "compiler": {
    "name": "solc",
    "version": "0.5.16+commit.9c3226ce.Emscripten.clang"
  },
  "schemaVersion": "3.1.0",
  "updatedAt": "2020-06-01T20:08:31.653Z",
  "devdoc": {
    "details": "iNET Token Contract  * todo: make the token pausable so it must be held for a specified period of time. ",
    "methods": {}
  },
  "userdoc": {
    "methods": {}
  }
}